:020000040800F2
:10000000283200204501000801210008A31A000839
:10001000FD200008C30E000893290008000000001E
:1000200000000000000000000000000005230008A0
:10003000B513000800000000AD210008F1230008FE
:100040005F0100085F0100085F0100085F01000810
:100050005F0100085F0100085F0100085F01000800
:100060005F0100085F0100085F0100085F010008F0
:100070005F0100085F0100085F0100085F010008E0
:100080005F0100085F0100085F0100085F010008D0
:100090005F0100085F0100085F0100085F010008C0
:1000A0005F0100085F0100085F0100085F010008B0
:1000B0005F0100085F0100085F0100085F010008A0
:1000C0005F0100085F0100085F0100085F01000890
:1000D0005F01000855240008DD240008912600086F
:1000E000C51600085F0100085F0100085F010008F5
:1000F0005F0100085F0100085F0100085F01000860
:100100005F0100085F0100085F0100085F0100084F
:100110005F0100085F0100085F0100085F0100083F
:100120005F0100085F0100085F0100085F0100082F
:10013000DFF80CD000F038FE00480047953A000880
:10014000283200200648804706480047FEE7FEE7C1
:10015000FEE7FEE7FEE7FEE7FEE7FEE7FEE7FEE777
:10016000F5230008310100082DE9F0410024061BA9
:10017000254671F1000605DA01240027D0EB0700BF
:1001800067EB0101161E73F1000605DA0027D2EBBA
:100190000702012567EB030300F02AFC86460E46A2
:1001A00017469C46AC4204D00025D0EB050E65EB0B
:1001B000010624B10020D2EB000760EB030C70466F
:1001C00031463A466346BDE8F081A0F14101192964
:1001D00000D8203070470000014610B509683C2265
:1001E000B1FBF2F302FB1313B1FBF2F11D48036004
:1001F000B1FBF2F302FB1313B1FBF2F118224360DF
:10020000B1FBF2F302FB1313B1FBF2F183600A1DA1
:100210000723B2FBF3F403FB142282618A0040F24D
:10022000B55102F66C32B2FBF1F344334361B2FBD9
:10023000F1F301FB13218908C1613B2903D3027D3E
:10024000920700D0491C0022074C13460261E25C71
:100250008A4203D8891A5B1C0361F8E7491CC16014
:1002600010BD0000FC2B00207844000840EA010388
:100270009B0703D009E008C9121F08C0042AFAD25C
:1002800003E011F8013B00F8013B521EF9D2704720
:10029000D2B201E000F8012B491EFBD270470022C8
:1002A000F6E710B513460A4604461946FFF7F0FF75
:1002B000204610BD30B505462A460B4612F8010B04
:1002C00013F8014B08B1A042F8D01CB1002802D0AD
:1002D0006D1CF1E7284630BDCAB2401E10F8011F60
:1002E0008A4202D00029F9D100207047421C10F840
:1002F000011B0029FBD1801A704710B5002200E0D5
:10030000521C835C8C5CA34201D1002BF8D1D8B283
:10031000E1B2401A10BD034611F8012B00F8012B81
:10032000002AF9D11846704730B50546002003462B
:1003300000E05B1C934205D2EC5CC85C201A01D142
:10034000002CF6D130BD00002DE9FF4F087883B0B6
:100350009946FF2805D0491C2D2804D000240020F0
:1003600008E000200BE00124F9E700EB800003EB3C
:100370004000491C0B78FF2BF7D104B14042002309
:100380000293147819461D462D2C01D02B2C04D134
:10039000521C2D2C13D000240294AA461478FF2C52
:1003A0000FD00A25A3FB057801FB05814FF0000C57
:1003B00003FB0C11521CE3194AEB0101EEE7012487
:1003C000EAE7814453EA010002D019F5C87F06DA52
:1003D00003980021C0E9001107B0BDE8F08F0025A7
:1003E000AE4E2F46DFF8B882184600F09DFCCDE9EE
:1003F0000001B9F1000002DAC9F1000400E004468E
:100400000023A74A1AEB030B42EB045A12E0E00761
:1004100007D02A4633463846414600F0ECF90746F5
:1004200088462A4633461046194600F0E4F9054648
:100430000E466410002CEAD1DDE90001B9F1000F8D
:100440005A46534606DA00F000FC3A46434600F0AE
:10045000FCFB05E000F0CFF93A46434600F0CBF94B
:10046000029A0AB181F00041039AC2E90001B3E7A0
:100470002DE9FF4F1F468DB0D7E901464FF0FF38F9
:100480002E2045464FF000090B90B9696D1C0E985F
:100490008847396A824688470028F6D1BAF1FF3F7B
:1004A0000AD024F4D064002E11DDBAF12B0F08D04D
:1004B000BAF12D0F0BD102E0404611B08DE744F4A4
:1004C0008064B9696D1C0E9888478246761E69461D
:1004D000600501D52D2000E02B208DF8000001F1F2
:1004E000010B0DF1200809E0B9696D1C0E988847D1
:1004F00082460F9844F40074761E0560002E02DDDB
:10050000BAF1300FF0D00B998A453ED144F0800407
:1005100006E00F99681CA9F1010944F40074086011
:10052000B9696D1C761E0E98884782463028F0D037
:100530002BE00B998A4505D1200603D444F08004B2
:10054000761E18E0504602F023FC08B30DF11301AB
:10055000761E44F400748B4508D2AAF130000BF8E3
:10056000010B200607D5A9F1010003E0200602D403
:1005700009F101008146A00502D50F99681C0860A9
:10058000B9696D1C0E9888478246002ED1DC53E075
:10059000002E51DDBAF1650F02D0BAF1450F4BD1F3
:1005A000A00549D5B9696D1C24F44074761E0E98D7
:1005B00088478246002E0CDD2B2804D0BAF12D0F7F
:1005C00007D144F48074B9696D1C0E98884782463F
:1005D000761EE00501D52D2100E02B2108F8011B36
:1005E000CDF82C8021E00DF12901761E44F4007431
:1005F00088450CD2AAF1300010F0FF0088F8000006
:1006000002D10B99884509D908F1010806E0E005F7
:1006100001D5244801E042F20F708146B9696D1C92
:100620000E98884782460F980560002E04DD5046DC
:1006300002F0AEFB0028D6D1F9690E988847FF205A
:100640008BF8000088F800000020069007904B46C9
:100650006A4608A906A8FFF777FEA00502D46FF046
:1006600001002AE714F0240F0AD0E00714D1DDE9D5
:1006700006123868031D3B600068C0E900120BE0F9
:10068000DDE9060100F074FB0146E00704D138689B
:10069000021D3A600068016028460EE70000144021
:1006A0000000F03FF1D8FFFF2DE9FE4F804681EAC0
:1006B0000300C00F0C46009021F0004123F00045DC
:1006C000B8EB0200A94105D24046214690461C469F
:1006D0000B46024623F00040104347D0270DC7F3D6
:1006E0000A00C3F30A510290401A019040286BDAC5
:1006F000C3F3130040F4801B0098924620B10023FE
:10070000D2EB030A63EB0B0B01985946C0F1400290
:10071000504600F09EF906460D4650465946019A4D
:1007200000F0B6F910EB08006141002487EA11528D
:1007300084EAE7731A4340D0009A62B3019A012A0F
:100740004FEA075215DC001B61EB02014FF000423B
:1007500002EA0752CDE90042001C41F58011324601
:100760002B4600F024FA03B0BDE8F08F4046214646
:10077000F9E7001B61EB0201001C41F58013001832
:100780005B412018A2F5001747EB030140EAD57042
:10079000B6196D4111E06D084FEA360645EAC0759D
:1007A0004FEA0752001B61EB0201001C41F580116A
:1007B00049084FEA30000019514132462B4603B038
:1007C000BDE8F04F00F0E4B900980122400000239A
:1007D000D0EB020263EBE073009821464FEAE0742D
:1007E000B8EB000061EB0401E9E783F000435BE74D
:1007F00081F0004158E72DE9FE4F81EA030404F03F
:10080000004421F0004100944FF0000B23F000431E
:1008100050EA01045ED052EA03045BD0C3F30A54E9
:10082000C1F30A552C44A4F2F3340194A0FB025402
:10083000C1F3130141F48011C3F3130343F4801394
:1008400001FB024400FB034E840A970A44EA8154E8
:1008500047EA8357A4FB076802958D0A05FB0785C5
:100860004FEA932C04FB0C542705029D4FEA0658CF
:1008700047EA1637B5EB08056EEB070C870E920EAC
:1008800047EA811742EA8312A7FB0201B6EB0B018C
:1008900064EB00042B0D43EA0C335E1844EB1C5050
:1008A000DA465146E7FB0201C5F313044FEA0B3366
:1008B00043EA14534FEA0432019C43EA0603A4F1CD
:1008C0000C040294009CCDE900B400F070F903B070
:1008D000BDE8F08F00200146F9E770B5C1F30A5278
:1008E00001F000450024C1F3130140F2FF3341F44D
:1008F00080119A4201DA002070BD40F233439A42DF
:10090000A2F2334203DC524200F0B2F800E0904021
:100910002C43F1D0404270BD70B5C1F30A5201F0D2
:1009200000450024C1F3130140F2FF3341F480116C
:100930009A4202DA0020014670BD40F233439A42E7
:10094000A2F2334203DC524200F092F801E000F0E0
:1009500080F82C43F0D00023D0EB030063EB0101BF
:1009600070BD000030B5041E71F1000404DB4FF0CF
:100970000044404264EB0101141E73F1000405DBE6
:100980001C464FF00043524263EB04038B4208BF06
:10099000824230BD30B5041E71F1000404DB4FF01B
:1009A0000044404264EB0101141E73F1000405DBB6
:1009B0001C464FF00043524263EB0403994208BFC8
:1009C000904230BD30B50B46014600202022012464
:1009D00009E021FA02F59D4205D303FA02F5491B0D
:1009E00004FA02F52844151EA2F10102F1DC30BD23
:1009F0002DE9F05F0546002092469B468846064654
:100A0000814640241BE0284641464746224600F0E6
:100A10002FF853465A46C01A914110D31146184632
:100A2000224600F016F82D1A67EB01084F462246C1
:100A30000120002100F00DF817EB00094E41201EA7
:100A4000A4F10104DFDC484631462A464346BDE8AE
:100A5000F09F202A04DB203A00FA02F100207047C0
:100A60009140C2F1200320FA03F3194390407047EC
:100A7000202A04DB203A21FA02F00021704721FAF3
:100A800002F3D040C2F1200291400843194670475A
:100A9000202A06DBCB17203A41FA02F043EAE07342
:100AA00006E041FA02F3D040C2F12002914008432F
:100AB00019467047426842B1016811F8013B23B101
:100AC000521EC0E90012184670470121C160881EFD
:100AD000704742685AB1C368016843B983688B4262
:100AE00005D0491E521CC0E90012002070474FF08B
:100AF000FF3070470FB4002300B589B00CA90091F6
:100B00000B996FF00042CB601E4B06931E4B079370
:100B10000423CDE901321D4A089202466B460020AB
:100B2000FFF7A6FC09B05DF814FB70B586B0064669
:100B30004FF0FF300091CDE90101002015460C4631
:100B400004903246694604A8FFF7D4FF0246049891
:100B5000211825B108B1084600E020462860049815
:100B600000280DD0002A02DD0098884208D0081B1A
:100B70000094CDE901043246694604A8FFF7BAFFA4
:100B800006B070BDB50A0008D30A0008CD0D0008F4
:100B900010B5141E73F1000408DA401C41F1000185
:100BA00092185B411A4301D120F0010010BD2DE9DC
:100BB000F04D92469B4611B1B1FA81F202E0B0FAD3
:100BC00080F220329046FFF744FF04460F4640EA89
:100BD0000A0041EA0B0153465A46084313D0114616
:100BE00053EA010019D0C8F140025046FFF740FF18
:100BF00005460E46504659464246FFF72AFF08432F
:100C000005D0012004E020463946BDE8F08D0020E3
:100C1000054346EAE0762C4337430A986305E40A25
:100C2000A0EB08000022FD0A44EA47540A3002D52E
:100C300000200146E9E7010510196941DDE9084591
:100C400000196941BDE8F04DA2E72DE9F04D81EAB8
:100C5000030404F0004B21F0004514464FF0000A55
:100C600023F0004150EA050220D054EA01021DD0D1
:100C7000C5F30A570246C5F31303C1F31300C1F3CA
:100C80000A5640F4801543F48013A7EB0608101BA6
:100C9000D64608F2FD3873EB050002D308F10108CF
:100CA00001E092185B41B8F1000F03DA0020014621
:100CB000BDE8F08D00204FF48011064684460EE01A
:100CC000171B73EB050705D3121B63EB05030643E4
:100CD0004CEA010C49084FEA300092185B4150EA97
:100CE0000107EDD152EA030012D082EA040083EA40
:100CF0000501084305D0101BAB4106D20122002399
:100D000006E000224FF0004302E06FF001025310B2
:100D10001AEB06004CEB085110EB0A0041EB0B01FB
:100D2000BDE8F04DFFF734BF0EB540F233420292FA
:100D30000022CDE900221346FFF739FF03B000BDC2
:100D4000C1F30A52C1F3130140F2FF3341F48011A1
:100D50009A4202DA00200146704740F233439A4239
:100D6000A2F2334202DC5242FFF782BEFFF771BEAD
:100D700001F0004330B421F0004150EA010206D0F6
:100D80000A0DA2F56072C1F31301002A02DC30BC27
:100D900000207047440F44EAC104C100E01830BC91
:100DA00000EBC25000F017B8064C074D06E0E068B3
:100DB00040F0010394E8070098471034AC42F6D3A2
:100DC000FFF7BAF9C4440008E4440008C0B24FF485
:100DD000F05100F037B80029A8BF7047401C490007
:100DE00008BF20F00100704710B4B0FA80FC00FA90
:100DF0000CF050EA010404BF10BC704749B1CCF1BB
:100E0000200421FA04F411FA0CF118BF0121214346
:100E10000843A3EB0C01CB1D4FEA00614FEA102001
:100E200042BF002010BC704700EBC35010440029A3
:100E3000A4BF10BC7047401C490008BF20F001004F
:100E400010BC70477F2801D9002208E0064A02EB57
:100E50005002C007127800D1120902F00F020120DF
:100E600090400840704700008444000870B58C181A
:100E700010F8015B15F0070301D110F8013B2A11AE
:100E800006D110F8012B03E010F8016B01F8016B9B
:100E90005B1EF9D12B0705D40023521E0DD401F897
:100EA000013BFAE710F8013BCB1A921C03E013F860
:100EB000015B01F8015B521EF9D5A142D8D3002095
:100EC00070BD00BFFEE7000010B5002413E00C4821
:100ED000025D0C48015D0CA001F00EFE0948005DAA
:100EE0000749095D884203DB052C03D1012010BDB1
:100EF0000020FCE7641C062CE9DB0020F7E700007B
:100F0000580800206608002074696D655F6461748C
:100F1000613A20256409456E645F74696D653A2500
:100F2000640D0A00F8B505460E464FF47A720023A8
:100F300028463146FFF718F900906846FFF74CF94C
:100F40000446606900F26C70642190FBF1F201FBD1
:100F5000120009490870207C401C4870207B887072
:100F6000207A0830C87020790871207848710120F3
:100F700002490870F8BD0000580800205E080020F3
:100F8000F8B505460E464FF47A72002328463146DE
:100F9000FFF7EAF800906846FFF71EF9044660691B
:100FA00000F26C70642190FBF1F201FB12073946EC
:100FB0001EA001F0A1FD606900F26C70642190FB3D
:100FC000F1F201FB12001C490870084601781BA0D1
:100FD00001F092FD2069411C1AA001F08DFD207CDA
:100FE000401C154948701AA0E16801F085FD207B7E
:100FF00011498870A06800F1080118A001F07CFD7B
:10100000207A08300C49C87017A0616801F074FD9F
:1010100020790949087117A0216801F06DFD207839
:1010200005494871084600F0E9F8F8BD7965617234
:101030003A2025640A0000006608002025640D0A95
:10104000000000006D6F6E74683A2025640A00008D
:101050006461793A2025640A00000000686F7572A7
:101060003A2025640A0000006D696E3A2025640A62
:10107000000000007365633A2025640A0000000048
:1010800008B50121082001F0B3F8E020ADF8000018
:1010900003208DF8020010208DF8030069460248F5
:1010A00000F000FC08BD0000000C014038B504460B
:1010B000012C0DD14020ADF8000003208DF8020076
:1010C00010208DF803006946094800F0EBFB0DE0A5
:1010D00064B94020ADF8000003208DF802004820DC
:1010E0008DF803006946024800F0DCFB38BD0000C3
:1010F000000C01402DE9F0470646374680202D4977
:101100000860002517E007F0010018B140202949C8
:10111000086003E040202749091D08607F10202057
:1011200024490860022000F01DF920202149091DF2
:101130000860681CC5B2082DE5DB0020FFF7B6FF8C
:10114000002517E0641040211A48103800F0A0FC78
:1011500010B144F0800401E004F07F042020154920
:101160000860022000F0FEF820201249091D0860E6
:10117000681CC5B2082DE5DB80200E49091D0860FA
:101180000120FFF793FF2046E11704EB1171C1F333
:101190000718E11704EB11710911A4EB011101F01B
:1011A000FF0908EB880009EB400000F0FF0A5046F9
:1011B000BDE8F087100C014010B58D20FFF79AFFB5
:1011C0000D4908708920FFF795FF0B49487087206B
:1011D000FFF790FF084988708520FFF78BFF0649CD
:1011E000C8708320FFF786FF034908718120FFF74D
:1011F00081FF0149487110BD6608002030B50446E2
:1012000000218E2000F066F860790A2190FBF1F24F
:1012100001FB12010A2290FBF2F001EB0010C5B2B3
:101220002946802000F056F820790A2190FBF1F23F
:1012300001FB12010A2290FBF2F001EB0010C5B293
:101240002946822000F046F8E0780A2190FBF1F26E
:1012500001FB12010A2290FBF2F001EB0010C5B273
:101260002946842000F036F8A0780A2190FBF1F29C
:1012700001FB12010A2290FBF2F001EB0010C5B253
:101280002946862000F026F860780A2190FBF1F2CA
:1012900001FB12010A2290FBF2F001EB0010C5B233
:1012A0002946882000F016F820780A2190FBF1F2F8
:1012B00001FB12010A2290FBF2F001EB0010C5B213
:1012C00029468C2000F006F880218E2000F002F8DC
:1012D00030BD0000F0B504460D4626462F4680205E
:1012E0001F490860002317E006F0010018B14020F4
:1012F0001B49086003E040201949091D0860761069
:10130000202017490860022000F02CF82020144902
:10131000091D0860581CC3B2082BE5DB002317E049
:1013200007F0010018B140200D49086003E040209B
:101330000B49091D08607F10202009490860022020
:1013400000F010F820200649091D0860581CC3B29F
:10135000082BE5DB80200249091D0860F0BD000074
:10136000100C014007E06E2101E04A1ED1B20029B5
:10137000FBDC421ED0B20028F5DC704710B50446F5
:10138000FFF77EFE0220FFF7EDFF8020084908608E
:101390002020086000218E20FFF79CFF8120FFF7AE
:1013A000A9FE00F0800010B12046FFF727FF10BD16
:1013B000140C0140704700B5034603E04FF47A7007
:1013C00000F005F8181EA3F10103F7D100BD00EBF2
:1013D000C001C9004FF0E022516100219161052157
:1013E000116100BF4FF0E021096901F4803100294B
:1013F000F8D004214FF0E0221161704710B51021A0
:10140000182000F023FB1021192000F01FFB002002
:10141000074908600749C1F8A4010120FFF7CBFF85
:101420000120034908600349C1F8A40110BD000070
:10143000A08121420080214270B5FFF7DFFF032425
:101440004FF4FA70FFF7B7FF0EE002F06DFA0128D3
:1014500003D14FA001F050FB03E052A001F04CFB80
:1014600007E00A20FFF7A7FF201EA4F10101CCB27C
:10147000EBD100BF02F0BEF9012803D14FA001F06B
:101480003BFB02E052A001F037FB052410E056A11F
:1014900058A002F08BF9012803D15AA001F02CFBCF
:1014A00003E05DA001F028FB07E00A20FFF783FFBF
:1014B000201EA4F10101CCB2E9D100BF0524022015
:1014C000FFF779FF012500BF062C54D2DFE804F0B6
:1014D00053031323334356A002F00EFA012804D11C
:1014E00053A157A001F008FB04E051A159A001F05D
:1014F00003FB00253FE05EA002F0FEF9012804D1C5
:101500005BA14FA001F0F8FA04E059A15CA001F042
:10151000F3FA00252FE060A002F0EEF9012804D1D3
:101520005DA147A001F0E8FA04E05BA149A001F049
:10153000E3FA00251FE05BA002F0DEF9012804D1E8
:1015400058A13FA001F0D8FA04E056A141A001F053
:10155000D3FA00250FE057A002F0CEF9012804D1FC
:1015600054A137A001F0C8FA04E052A139A001F05B
:10157000C3FA002500BF00BF3220FFF71CFF201E6A
:10158000A4F10101CCB201D0002D9DD170BD0000AD
:1015900061742074657374204572726F72210D0A34
:1015A00000000000617420746573742053756363D8
:1015B00065737366756C210D0A0000006174204329
:1015C000574D4F4445204572726F72210D0A00003D
:1015D00061742043574D4F444520537563636573D1
:1015E0007366756C210D0A00676A35716D647865E4
:1015F000000000004368696E614E65742D506152B1
:101600006600000061742043574A415020457272C1
:101610006F72210D0A00000061742043574A415047
:10162000205375636365737366756C210D0A000042
:101630007777772E736F68752E636F6D00000000EB
:1016400061742050494E47204572726F72212025E7
:10165000730D0A0061742050494E4720537563632F
:1016600065737366756C212025730D0A00000000F8
:101670007777772E73696E612E636F6D2E636E00C0
:1016800061742050494E47205375636365737366D8
:10169000756C2025730D0A007777772E71712E6394
:1016A0006F6D00007777772E616C6979756E2E63A8
:1016B0006F6D00007777772E62616964752E636FB6
:1016C0006D00000010B54CF250344FF4004000F0B3
:1016D00035F8012819D100200C49086000BF4FF4EB
:1016E00000410B4800F0D4F90028F8D009A001F01F
:1016F00003FA012005490860C00300F019F800BF93
:10170000201EA4F101018CB2FAD110BDA4812142A6
:101710000008014045535038323636205265736513
:1017200074205375636365737366756C210D0A00CD
:101730000149086070470000140401400146002080
:101740000022074B1B6803EA0102054B14331B6898
:101750000B4013B10AB1012000E0002070470000E7
:1017600000040140002123498279002A3AD00A4628
:10177000126803689A430B461A600A1D12680368D0
:101780009A430B1D1A60027911440A6803681A43D0
:101790000A60184A0832126803689A43154B0833E6
:1017A0001A601A1D126803689A43124B0C331A60B0
:1017B0004279102A0ED11A1F126803681A430D4B82
:1017C00008331A601A1D126803681A43094B0C3358
:1017D0001A600DE00749427911440A6803681A4308
:1017E0000A6005E0027911440A6803689A430A60B6
:1017F00070470000000401400EB50121052000F0F3
:10180000F7FC0121164800F0D9F848210F2000F01C
:101810001DF90F21002000F025F84FF40040019041
:1018200000208DF8080008208DF8090001208DF8AF
:101830000A0001A8FFF796FF4FF4A06000F09AFCA1
:1018400028208DF8000001208DF803008DF801009C
:1018500002208DF80200684600F054FC0EBD000026
:101860000002300030B500228B071C0F0F2303FA53
:1018700004F20B4B8C1053F824309343084C8D101A
:1018800044F8253023468C1053F824308C07240F5D
:1018900000FA04F42343024C8D1044F8253030BD87
:1018A000080001402DE9F0410246002500260020F5
:1018B00000230024002791F803C00CF00F0591F8D5
:1018C00003C00CF0100CBCF1000F03D091F802C063
:1018D0004CEA050591F800C0BCF1000F31D0146846
:1018E00000202BE04FF0010C0CFA00F3B1F800C01F
:1018F0000CEA03069E4220D183004FF00F0C0CFA35
:1019000003F7BC4305FA03FC4CEA040491F803C056
:10191000BCF1280F06D14FF0010C0CFA00FCC2F804
:1019200014C00AE091F803C0BCF1480F05D14FF094
:10193000010C0CFA00FCC2F810C0401C0828D1D3DE
:101940001460B1F800C0BCF1FF0F34DD5468002012
:101950002EE000F1080C4FF0010808FA0CF3B1F882
:1019600000C00CEA03069E4221D183004FF00F0C09
:101970000CFA03F7BC4305FA03FC4CEA040491F8A3
:1019800003C0BCF1280F05D100F1080C08FA0CF8CF
:10199000C2F8148091F803C0BCF1480F07D100F1E0
:1019A000080C4FF0010808FA0CF8C2F81080401C2F
:1019B0000828CED35460BDE8F0810000F0B50A4697
:1019C000002300240021002500F00046B6F1004F5E
:1019D00002D11D4EF16901E01B4E7168C0F3034551
:1019E00083B200F44016B6F5401F08D121F07061B3
:1019F000154E766826F07066134F7E6012E000F494
:101A00008016B6F5801F06D1032606FA05F4A14319
:101A100041F0706106E0460D360103FA06F6B14367
:101A200041F0706122B1460D360103FA06F63143EA
:101A300000F00046B6F1004F02D1034EF16101E023
:101A4000014E7160F0BD00000000014038B5044651
:101A50000D462211042101FA02F0012100F0C8FB19
:101A600003208DF8020004F00F010120884080B2AD
:101A7000ADF800008DF803502111044A131503FB43
:101A800001206946FFF70EFF38BD00000008014045
:101A90000246002093680B400BB1012000E00020BB
:101AA000704700BFFEE700004CF6CC4001490860DB
:101AB000704700000030004010B545F2555000F06E
:101AC00021F8052000F012F840F69B7000F014F8A1
:101AD00000F004F8FFF7E8FF10BD00004AF6AA2066
:101AE000014908607047000000300040014948602B
:101AF00070470000003000400149886070470000D6
:101B0000003000400149086070470000003000408C
:101B10002DE9F04FADF6141D8548007858B1854980
:101B200045A8FEF7F8FB45A983A000F0E5FF0020DB
:101B30007F49087003E00DF6141DBDE8F08F7B218E
:101B400045A8FEF7C9FB04461CB97DA000F0D4FFF0
:101B5000F1E7204601F0C0FC214687A000F0CCFF51
:101B6000204601F079FD8246BAF1000F0AD101F05A
:101B700055FD0746394682A000F0BEFF504601F0F1
:101B80001DFDD8E784A000F0B7FF86A1504601F004
:101B90004DFD054685A1504601F048FD834685A1CF
:101BA000504601F043FD449084A1504601F03EFDB3
:101BB000439084A1504601F039FD0646002D7DD0AA
:101BC000BBF1000FFBD044980028F8D043980028C0
:101BD000F5D0002EF3D07DA0696900F08DFFDBE920
:101BE000060102460B46CDE900017BA000F084FF10
:101BF000449801697CA000F07FFF439801697DA0B3
:101C000000F07AFF7EA103A8326900F085FF287DED
:101C10007C490870084600780A280BD00B2802D0AF
:101C20005A2817D10DE00020774908607749C1F89C
:101C3000BC0110E00120744908607449C1F8BC017E
:101C400009E073A000F058FF4FF47A70FFF7B3FB80
:101C500000F09AFA00BF00BF504601F0AFFC03A8A5
:101C600001F0FAFC0290029850B901F0D7FC01464D
:101C700001906DA000F040FF029801F09FFC5AE730
:101C800071A000F039FF75A1029801F0CFFC074662
:101C900074A1029801F0CAFC804673A1029801F079
:101CA000C5FC8146FFB1B8F1000F1CD0B9F1000F9F
:101CB00019D0D7E9060102460B4600E035E0CDE930
:101CC00000016BA000F018FFD8E9060102460B46A0
:101CD000CDE900016AA000F00FFF6CA0D9F8101048
:101CE00000F00AFF02E06CA000F006FFD7E9062131
:101CF0001046FEF711FE6C4A03C2D8E906211046D1
:101D0000FEF70AFE694A03C267480CC868A000F0E3
:101D1000F3FE654903C9FFF733F9644903C9FFF7C7
:101D200001F9029801F04AFC00BF00BF03E7000080
:101D3000360000203C23002025730D0A000000001F
:101D4000556E61626C6520746F2066696E642074E4
:101D50006865207374617274696E6720706F73694F
:101D600074696F6E206F6620746865204A534F4E09
:101D700020646174610D0A000D0A25730D0A0000CC
:101D80004A534F4E207061727365206572726F7294
:101D90003A2025730A0000004A736F6E204F4B0DE6
:101DA0000A000000547970650000000054696D65F8
:101DB000000000004D7367496400000053656E64C5
:101DC000496400005061796C6F61640054797065FA
:101DD0003A2025640A00000054696D653A20252EDA
:101DE0006C6C660A000000004D736749643A202558
:101DF000730A000053656E6449643A2025730A0033
:101E00002573000070080020B48121420080214227
:101E100053797374656D2077696C6C207265736596
:101E2000742E2E2E0D0A00005061796C6F616420B3
:101E30004A534F4E207061727365206572726F72E3
:101E40003A2025730A0000005061796C6F616420AC
:101E50004A534F4E204F4B210D0A000053746172BC
:101E600074000000456E640047657474657200007C
:101E700053746172743A20252E6C6C660A0000005F
:101E8000456E643A252E6C6C660A000047657474D2
:101E900065723A25730A000053746172742065728A
:101EA000726F72210D0A00004808002050080020BF
:101EB00053746172745F74696D655F7374616D7082
:101EC0003A20256C6C640D0A0000000010B586B045
:101ED00003240FE039A001F0F3FC012803D145A051
:101EE00000F00AFE03E049A000F006FE07E0012032
:101EF000FFF761FA201EA4F10101CCB2EAD100BFC4
:101F0000032405240FE048A001F0A4FC012803D11C
:101F10004AA000F0F1FD03E04EA000F0EDFD07E067
:101F20000120FFF748FA201EA4F10101CCB2EAD14A
:101F300000BF05241EE040F25B714DA001F06AFC79
:101F4000012809D14AA24EA1684600F0E5FD694684
:101F50004CA000F0D1FD09E045A249A1684600F07F
:101F6000DBFD69464CA000F0C7FD08E01420FFF738
:101F700022FA00BF201EA4F10101CCB2DBD100BFC8
:101F80000220FFF718FA03240CE04AA001F07CFCC1
:101F9000012803D14EA000F0AFFD03E051A000F0F6
:101FA000ABFD04E0201EA4F10101CCB2EDD100BFD5
:101FB0000220FFF700FA06B010BD0000302C312CD3
:101FC00022323232323232375F5531513442325A54
:101FD00035222C22657370383236365F6C69222CBC
:101FE0002231323334353637222C302C302C222219
:101FF000000000004D51545455534552434647206C
:102000004572726F72210D0A000000004D51545448
:102010005553455243464720537563636573736652
:10202000756C210D0A000000302C36302C312C222A
:10203000222C22222C302C30000000004D51545410
:10204000434F4E4E434647204572726F72210D0A30
:10205000000000004D515454434F4E4E434647201C
:102060005375636365737366756C210D0A00000018
:102070003139322E3136382E312E34320000000004
:10208000257300004D515454434F4E4E20457272FB
:102090006F722125730D0A004D515454434F4E4E1B
:1020A000205375636365737366756C2125730D0A20
:1020B00000000000323232323232372F32323232C6
:1020C0003232375F5531513442325A350000000008
:1020D0004D515454535542204572726F72210D0A6E
:1020E000000000004D515454535542205375636312
:1020F00065737366756C210D0A00000000BFFEE772
:102100007047000070B5002100230F22C47804B38B
:10211000154C246804F4E064C4F5E064210AC1F1BC
:102120000403CA40447804FA03F18478144021433C
:1021300009010E4C0678A155047804F01F0501240E
:10214000AC4005786D11AD0005F1E025C5F8004102
:1021500009E0047804F01F050124AC40044D067822
:10216000761145F8264070BD0CED00E000E400E07B
:1021700080E100E002490143024A1160704700001B
:102180000000FA050CED00E00648006800F4E0608D
:1021900005490843001D03490860BFF34F8F00BF86
:1021A000FEE700000CED00E00000FA0570470000BB
:1021B00029B1064AD2690243044BDA6104E0034ABA
:1021C000D2698243014BDA6170470000001002407F
:1021D00029B1064A12690243044B1A6104E0034A1A
:1021E00012698243014B1A617047000000100240DF
:1021F00029B1064A92690243044B9A6104E0034AFA
:1022000092698243014B9A617047000000100240BE
:1022100029B1064AD2680243044BDA6004E0034A5B
:10222000D2688243014BDA60704700000010024020
:1022300030B500210022002400232D4D6D6805F0EB
:102240000C0121B1042905D0082923D105E0294D2D
:10225000056022E0274D05601FE0254D6D6805F4FF
:102260007012234D6D6805F48034022505EB92420F
:102270001CB9214D554305600BE01D4D6D6805F4FB
:1022800000351DB11C4D5543056002E0194D554305
:10229000056002E0174D056000BF00BF144D6D687A
:1022A00005F0F0010909154D6B5C0568DD404560DE
:1022B0000F4D6D6805F4E061090A104D6B5C4568CF
:1022C000DD4085600A4D6D6805F46051C90A0B4D0B
:1022D0006B5C4568DD40C560054D6D6805F44041A7
:1022E000890B074D6B5CC568B5FBF3F5056130BD27
:1022F0000010024000127A0000093D00000000209A
:1023000010000020704710B500F002F810BD00006A
:102310000CB50020019000903348006840F48030F4
:102320003149086000BF3048006800F40030009078
:102330000198401C0190009818B90198B0F5A06F61
:10234000F1D12948006800F4003010B1012000905C
:1023500001E0002000900098012843D12348006844
:1023600040F01000214908600846006820F007008E
:1023700008600846006840F0020008601A4840689B
:10238000194948600846406848600846406840F47B
:10239000806048600846406820F47C104860084629
:1023A000406840F4E81048600846006840F08070DB
:1023B000086000BF0C48006800F000700028F9D0E9
:1023C0000948406820F00300074948600846406813
:1023D00040F00200486000BF0348406800F00C0075
:1023E0000828F9D10CBD0000001002400020024076
:1023F0007047000010B51348006840F00100114913
:10240000086008464068104908400E494860084680
:1024100000680E4908400B4908600846006820F42F
:10242000802008600846406820F4FE0048604FF4B1
:102430001F008860FFF767FF4FF0006004490860E5
:1024400010BD0000001002400000FFF8FFFFF6FE84
:1024500008ED00E010B540F225511D4800F0D5F917
:1024600010B31B4800F08CFAC4B21A48008800F47C
:102470000040C8B91748008800F4804060B10A2CB9
:1024800003D000201349088020E01248008840F45F
:1024900000401049088019E00D2C06D10D48008835
:1024A00040F480400B49088010E00A480088C0F3DF
:1024B0000D0009490C5407480088401C0549088054
:1024C00008460088C72801DD0020088010BD0000F4
:1024D000003801402C0000207C20002010B503486B
:1024E000006810B101480068804710BD6C080020EA
:1024F00010B5002440F225511D4800F086F900284F
:1025000034D01C480088802802D300201949088054
:10251000174800F035FAC4B2164801880088401CFC
:10252000144A10801448445414480078012818D1E3
:1025300010460088801E1049085C4F2811D11046B3
:102540000088401E085C4B280BD10D480D490860DF
:1025500040F22551064800F0E1F8002007490870D4
:1025600010BD40F22551024800F0D8F800BFF7E74F
:10257000004400403C0000203C2B0020400800208C
:10258000892500086C08002010B540F225510D483F
:1025900000F03BF9A0B10B4800F0F2F9C4B20A49CF
:1025A0000888411C084A118008490C5410460088CC
:1025B0000749088040F22551024800F0AFF800BFFB
:1025C00010BD000000440040380000203C230020E3
:1025D0003200002010B540F225511D4800F015F9D9
:1025E000002833D01A4800F0CBF9C4B2194800884B
:1025F000B0F5006F02D300201649088015490888FD
:10260000411C144A118014490C547D2C10D11348DC
:10261000007801280CD11249087000200F49087079
:102620001146088040F22551094800F077F810BDA6
:102630007D2C05D10948007810B9012007490870A0
:1026400040F22551024800F069F800BF00BFEEE7F4
:1026500000440040380000203C23002035000020CA
:102660003600002010B504460BE000BF802107486B
:1026700000F0BEF80028F9D014F8011B034800F060
:1026800084F920780028F0D110BD000000440040FB
:1026900010B540F225511D4800F0B7F810B31B48A3
:1026A00000F06EF9C4B21A48008800F40040C8B9BE
:1026B0001748008800F4804060B10A2C03D0002045
:1026C0001349088020E01248008840F40040104977
:1026D000088019E00D2C06D10D48008840F4804098
:1026E0000B49088010E00B480088C0F30D000A4930
:1026F0000C5407480088401C05490880084600889B
:10270000C72801DD0020088010BD000000480040FF
:10271000300000202E0000200C22002010B50022E6
:10272000002340F66A14A14200D100BF0A1201241E
:102730009440A3B2DC43048010BD21B1828942F4ED
:102740000052828104E082894DF6FF731A40828133
:102750007047000010B504462048844209D1012189
:102760008803FFF755FD00214FF48040FFF750FD2F
:1027700032E01B48844209D101214804FFF728FDBB
:1027800000214FF40030FFF723FD25E01548844277
:1027900009D101218804FFF71BFD00214FF480209F
:1027A000FFF716FD18E01048844209D10121C80442
:1027B000FFF70EFD00214FF40020FFF709FD0BE0AD
:1027C0000A48844208D101210805FFF701FD0021D4
:1027D0004FF48010FFF7FCFC10BD000000380140F2
:1027E0000044004000480040004C004000500040C1
:1027F00002460020B1F5007F00D100BF13880B40D6
:102800000BB1012000E00020704770B502460024A3
:1028100000230025002040F66A16B14200D100BF17
:10282000C1F3421501F01F03012606FA03F3012D3F
:1028300002D19689334006E0022D02D1168A334038
:1028400001E0968A33400C12012606FA04F4168839
:10285000344013B10CB1012000E0002070BDF0B590
:102860000346002400260025002040F66A17B942DE
:1028700000D100BF1846C1F3421401F01F06012722
:1028800007FA06F5012C01D10C3004E0022C01D12D
:10289000103000E014301AB107682F43076002E0DF
:1028A0000768AF430760F0BD2DE9F04786B00546E5
:1028B0000E460024A24600BFA1460027B08900B101
:1028C00000BF2F462C8A4CF6FF700440F08804436A
:1028D0002C82AC894EF6F3100440B088318908434D
:1028E000718908430443AC81AC8A4FF6FF40044031
:1028F000B0890443AC8201A8FFF79AFC1F488742C5
:1029000002D1DDF810A001E0DDF80CA0A88900F4E8
:10291000004040B10AEBCA0000EB0A1031684900E0
:10292000B0FBF1F807E00AEBCA0000EB0A103168CF
:102930008900B0FBF1F86420B8FBF0F00401200935
:10294000642101FB1089A88900F4004040B13220C5
:1029500000EBC900B0FBF1F000F00700044308E011
:10296000322000EB09106421B0FBF1F000F00F0001
:1029700004432C8106B0BDE8F08700000038014018
:1029800001468888C0F308007047C1F308028280BE
:10299000704700BFFEE7000010B586B00446012175
:1029A00044F20400FFF724FC2448FFF7D3FE18206C
:1029B0008DF817004FF40070ADF8140003208DF867
:1029C000160005A91E48FEF76DFF04208DF81700BC
:1029D0000002ADF8140003208DF8160005A9184870
:1029E000FEF760FF25208DF8100001208DF8130000
:1029F00003208DF811008DF8120004A8FFF782FB68
:102A000000940020ADF80C000C20ADF80A00002066
:102A1000ADF80800ADF80600ADF8040069460748B7
:102A2000FFF742FF012240F225510448FFF717FF4C
:102A300001210248FFF781FE06B010BD00380140B9
:102A40000008014010B586B0044601210420FFF7BC
:102A5000CFFB01214804FFF7ABFB2548FFF77AFEC7
:102A600018208DF817000420ADF8140003208DF80D
:102A7000160005A91F48FEF715FF04208DF8170062
:102A80000820ADF8140005A91A48FEF70BFF0194C1
:102A90000020ADF810000C20ADF80E000020ADF8BD
:102AA0000C00ADF80A00ADF8080001A91048FFF7C6
:102AB000FBFE01210E48FFF740FE012240F22551A6
:102AC0000B48FFF7CCFE4FF4A060FFF753FB262026
:102AD0008DF8000001208DF8030003208DF801001F
:102AE0008DF802006846FFF70DFB06B010BD000030
:102AF00000440040000801400FB4054B10B503A985
:102B0000044A029800F04CF910BC5DF814FB000078
:102B1000D1390008280000200FB4084B10B504A9D3
:102B200002AA039800F03CF9044602A9002000F034
:102B3000CEFC204610BC5DF814FB0000CF3400082A
:102B400030B528B1144C031F002021680A4605E067
:102B5000084630BD9A4203D810465268002AF9D17F
:102B6000002800D041680BD00468A3EB0005A54203
:102B700004D11B681C440346046002E0436000E08B
:102B800023603AB11C68D51AA54203D115682C44BC
:102B90001C6052685A6030BD742000202DE9F04757
:102BA00082460F4C10480D4E0E4F001B4FF0000890
:102BB00020F007054FF0010900221146504600F0B1
:102BC00041FF002802D1306810B10020BDE8F08735
:102BD0003C60C4E90058C6F80090EDE7782000207A
:102BE0002C2C002074200020282E002002E008C891
:102BF000121F08C1002AFAD170477047002001E077
:102C000001C1121F002AFBD1704700002DE9FF5FB0
:102C100082B00021DDE90430020DDDF840B003434D
:102C200018D044F61050A2F2FF3242431514119806
:102C300001281FD0A5EB0B00401C5FEA000A4FF0F3
:102C400000064E4FDFF83891B046504615D5CAF110
:102C5000000413E0119801244AA3012801D16FEA6E
:102C60000B010298119AC0E90031C0E9024206B096
:102C7000BDE8F09FCBF10000DFE704460021404AA9
:102C8000491842EB0450CDE9001012E0E00707D0EC
:102C900032463B4640464946FDF7ADFD80468946F3
:102CA00032463B4610461946FDF7A5FD06460F463F
:102CB0006410002CEAD1DDE90401DDE90023BAF15A
:102CC000000F06DAFDF797FD42464B46FDF793FDF0
:102CD00005E0FDF7BAFF42464B46FDF7B6FF044656
:102CE0000E460022284BFDF755FE03D84FF0FF306B
:102CF000014607E00022254B20463146FDF7D4FC73
:102D0000FEF71EF8102409E0002C0ADB0A2200233B
:102D1000FDF76EFE039B30321A55641E50EA010225
:102D2000F2D1641C039AC4F111031444119A012ACC
:102D300003D0012208430DD10AE0084304D000204B
:102D40004FF0110B119072E7A3EB0B056D1E0DE018
:102D50005B4504DD4FF0000205F1010504E003DAF4
:102D60004FF00002A5F10105002AECD0029811995C
:102D7000C0E90231C0E9004579E7000000001440D5
:102D80000000F03F300000000000F0430000E03F92
:102D900030380A2801D20120704700207047000017
:102DA0002DE9FF4F95B09B468946064600250FE268
:102DB000252877D100242746F84A0121059400E010
:102DC000044316F8013F203B01FA03F01042F7D10B
:102DD00030782A2811D06FF02F033078A0F130021C
:102DE000092A16D8059A44F0020402EB820203EB8A
:102DF00042021044761C0590EFE759F8042B059227
:102E0000002A03DA504244F40054059044F00204CE
:102E1000761C30782E2816D116F8010F44F00404E1
:102E20002A280DD06FF02F023078A0F13003092B43
:102E300009D807EB870302EB4303C718761CF3E7B7
:102E400059F8047B761C30786C280FD006DC4C28AF
:102E500017D068280DD06A2814D104E0742810D047
:102E60007A280FD10DE044F400140AE044F48014F1
:102E700001E044F440147278824202D104F58014D7
:102E8000761C761C307866280BD013DC582877D057
:102E900009DC002875D04528F6D04628F4D047280C
:102EA0001AD19DE118E0632835D0642879D06528CF
:102EB00012D195E1702873D008DC6728F1D0692819
:102EC0006FD06E280DD06F2806D1B5E073282CD0B6
:102ED000752875D0782874D05A46179990476D1C7C
:102EE00075E1C4F30250022809D003280DD0D9F8A7
:102EF000001004280DD00D6009F1040967E1D9F82C
:102F00000010EA17C1E90052F6E7D9F800100D8069
:102F1000F2E70D70F0E719F8041B8DF8001000209F
:102F20008DF80100EA46012003E059F804AB4FF0A8
:102F3000FF3061074FF0000102D40DE008F10101FC
:102F40008846B9420FDA8045F8DB1AF808100029E4
:102F5000F4D108E008F1010188468142FADB1AF851
:102F600008100029F6D105985B46A0EB080721461A
:102F70003846179A00F094FA284400EB080507E059
:102F80004DE029E10DE01AF8010B5A4617999047D8
:102F9000B8F10108F7D25B4621463846179A13E18B
:102FA00042E00A220092C4F302524FF0000A022AC1
:102FB00008D059F804CB032A4FEAEC710AD00DE08F
:102FC00029E02AE009F1070121F00702F2E802C135
:102FD000914609E00FFA8CFC4FEAEC71042A03D108
:102FE0004FFA8CFC4FEAEC71002907DA0A460021FF
:102FF000DCF1000C61EB02012D2202E0220504D578
:103000002B228DF80420012203E0E20701D02022C8
:10301000F7E7904659E00A2102E010220DE0102166
:103020004FF0000A00910BE010224FF0000A44F02C
:1030300004040827009203E008224FF0000A0092DF
:10304000C4F30252022A05D059F804CB0021032A06
:1030500008D009E009F1070121F00702F2E802C1F6
:10306000914605E01FFA8CFC042A01D10CF0FF0CFC
:103070004FF00008220728D5702806D0009B83F067
:10308000100353EA0A0305D00EE040228DF8042015
:10309000012208E05CEA010206D030228DF804200B
:1030A0008DF8050002229046009B83F0080353EA46
:1030B0000A030AD15CEA010201D1620705D5302278
:1030C0008DF804204FF001087F1E582804D034A04A
:1030D00003900EA802900DE036A0F9E75346604633
:1030E000009AFDF785FC84460398825C0298401E96
:1030F000029002705CEA0100F0D1029806A9081A59
:1031000000F1200A600702D524F4803400E0012792
:10311000574502DDA7EB0A0000E0002000EB0A01A2
:10312000009005984144401A0590E00306D45B46A0
:103130002146179A059800F0B3F90544002706E0E8
:1031400001A85A46C05D179990476D1C7F1C4745E2
:10315000F6DBE0030CD55B462146179A059800F094
:103160009FF9054404E030205A46179990476D1C9A
:103170000099481E00900029F5DC08E002980299A9
:103180005A460078491C0291179990476D1CBAF174
:103190000001AAF1010AF1DC65E100000928010043
:1031A00030313233343536373839616263646566BD
:1031B000000000003031323334353637383941427F
:1031C000434445460000000000F058F90544761CD1
:1031D000307800287FF4ECAD19B02846BDE8F08FB8
:1031E000620700D4062709F1070222F0070CFCE869
:1031F0000223E14603F000485FEA080C02D00FF218
:10320000702C0DE05FEA045C02D50FF2682C07E039
:103210005FEAC47C02D00FF2602C01E0AFF2700CC8
:103220004FF0FF3823F00043CDF850C065280CD094
:1032300006DC452809D046281DD047283DD13DE071
:10324000662818D067287ED138E00021112F01DBD5
:10325000112000E0781CCDE9000106A90EA8FFF7B7
:10326000D5FCDDE90F010E9A03910021009207F1D0
:10327000010A04914DE04FF000400097CDE90110A4
:1032800006A90EA8FFF7C2FCDDE90F0203920E9B10
:1032900011990022DDF80CA00093049211B9791C59
:1032A00000EB010AB7EB0A0004D4C0F1FF3007F1CC
:1032B000010A0490AAEB0700019044E0012F00DA14
:1032C00001270021112F01DD112000E03846CDE952
:1032D000000106A90EA8FFF799FCDDE90F010E9A7F
:1032E0000391002104910092BA4621070CD403995E
:1032F000514500DA8A46BAF1010F05DD009AAAF1BC
:103300000101515C302908D0B84202DA10F1040FF3
:1033100006DA0121CDE9011015E0AAF10101E9E782
:10332000002805DC049901440491AAEB000102E0A5
:10333000411C514500DD8A460499401A401C019009
:103340004FF000400290200704D40198504501DB63
:10335000CDF8048000208DF84F0002980DF14F0742
:10336000B0F1004F25D02B200E9002984FF00208AC
:1033700000280CDA404202902D200E9007E00A212E
:103380000298FDF71FFB3031029007F8011DB8F1DC
:103390000001A8F10108F2DC02980028EFD1791EA3
:1033A0000E980870307800F0200040F0450007F8D3
:1033B000020D12A8C01B00F107081498007800B194
:1033C000012000EB0A01019801EBE07105984144EE
:1033D000401A401E0590E00306D45B462146179A2A
:1033E000059800F05DF805441498007818B15A4625
:1033F000179990476D1CE00324D55B462146179A28
:10340000059800F04DF805441CE00498002807DBFF
:10341000DDE90301884203DD0098405C179901E073
:10342000179930205A469047049805F10105401C31
:1034300004900198401E019004D12E205A461799FD
:1034400090476D1CBAF10001AAF1010ADDDC05E02C
:1034500017F8010B5A46179990476D1CB8F10001F7
:10346000A8F10108F4DC5B462146179A0598ABE603
:103470002D0000002B000000200000002DE9F0418D
:10348000044600251E461746880404D405E0394644
:103490002020B0476D1C641EF9D52846BDE8F08198
:1034A0002DE9F041044600251E469046C80301D58B
:1034B000302700E02027880404D505E0414638463F
:1034C000B0476D1C641EF9D52846BDE8F0810A6836
:1034D000531C0B60107070472DE9F041ADF5806D05
:1034E00004464FF480616846FCF7D9FE2046FCF79D
:1034F000FDFE804600250026002700202FE0215CED
:103500007B2909D1761C022E19D1012722232946B5
:103510006D1C0DF8013012E0215C7D290FD1761E63
:10352000022E0CDA5FB10027235C29466D1C0DF8D2
:103530000130222329466D1C0DF801300EE0215C7C
:10354000222905D127B15C2329466D1C0DF80130D5
:10355000235C29466D1C0DF8013000BF401C40451E
:10356000CDDB69462046FCF7D6FE0DF5806DBDE843
:10357000F081014609B1086808B90020704719B107
:10358000D1E90120904201D30846F7E702E08868BC
:10359000401C886041B1D1E90120904204D28A6880
:1035A0000868805C2028F2DDD1E90120904202D138
:1035B0008868401E88600846E0E7000070B5044651
:1035C000002526E02568A08900F4807020B9A06855
:1035D00010B1A068FFF7F2FFA08900F4807038B93D
:1035E000206928B10C4A2069516888470020206171
:1035F000A08900F4007038B9606A28B1064A606A90
:103600005168884700206062034841682046884727
:103610002C46002CD6D170BD1C000020024800684A
:1036200001494968084470471400002070B50446F9
:103630000D4600222946204600F0DAF970BD70B52B
:10364000044628202168884705461DB128212846C0
:10365000FCF725FE284670BD10B504460022114631
:10366000204600F06BF810BD2DE9F0478AB0044603
:103670000E46154698461C2103A8FCF710FE0027AD
:1036800000202C490860486004B106B932E0039478
:10369000049600200590284A07CA07AB07C32648AE
:1036A000FFF7CDFF074607B924E003A800F022FE8C
:1036B0008246FFF75EFF81464946384600F024FD0A
:1036C00000B917E0B8F1000F0BD003A8FFF751FFC6
:1036D000DDE90410884203D205990398405C00B1EB
:1036E00008E01DB1059903980844286038460AB0DF
:1036F000BDE8F08717B13846FFF760FFC4B1019409
:1037000000200290DDE90410884202D20598029060
:1037100004E0049810B10498401E02901DB1DDE948
:103720000101084428600348DDE9011206C000BF1A
:103730000020DCE7140000201C0000202DE9F041EF
:1037400004460D46164614B90020BDE8F081204617
:10375000FCF7CCFD471C33462A4639462046FFF786
:1037600083FFF2E770B504460D4604B10DB90120A0
:1037700070BDAC4201D10020FAE705E0207808B91D
:103780000020F5E7641C6D1C2078FCF71EFD064642
:103790002878FCF71AFD8642F0D02078FCF715FD5A
:1037A00006462878FCF711FD301AE1E730B591B0F4
:1037B00004460D462B46224604A101A8FFF7ACF9AA
:1037C00008A101A800F0CAF811B030BD41542B4344
:1037D000574A41503D222573222C222573220D0A7F
:1037E000000000005749464920434F4E4E45435480
:1037F0004544000010B502A102A000F0AFF810BDD2
:103800004F4B000041542B43574D4F44453D310D24
:103810000A00000030B5A1B004460D462B462246F2
:1038200004A101A8FFF778F909A101A800F096F812
:1038300021B030BD41542B4D515454434F4E4E3D59
:10384000302C222573222C25642C300D0A00000018
:103850004F4B000010B5A0B00446224604A16846B4
:10386000FFF75AF907A1684600F078F820B010BDBC
:1038700041542B4D515454434F4E4E4346473D25E2
:10388000730D0A004F4B000010B5A0B0044622464D
:1038900004A16846FFF740F908A1684600F05EF809
:1038A00020B010BD41542B4D5154545355423D301E
:1038B0002C222573222C300D0A0000004F4B0000F3
:1038C00010B5ADF5027D0446224605A101A8FFF71B
:1038D00023F908A101A800F041F80DF5027D10BD03
:1038E00041542B4D515454555345524346473D2561
:1038F000730D0A004F4B000010B588B004462246F5
:1039000004A16846FFF708F906A1684600F026F80A
:1039100008B010BD41542B50494E473D25730D0A48
:10392000000000004F4B000010B502A102A000F003
:1039300015F810BD4F4B000041540D0A0000000067
:1039400010B580210348FCF7AAFC0020024908803A
:1039500010BD00003C2B00203C00002070B5044648
:103960000D46FA26FFF7ECFF2046FEF77BFE0CE043
:1039700000F014F830B929460748FCF79BFC08B161
:10398000002070BD0A20FDF716FD301EA6F10101D2
:10399000CEB2EDD10120F4E73C2B00200A4800888C
:1039A00008B90120704708480088084909888842FA
:1039B00003D1002004490880F4E703480088034944
:1039C00008800120EEE700003C0000203E000020BF
:1039D00000BF054A128802F04002002AF9D0C2B2A4
:1039E000014B1B1D1A807047003801402E20704784
:1039F0002DE9F04105460E461746002405B116B9DB
:103A00000020BDE8F081AC685FB100E024688CB1B3
:103A1000606A78B13046616AFCF76FFC0028F5D126
:103A200008E000E024682CB13046616AFFF79AFE96
:103A30000028F7D10CB1606A08B90020E1E7204600
:103A4000DFE700002DE9F0410B3020F00706104DB4
:103A500019E02068B04215D3B0420AD9871B201D57
:103A6000D4F80480FCF702FCA019C0E900782860B3
:103A700004E060682860201DFCF7F8FB201D26602C
:103A8000BDE8F081251D2C68002CE2D10020F7E76D
:103A9000742000200EB54FF4E130FEF77DFF4FF4A7
:103AA000E130FEF7CFFF26482649086000F000FC11
:103AB000FDF7A2FEFDF7C0FCFEF708FA4FF4006127
:103AC0002148FCF7ECFB00202049088020481D49D4
:103AD00008602048FDF752FC1E48FDF78FFBFDF7FC
:103AE000EBFF2CE0FEF714F840F2E330FDF763FC47
:103AF0001948007801280ED1FDF7E6F958B117A052
:103B0000FEF7FAFF01201D4908601D49C1F8BC01FC
:103B1000002011490870FDF74FFB1A4840791949F8
:103B20000979184AD278CDE90021029015488378A6
:103B30004278017814A0FEF7DFFFFDF7CFFFD1E751
:103B4000F12400086C0800203C23002038000020ED
:103B5000D5250008600800205E0800207465737495
:103B6000436F6D7061726554696D65205375636351
:103B700065737366756C210D0A000000B4812142E3
:103B8000008021426608002025642D25642D2564CF
:103B9000202025643A25643A25640D0A00000000BF
:103BA0002DE9F04180460C4600250027E068B0F57D
:103BB0007A7F02D30020BDE8F081E068401CE0601D
:103BC000A1682068405C5B2800D05FE0A068401CD2
:103BD000A0602046FFF7CDFC4CB1D4E9011088422B
:103BE00005D2A1682068405C5D2800D13FE01CB18F
:103BF000D4E90110884203D3A068401EA06045E0CC
:103C0000A068401EA06000BF04F11000FFF717FD80
:103C1000064606B93AE015B93546374602E03E6039
:103C200077603746A068401CA0602046FFF7A1FCE3
:103C30002146384600F068FA00B927E02046FFF731
:103C400098FC44B1D4E90110884204D2A1682068EC
:103C5000405C2C28D8D044B1D4E90110884204D269
:103C6000A1682068405C5D2800D00FE000BFE068DC
:103C7000401EE06005B16F602020C8F80C00C8F855
:103C80000850A068401CA060012094E715B12846A8
:103C9000FFF794FC00208EE702460023002100BFBE
:103CA00023E0505C302806DB505C392803DC505C94
:103CB0003038034415E0505C412806DB505C462850
:103CC00003DC505C373803440BE0505C612806DBB2
:103CD000505C662803DC505C5738034401E0002048
:103CE0007047032900D21B01491C0429D9D3184667
:103CF000F6E700002DE9F04391B080460C4600BF86
:103D000000201090FFF772FE814600250CB120685C
:103D100018B9002011B0BDE8F08300253CE0A1688F
:103D200020680844405D342820D00ADCA0F12B0034
:103D300009282ED2DFE800F0202D212A2D16171891
:103D40001900382816D006DC352810D036280FD0B8
:103D500037281ED10DE039280DD045280FD0652811
:103D600017D10BE000BF00BF00BF00BF00BF00BF06
:103D700000BF00BF00BF00BF00BF00BF00BFA16801
:103D800020680844405D0DF8050003E00DF805903B
:103D900000E00AE000BF6D1C3F2D05D224B1A068F1
:103DA000284461688842BAD300BF00200DF805009E
:103DB00010A9684600F0BCFA06460F4668461099FE
:103DC000884201D10020A5E7C8E90667144A154BCF
:103DD00030463946FCF7DEFD04D86FF00040C8F8E5
:103DE000140011E00022104B30463946FCF7BAFDB2
:103DF00004D84FF00040C8F8140005E030463946BA
:103E0000FCF76BFDC8F814000820C8F80C00A06887
:103E10006A461099891A0844A06001207AE70000D8
:103E20000000C0FFFFFFDF410000E0C12DE9F041CD
:103E300080460C4600260025E068B0F57A7F02D364
:103E40000020BDE8F081E068401CE06044B1D4E9A6
:103E50000110884204D2A1682068405C7B2800D011
:103E600084E0A068401CA0602046FFF782FB4CB1B4
:103E7000D4E90110884205D2A1682068405C7D2801
:103E800000D164E01CB1D4E90110884203D3A068DA
:103E9000401EA0606AE0A068401EA06000BF04F160
:103EA0001000FFF7CCFB074607B95FE016B93E46A6
:103EB0003D4602E02F607D603D4624B1A068401C75
:103EC0006168884200D351E0A068401CA060204691
:103ED000FFF74FFB2146284600F04EF800B945E0B9
:103EE0002046FFF746FB286968620020286144B13C
:103EF000D4E90110884204D2A1682068405C3A28C5
:103F000000D033E0A068401CA0602046FFF731FBE2
:103F10002146284600F0F8F800B927E02046FFF7D0
:103F200028FB44B1D4E90110884204D2A16820687A
:103F3000405C2C28B3D044B1D4E90110884204D2AB
:103F4000A1682068405C7D2800D00FE000BFE068D9
:103F5000401EE06006B175604020C8F80C00C8F84B
:103F60000860A068401CA06001206AE716B13046D6
:103F7000FFF724FB002064E72DE9F84F80460C464C
:103F8000A16820680844461CA16820680844451CB4
:103F9000002000900027A1682068405C222800D003
:103FA000A6E04FF0000AD1460DE028785C2809D140
:103FB000681C2168401A6168884200D398E009F1C2
:103FC00001096D1C6D1C2068281A6168884202D2A4
:103FD00028782228E9D12068281A6168884202D20C
:103FE0002878222800D083E0A16820680844281A95
:103FF000A0EB090A0AF1010021698847074607B9C1
:1040000076E0009761E030785C2807D016F8010B65
:10401000009908700098401C009056E04FF002098B
:10402000A81B012800DA63E07078662819D008DC44
:10403000222832D02F2832D05C282FD0622840D1BD
:1040400008E06E2814D0722819D074281ED0752864
:1040500037D12BE00820009908700098401C009090
:1040600030E00C20009908700098401C009029E076
:104070000A20009908700098401C009022E00D2052
:10408000009908700098401C00901BE009200099DE
:1040900008700098401C009014E000BF00BF7078CA
:1040A000009908700098401C00900BE06A46294671
:1040B000304600F04BF98146B9F1000F00D117E00E
:1040C00000E015E000BF4E4400BFAE429BD300208D
:1040D000009908701020C8F80C00C8F8107020680B
:1040E000281AA060A068401CA0600120BDE8F88FDD
:1040F0001FB1384661698847002716B12068301A19
:10410000A0600020F2E7000070B505460C460CB137
:10411000206808B9002070BD9CB1A068001D6168CE
:1041200088420ED8A2682168881804223FA1FCF7B3
:10413000FBF830B90420E860A068001DA0600120F1
:10414000E9E79CB1A068401D616888420ED8A2686A
:1041500021688818052237A1FCF7E6F830B901205C
:10416000E860A068401DA0600120D4E7ACB1A06861
:10417000001D6168884210D8A2682168881804224E
:104180002EA1FCF7D1F840B90220E8600120686157
:10419000A068001DA0600120BDE76CB1D4E901104A
:1041A000884209D2A1682068405C222804D12146B7
:1041B0002846FFF7E1FEAEE7BCB1D4E90110884222
:1041C00013D2A1682068405C2D2809D0A16820681E
:1041D000405C302809DBA1682068405C392804DC99
:1041E00021462846FFF786FD95E76CB1D4E901101A
:1041F000884209D2A1682068405C5B2804D121462E
:104200002846FFF7CDFC86E76CB1D4E9011088425F
:1042100009D2A1682068405C7B2804D12146284649
:10422000FFF704FE77E7002075E700006E756C6C01
:104230000000000066616C736500000074727565B3
:10424000000000002DE9F04704008A4616D054F81B
:10425000047CD4F800903E1F564500D956462046AF
:10426000FEF76EFC05468846324621465046FFF76B
:10427000E9FB40B1C0F80090BDE8F087BDE8F04729
:104280000846FEF78BBC44E9017955B129686A18E4
:10429000211F8A4202D9611B091F2960C5F80480C9
:1042A000EAE7024AC2F80080E6E700007420002036
:1042B00010B510211C20FDF7C9FB10211D20FDF7B2
:1042C000C5FB10211E20FDF7C1FB10211F20FDF7AB
:1042D000BDFB0120054908600549C1F8B401034947
:1042E000083108600249C1F8BC0110BDB08121420B
:1042F0000080214210B504461CB1206808B1A068B6
:1043000008B1002010BD7CB1A068001D6168884222
:104310000AD2A26821688818032204A1FCF704F8D5
:1043200010B9A068C01CA0602046EBE7EFBBBF003F
:1043300000B583B00A460021CDE900110146684668
:10434000FCF7F3FBDDE9000103B000BD2DE9FF5FE1
:1043500080468946154600240026C2460020039068
:10436000834602900190A9EB0A00062800DA81E05A
:104370000AF10200FFF790FC0646B6F55C4F03D346
:10438000B6F5604F00D275E0B6F5584F29D3B6F5B3
:104390005C4F26D20AF10607002000900C20029004
:1043A000A9EB0700062800DA64E038785C2802D11F
:1043B0007878752800D05DE0B81CFFF76DFC0090A0
:1043C0000098B0F55C4F03D30098B0F5604F00D370
:1043D00050E0C6F30901009861F39F2000F5803496
:1043E00002E0062002903446802C02D20120039085
:1043F00018E0B4F5006F04D202200390C0200190B1
:1044000010E0B4F5803F04D203200390E020019037
:1044100008E0B4F5881F04D204200390F020019036
:1044200000E027E00398401E00F0FF0B0BE004F0D3
:10443000BF0040F08000296801F80B00A409ABF12F
:10444000010000F0FF0BBBF1000FF0DC0398012826
:1044500004DD019820432968087003E004F07F0020
:10446000296808702968039808442860029804B0F5
:10447000BDE8F09F0020FAE71F1D1F1E1F1E1F1F13
:104480001E1F1E1FDDDDDDDDDCBBBBDDDDDDDDDD9B
:10449000DDDDDDDD9888888888888888777777777C
:1044A0007788888885555556666666666666666648
:1044B00066688888833333322222222222222222F3
:1044C0002228888DE4440008000000207C200000A1
:1044D0006C0E0008F04600087C200020AC110000A3
:1044E000FC2B0008412D0102030404800906070883
:1044F0000902040608139D2B1B0841041345427949
:10450000140110002DFF7B224374784964223A2263
:10451000376639316335613966303837393939347E
:104520006439356134326539313962353734616621
:10453000227D01FF01FF01FF01FF01FF01FF01FBE0
:10454000C7180708173B05180F7B2254797065229E
:104550003A342C2254696D091835313731393734E2
:10456000363131363730302C224D73674964223A68
:104570002239366331353861332D316137322D348C
:104580003630342D623639392D34343837621938A3
:104590000C32386238222C2253656E6430A80953DD
:1045A00056523031222C09012808225061796C6F53
:1045B000611F58177B5C2243747849645C223A5C23
:1045C000226A6A6F6F64665C222C151A321689851E
:1045D00004FF7D227D01FF01FF01FF01FF01FF01BB
:1045E000FF016228107B2277223A224757694669E9
:1045F000222C22700C180F40646765406E23323401
:104600006974266470161A74161810302C302C3207
:10461000363934313438302C3134041C37302C07DF
:10462000290A1A301B19041B3135082810392C337C
:10463000392C38392C34352C322C37350304FF32E1
:10464000227D01FF01FF01FF01FF01FF01FF01A129
:1046500018107B2254797065223A39322C22546921
:104660006D0A181B3137343435333334363733322F
:10467000352C224D73674964223A22346166100B4F
:10468000166B65088E222C202009013E2253656E90
:104690006439180F5356523031222C225061796CF4
:1046A0006F611299261928E80A7B5C2253746172A3
:1046B000745C7A9E5C22456E64161B3838161A3478
:1046C000171F4765747465721A0014FF5C22636CCF
:1046D00069656E7449645F3030355C227D227D01EE
:1046E000FF01FF01FF01FF01FF01FF014200000088
:0400000508000131BD
:00000001FF
