:020000040800F2
:100000007821002001010008312300087B1B000833
:100010002D2300087F0E00082F2E0008000000008E
:10002000000000000000000000000000352500086E
:10003000D914000800000000DD2300082126000874
:100040001B0100081B0100081B0100081B01000820
:100050001B0100081B0100081B0100081B01000810
:100060001B0100081B0100081B0100081B01000800
:100070001B0100081B0100081B0100081B010008F0
:100080001B0100081B0100081B0100081B010008E0
:100090001B0100081B0100081B0100081B010008D0
:1000A0001B0100081B0100081B0100081B010008C0
:1000B000852600081B010008A52600081B01000872
:1000C0001B0100081B0100081B0100081B010008A0
:1000D0001B010008952800081D2900082D2B000889
:1000E000091800081B0100081B010008DFF80CD0EC
:1000F00000F038FE00480047E93F00087821002062
:100100000648804706480047FEE7FEE7FEE7FEE7B1
:10011000FEE7FEE7FEE7FEE7FEE7FEE7252600082E
:10012000ED0000082DE9F0410024061B254671F181
:10013000000605DA01240027D0EB070067EB010178
:10014000161E73F1000605DA0027D2EB070201251F
:1001500067EB030300F02AFC86460E4617469C46D2
:10016000AC4204D00025D0EB050E65EB010624B1AE
:100170000020D2EB000760EB030C704631463A4694
:100180006346BDE8F081A0F14101192900D8203073
:1001900070470000014610B509683C22B1FBF2F33C
:1001A00002FB1313B1FBF2F11D480360B1FBF2F344
:1001B00002FB1313B1FBF2F118224360B1FBF2F31F
:1001C00002FB1313B1FBF2F183600A1D0723B2FB9C
:1001D000F3F403FB142282618A0040F2B55102F667
:1001E0006C32B2FBF1F344334361B2FBF1F301FB38
:1001F00013218908C1613B2903D3027D920700D0F6
:10020000491C0022074C13460261E25C8A4203D873
:10021000891A5B1C0361F8E7491CC16010BD00002E
:100220004C1B0020B84D000840EA01039B0703D097
:1002300009E008C9121F08C0042AFAD203E011F825
:10024000013B00F8013B521EF9D27047D2B201E0E7
:1002500000F8012B491EFBD270470022F6E710B5CB
:1002600013460A4604461946FFF7F0FF204610BD24
:1002700030B505462A460B4612F8010B13F8014B20
:1002800008B1A042F8D01CB1002802D06D1CF1E7E3
:10029000284630BDCAB2401E10F8011F8A4202D063
:1002A0000029F9D100207047421C10F8011B0029D9
:1002B000FBD1801A704710B5002200E0521C835C0D
:1002C0008C5CA34201D1002BF8D1D8B2E1B2401A24
:1002D00010BD034611F8012B00F8012B002AF9D1BB
:1002E0001846704730B505460020034600E05B1C09
:1002F000934205D2EC5CC85C201A01D1002CF6D1E7
:1003000030BD00002DE9FF4F087883B09946FF28E3
:1003100005D0491C2D2804D00024002008E000202E
:100320000BE00124F9E700EB800003EB4000491CDF
:100330000B78FF2BF7D104B14042002302931478CD
:1003400019461D462D2C01D02B2C04D1521C2D2CCE
:1003500013D000240294AA461478FF2C0FD00A254B
:10036000A3FB057801FB05814FF0000C03FB0C118A
:10037000521CE3194AEB0101EEE70124EAE781444C
:1003800053EA010002D019F5C87F06DA039800216C
:10039000C0E9001107B0BDE8F08F0025AE4E2F4632
:1003A000DFF8B882184600F09DFCCDE90001B9F1F4
:1003B000000002DAC9F1000400E004460023A74A65
:1003C0001AEB030B42EB045A12E0E00707D02A466F
:1003D00033463846414600F0ECF9074688462A463F
:1003E00033461046194600F0E4F905460E466410FF
:1003F000002CEAD1DDE90001B9F1000F5A4653465D
:1004000006DA00F000FC3A46434600F0FCFB05E04B
:1004100000F0CFF93A46434600F0CBF9029A0AB110
:1004200081F00041039AC2E90001B3E72DE9FF4FD3
:100430001F468DB0D7E901464FF0FF382E204546C4
:100440004FF000090B90B9696D1C0E988847396A06
:10045000824688470028F6D1BAF1FF3F0AD024F43B
:10046000D064002E11DDBAF12B0F08D0BAF12D0F98
:100470000BD102E0404611B08DE744F48064B969C5
:100480006D1C0E9888478246761E6946600501D528
:100490002D2000E02B208DF8000001F1010B0DF163
:1004A000200809E0B9696D1C0E98884782460F98AC
:1004B00044F40074761E0560002E02DDBAF1300FA0
:1004C000F0D00B998A453ED144F0800406E00F99A4
:1004D000681CA9F1010944F400740860B9696D1C35
:1004E000761E0E98884782463028F0D02BE00B9974
:1004F0008A4505D1200603D444F08004761E18E016
:10050000504602F093FE08B30DF11301761E44F439
:1005100000748B4508D2AAF130000BF8010B2006BD
:1005200007D5A9F1010003E0200602D409F101007A
:100530008146A00502D50F99681C0860B9696D1C39
:100540000E9888478246002ED1DC53E0002E51DD04
:10055000BAF1650F02D0BAF1450F4BD1A00549D5CC
:10056000B9696D1C24F44074761E0E988847824643
:10057000002E0CDD2B2804D0BAF12D0F07D144F446
:100580008074B9696D1C0E9888478246761EE00516
:1005900001D52D2100E02B2108F8011BCDF82C807E
:1005A00021E00DF12901761E44F4007488450CD237
:1005B000AAF1300010F0FF0088F8000002D10B997A
:1005C000884509D908F1010806E0E00501D524486D
:1005D00001E042F20F708146B9696D1C0E988847A0
:1005E00082460F980560002E04DD504602F01EFE84
:1005F0000028D6D1F9690E988847FF208BF80000B3
:1006000088F800000020069007904B466A4608A92B
:1006100006A8FFF777FEA00502D46FF001002AE7D5
:1006200014F0240F0AD0E00714D1DDE9061238686F
:10063000031D3B600068C0E900120BE0DDE9060124
:1006400000F074FB0146E00704D13868021D3A60EF
:100650000068016028460EE7000014400000F03FEB
:10066000F1D8FFFF2DE9FE4F804681EA0300C00F5D
:100670000C46009021F0004123F00045B8EB020049
:10068000A94105D24046214690461C460B460246EB
:1006900023F00040104347D0270DC7F30A00C3F3EF
:1006A0000A510290401A019040286BDAC3F31300FC
:1006B00040F4801B0098924620B10023D2EB030A3D
:1006C00063EB0B0B01985946C0F14002504600F015
:1006D0009EF906460D4650465946019A00F0B6F975
:1006E00010EB08006141002487EA115284EAE773A5
:1006F0001A4340D0009A62B3019A012A4FEA075286
:1007000015DC001B61EB02014FF0004202EA0752C8
:10071000CDE90042001C41F5801132462B4600F025
:1007200024FA03B0BDE8F08F40462146F9E7001BEC
:1007300061EB0201001C41F5801300185B41201899
:10074000A2F5001747EB030140EAD570B6196D41D9
:1007500011E06D084FEA360645EAC0754FEA0752C8
:10076000001B61EB0201001C41F5801149084FEAB2
:1007700030000019514132462B4603B0BDE8F04F1E
:1007800000F0E4B90098012240000023D0EB0202FF
:1007900063EBE073009821464FEAE074B8EB000089
:1007A00061EB0401E9E783F000435BE781F000417E
:1007B00058E72DE9FE4F81EA030404F0004421F0DC
:1007C000004100944FF0000B23F0004350EA010475
:1007D0005ED052EA03045BD0C3F30A54C1F30A5556
:1007E0002C44A4F2F3340194A0FB0254C1F313018E
:1007F00041F48011C3F3130343F4801301FB02445B
:1008000000FB034E840A970A44EA815447EA83575F
:10081000A4FB076802958D0A05FB07854FEA932C18
:1008200004FB0C542705029D4FEA065847EA163789
:10083000B5EB08056EEB070C870E920E47EA8117A1
:1008400042EA8312A7FB0201B6EB0B0164EB000442
:100850002B0D43EA0C335E1844EB1C50DA4651462C
:10086000E7FB0201C5F313044FEA0B3343EA1453C9
:100870004FEA0432019C43EA0603A4F10C040294FB
:10088000009CCDE900B400F070F903B0BDE8F08F32
:1008900000200146F9E770B5C1F30A5201F00045A6
:1008A0000024C1F3130140F2FF3341F480119A4256
:1008B00001DA002070BD40F233439A42A2F2334283
:1008C00003DC524200F0B2F800E090402C43F1D03B
:1008D000404270BD70B5C1F30A5201F000450024DA
:1008E000C1F3130140F2FF3341F480119A4202DA5E
:1008F0000020014670BD40F233439A42A2F23342D7
:1009000003DC524200F092F801E000F080F82C4342
:10091000F0D00023D0EB030063EB010170BD0000B9
:1009200030B5041E71F1000404DB4FF00044404276
:1009300064EB0101141E73F1000405DB1C464FF04B
:100940000043524263EB04038B4208BF824230BD36
:1009500030B5041E71F1000404DB4FF00044404246
:1009600064EB0101141E73F1000405DB1C464FF01B
:100970000043524263EB0403994208BF904230BDEA
:1009800030B50B46014600202022012409E021FA5F
:1009900002F59D4205D303FA02F5491B04FA02F55C
:1009A0002844151EA2F10102F1DC30BD2DE9F05FF3
:1009B0000546002092469B468846064681464024CE
:1009C0001BE0284641464746224600F02FF8534692
:1009D0005A46C01A914110D311461846224600F0DB
:1009E00016F82D1A67EB01084F4622460120002118
:1009F00000F00DF817EB00094E41201EA4F1010490
:100A0000DFDC484631462A464346BDE8F09F202AAF
:100A100004DB203A00FA02F1002070479140C2F155
:100A2000200320FA03F3194390407047202A04DB87
:100A3000203A21FA02F00021704721FA02F3D04057
:100A4000C2F120029140084319467047202A06DB74
:100A5000CB17203A41FA02F043EAE07306E041FA8C
:100A600002F3D040C2F1200291400843194670477A
:100A7000426842B1016811F8013B23B1521EC0E93E
:100A80000012184670470121C160881E70474268F5
:100A90005AB1C368016843B983688B4205D0491EC7
:100AA000521CC0E90012002070474FF0FF30704721
:100AB0000FB4002300B589B00CA900910B996FF019
:100AC0000042CB601E4B06931E4B07930423CDE9D7
:100AD00001321D4A089202466B460020FFF7A6FC31
:100AE00009B05DF814FB70B586B006464FF0FF30D4
:100AF0000091CDE90101002015460C4604903246D4
:100B0000694604A8FFF7D4FF02460498211825B1CE
:100B100008B1084600E020462860049800280DD05F
:100B2000002A02DD0098884208D0081B0094CDE915
:100B300001043246694604A8FFF7BAFF06B070BD4B
:100B4000710A00088F0A0008890D000810B5141EEC
:100B500073F1000408DA401C41F1000192185B4176
:100B60001A4301D120F0010010BD2DE9F04D92464D
:100B70009B4611B1B1FA81F202E0B0FA80F2203264
:100B80009046FFF744FF04460F4640EA0A0041EA58
:100B90000B0153465A46084313D0114653EA01004D
:100BA00019D0C8F140025046FFF740FF05460E46F7
:100BB000504659464246FFF72AFF084305D0012018
:100BC00004E020463946BDE8F08D0020054346EAA2
:100BD000E0762C4337430A986305E40AA0EB08004B
:100BE0000022FD0A44EA47540A3002D5002001469B
:100BF000E9E7010510196941DDE908450019694176
:100C0000BDE8F04DA2E72DE9F04D81EA030404F0C0
:100C1000004B21F0004514464FF0000A23F000413C
:100C200050EA050220D054EA01021DD0C5F30A574C
:100C30000246C5F31303C1F31300C1F30A5640F48F
:100C4000801543F48013A7EB0608101BD64608F264
:100C5000FD3873EB050002D308F1010801E092189A
:100C60005B41B8F1000F03DA00200146BDE8F08DCA
:100C700000204FF48011064684460EE0171B73EBEC
:100C8000050705D3121B63EB050306434CEA010C71
:100C900049084FEA300092185B4150EA0107EDD154
:100CA00052EA030012D082EA040083EA05010843F5
:100CB00005D0101BAB4106D20122002306E0002222
:100CC0004FF0004302E06FF0010253101AEB0600F0
:100CD0004CEB085110EB0A0041EB0B01BDE8F04D65
:100CE000FFF734BF0EB540F2334202920022CDE945
:100CF00000221346FFF739FF03B000BDC1F30A52CB
:100D0000C1F3130140F2FF3341F480119A4202DA39
:100D100000200146704740F233439A42A2F2334228
:100D200002DC5242FFF782BEFFF771BE01F00043C2
:100D300030B421F0004150EA010206D00A0DA2F5BC
:100D40006072C1F31301002A02DC30BC002070473E
:100D5000440F44EAC104C100E01830BC00EBC250AB
:100D600000F017B8064C074D06E0E06840F00103BC
:100D700094E8070098471034AC42F6D3FFF7BAF96D
:100D8000BC4E0008DC4E0008C0B24FF4F05100F039
:100D900037B80029A8BF7047401C490008BF20F0A1
:100DA0000100704710B4B0FA80FC00FA0CF050EA71
:100DB000010404BF10BC704749B1CCF1200421FAF2
:100DC00004F411FA0CF118BF012121430843A3EBED
:100DD0000C01CB1D4FEA00614FEA102042BF0020FA
:100DE00010BC704700EBC35010440029A4BF10BCD6
:100DF0007047401C490008BF20F0010010BC70473C
:100E00007F2801D9002208E0064A02EB5002C00701
:100E1000127800D1120902F00F0201209040084020
:100E200070470000C44D000870B58C1810F8015BC5
:100E300015F0070301D110F8013B2A1106D110F873
:100E4000012B03E010F8016B01F8016B5B1EF9D177
:100E50002B0705D40023521E0DD401F8013BFAE7FD
:100E600010F8013BCB1A921C03E013F8015B01F868
:100E7000015B521EF9D5A142D8D3002070BD00BF3E
:100E8000FEE7000010B520A002F084F81F480278A9
:100E90001F4801781FA002F07DF81C4842781C48CA
:100EA000417825A002F076F81848827818488178B1
:100EB0002AA002F06FF81548C2781548C17830A012
:100EC00002F068F8114802791148017935A002F062
:100ED00061F80E4842790E4841793BA002F05AF879
:100EE00000210CE00A48405C084A525C904203DB57
:100EF000052903D1012010BD0020FCE7491C06296B
:100F0000F0DB0020F7E700000D0A00005008002089
:100F10005C08002074696D655F43757272656E745C
:100F20005F593A20256409456E645F74696D653ABE
:100F300025640D0A0000000074696D655F437572D9
:100F400072656E745F4D3A2025642009456E645FBA
:100F500074696D653A25640D0A00000074696D6559
:100F60005F43757272656E745F443A20256409456B
:100F70006E645F74696D653A25640D0A00000000B7
:100F800074696D655F43757272656E745F483A206F
:100F9000256409456E645F74696D653A25640D0AC0
:100FA0000000000074696D655F43757272656E7450
:100FB0005F4D3A20256409456E645F74696D653A3A
:100FC00025640D0A0000000074696D655F43757249
:100FD00072656E745F533A20256409456E645F74D0
:100FE000696D653A25640D0A00000000F8B50546F4
:100FF0000E464FF47A72002328463146FFF792F8E6
:1010000000906846FFF7C6F80446606900F26C700D
:10101000642190FBF1F201FB120009490870207C69
:10102000401C4870207B8870207A0830C870207976
:10103000087120784871084600F072F9F8BD000088
:101040005C080020FEB505460E464FF47A72002378
:1010500028463146FFF766F8029002A8FFF79AF893
:101060000446606900F26C70642190FBF1F201FBB0
:10107000120010490870207C401C4870207B88704A
:10108000207A0830C87020790871207848710120D2
:1010900009490870C003009000208DF80400082062
:1010A0008DF8050000208DF80600684600F0FCFB76
:1010B000FEBD00005008002056080020F8B5054687
:1010C0000E464FF47A72002328463146FFF72AF87D
:1010D00000906846FFF75EF80446606900F26C70A5
:1010E000642190FBF1F201FB120739461AA001F0CE
:1010F00051FF606900F26C70642190FBF1F201FB1A
:101100001200184908702069411C17A001F042FF25
:10111000207C401C1349487016A0E16801F03AFF9A
:10112000207B10498870A06800F1080114A001F02C
:1011300031FF207A08300B49C87014A0616801F0B3
:1011400029FF20790749087113A0216801F022FFC7
:10115000207804494871F8BD796561723A202564A8
:101160000A0000005C0800206D6F6E74683A20254C
:10117000640A00006461793A2025640A00000000D6
:10118000686F75723A2025640A0000006D696E3A36
:101190002025640A000000007365633A2025640A74
:1011A0000000000008B50121082001F039F9E02015
:1011B000ADF8000003208DF8020010208DF8030028
:1011C0006946024800F0DAFB08BD0000000C01404F
:1011D00038B50446012C0DD14020ADF800000320A5
:1011E0008DF8020010208DF803006946094800F0D0
:1011F000C5FB0DE064B94020ADF8000003208DF878
:10120000020048208DF803006946024800F0B6FB52
:1012100038BD0000000C01402DE9F0470646374676
:1012200080202D490860002517E007F0010018B163
:1012300040202949086003E040202749091D086033
:101240007F10202024490860022000F01DF9202092
:101250002149091D0860681CC5B2082DE5DB002086
:10126000FFF7B6FF002517E0641040211A48103838
:1012700000F07AFC10B144F0800401E004F07F0437
:10128000202015490860022000F0FEF820201249B5
:10129000091D0860681CC5B2082DE5DB80200E49D9
:1012A000091D08600120FFF793FF2046E11704EBBA
:1012B0001171C1F30718E11704EB11710911A4EBC7
:1012C000011101F0FF0908EB880009EB400000F074
:1012D000FF0A5046BDE8F087100C014010B58D2084
:1012E000FFF79AFF0D4908708920FFF795FF0B491A
:1012F00048708720FFF790FF084988708520FFF726
:101300008BFF0649C8708320FFF786FF03490871E9
:101310008120FFF781FF0149487110BD5C08002062
:1013200030B5044600218E2000F066F860790A216D
:1013300090FBF1F201FB12010A2290FBF2F001EBAB
:101340000010C5B22946802000F056F820790A2105
:1013500090FBF1F201FB12010A2290FBF2F001EB8B
:101360000010C5B22946822000F046F8E0780A2134
:1013700090FBF1F201FB12010A2290FBF2F001EB6B
:101380000010C5B22946842000F036F8A0780A2162
:1013900090FBF1F201FB12010A2290FBF2F001EB4B
:1013A0000010C5B22946862000F026F860780A2190
:1013B00090FBF1F201FB12010A2290FBF2F001EB2B
:1013C0000010C5B22946882000F016F820780A21BE
:1013D00090FBF1F201FB12010A2290FBF2F001EB0B
:1013E0000010C5B229468C2000F006F880218E201E
:1013F00000F002F830BD0000F0B504460D46264668
:101400002F4680201F490860002317E006F00100E6
:1014100018B140201B49086003E040201949091D0C
:1014200008607610202017490860022000F02CF890
:1014300020201449091D0860581CC3B2082BE5DBA5
:10144000002317E007F0010018B140200D490860A3
:1014500003E040200B49091D08607F102020094946
:101460000860022000F010F820200649091D0860DD
:10147000581CC3B2082BE5DB80200249091D086017
:10148000F0BD0000100C014007E06E2101E04A1E93
:10149000D1B20029FBDC421ED0B20028F5DC704737
:1014A00010B50446FFF77EFE0220FFF7EDFF802017
:1014B000084908602020086000218E20FFF79CFF6B
:1014C0008120FFF7A9FE00F0800010B12046FFF751
:1014D00027FF10BD140C0140704700B5034603E020
:1014E0004FF47A7000F005F8181EA3F10103F7D14C
:1014F00000BD00EBC001C9004FF0E02251610021A6
:1015000091610521116100BF4FF0E021096901F4EB
:1015100080310029F8D004214FF0E022116170479A
:1015200010B51021182000F0FDFA1021192000F04C
:10153000F9FA0020074908600749C1F8A401012011
:10154000FFF7CBFF0120034908600349C1F8A4015C
:1015500010BD0000A08121420080214270B5FFF73C
:10156000DFFF03244FF4FA70FFF7B7FF1AE054B916
:101570000020564908602820FFF7AFFF012054499A
:10158000C1F8A401032402F041FC012803D151A0B9
:1015900001F000FD03E054A001F0FCFC07E00A208C
:1015A000FFF79BFF201EA4F10101CCB2DFD100BFE9
:1015B00002F06EFB012803D151A001F0EBFC02E028
:1015C00054A001F0E7FC052410E058A15AA002F055
:1015D0003BFB012803D15CA001F0DCFC03E05FA031
:1015E00001F0D8FC07E00A20FFF777FF201EA4F1E6
:1015F0000101CCB2E9D100BF05240220FFF76DFF45
:10160000012500BF062C54D2DFE804F05303132356
:10161000334358A002F0E2FB012804D155A159A0A0
:1016200001F0B8FC04E053A15BA001F0B3FC00257D
:101630003FE060A002F0D2FB012804D15DA151A0DF
:1016400001F0A8FC04E05BA15EA001F0A3FC002572
:101650002FE062A002F0C2FB012804D15FA149A0E3
:1016600001F098FC04E05DA14BA001F093FC002583
:101670001FE05DA002F0B2FB012804D15AA141A0F5
:1016800001F088FC04E058A143A001F083FC002590
:101690000FE059A002F0A2FB012804D156A139A005
:1016A00001F078FC04E054A13BA001F073FC00259C
:1016B00000BF00BF3220FFF710FF201EA4F1010180
:1016C000CCB201D0002D9DD170BD0000A48121427B
:1016D0000080214261742074657374204572726FBA
:1016E00072210D0A0000000061742074657374207B
:1016F0005375636365737366756C210D0A00000092
:1017000061742043574D4F4445204572726F7221DA
:101710000D0A000061742043574D4F444520537516
:10172000636365737366756C210D0A00676A3571B2
:101730006D647865000000004368696E614E6574F1
:101740002D5061526600000061742043574A415099
:10175000204572726F72210D0A00000061742043EF
:10176000574A4150205375636365737366756C21E6
:101770000D0A00007777772E736F68752E636F6D93
:101780000000000061742050494E47204572726F7E
:1017900072212025730D0A0061742050494E4720A4
:1017A0005375636365737366756C212025730D0A29
:1017B000000000007777772E73696E612E636F6D7E
:1017C0002E636E0061742050494E47205375636349
:1017D00065737366756C2025730D0A007777772E15
:1017E00071712E636F6D00007777772E616C697968
:1017F000756E2E636F6D00007777772E6261696476
:10180000752E636F6D00000010B54CF250344FF42C
:10181000004000F035F8012821D10020104908606F
:101820001049C1F8B8010E49083908604FF400406A
:1018300000F020F800BF4FF400410B4800F094F98D
:101840000028F8D00020094908700121084800F05C
:101850006DFF00BF201EA4F101018CB2FAD110BDB2
:10186000BC8121420080214200080140580800202C
:10187000000800400149086070470000140401405E
:10188000014600200022074B1B6803EA0102054BBA
:1018900014331B680B4013B10AB1012000E0002093
:1018A0007047000000040140002123498279002A8A
:1018B0003AD00A46126803689A430B461A600A1D1A
:1018C000126803689A430B1D1A60027911440A6872
:1018D00003681A430A60184A0832126803689A4378
:1018E000154B08331A601A1D126803689A43124B8D
:1018F0000C331A604279102A0ED11A1F126803683D
:101900001A430D4B08331A601A1D126803681A43F4
:10191000094B0C331A600DE00749427911440A68FB
:1019200003681A430A6005E0027911440A680368F3
:101930009A430A60704700000004014030B500225D
:101940008B071C0F0F2303FA04F20B4B8C1053F878
:1019500024309343084C8D1044F8253023468C10D6
:1019600053F824308C07240F00FA04F42343024C6C
:101970008D1044F8253030BD080001402DE9F041BC
:10198000024600250026002000230024002791F8AD
:1019900003C00CF00F0591F803C00CF0100CBCF163
:1019A000000F03D091F802C04CEA050591F800C081
:1019B000BCF1000F31D0146800202BE04FF0010C77
:1019C0000CFA00F3B1F800C00CEA03069E4220D1E5
:1019D00083004FF00F0C0CFA03F7BC4305FA03FC2D
:1019E0004CEA040491F803C0BCF1280F06D14FF073
:1019F000010C0CFA00FCC2F814C00AE091F803C014
:101A0000BCF1480F05D14FF0010C0CFA00FCC2F8F4
:101A100010C0401C0828D1D31460B1F800C0BCF13C
:101A2000FF0F34DD546800202EE000F1080C4FF069
:101A3000010808FA0CF3B1F800C00CEA03069E4254
:101A400021D183004FF00F0C0CFA03F7BC4305FAC9
:101A500003FC4CEA040491F803C0BCF1280F05D143
:101A600000F1080C08FA0CF8C2F8148091F803C0D1
:101A7000BCF1480F07D100F1080C4FF0010808FA3B
:101A80000CF8C2F81080401C0828CED35460BDE882
:101A9000F0810000F0B50A46002300240021002553
:101AA00000F00046B6F1004F02D11D4EF16901E091
:101AB0001B4E7168C0F3034583B200F44016B6F5BF
:101AC000401F08D121F07061154E766826F07066CF
:101AD000134F7E6012E000F48016B6F5801F06D129
:101AE000032606FA05F4A14341F0706106E0460DB5
:101AF000360103FA06F6B14341F0706122B1460D9A
:101B0000360103FA06F6314300F00046B6F1004F05
:101B100002D1034EF16101E0014E7160F0BD0000A1
:101B20000000014038B504460D462211042101FA97
:101B300002F0012100F074FC03208DF8020004F093
:101B40000F010120884080B2ADF800008DF80350ED
:101B50002111044A131503FB01206946FFF70EFF0C
:101B600038BD0000000801400246002093680B4089
:101B70000BB1012000E00020704700BFFEE700002D
:101B80004CF6CC400149086070470000003000402E
:101B900010B545F2555000F021F8052000F012F87C
:101BA00040F69B7000F014F800F004F8FFF7E8FF2F
:101BB00010BD00004AF6AA200149086070470000E5
:101BC000003000400149486070470000003000408C
:101BD00001498860704700000030004001490860FA
:101BE00070470000003000402DE9F04FC9B0A64812
:101BF000007870B1A5A001F0CDF9A749A7A001F028
:101C0000C9F90020A04908708021A648FEF725FBED
:101C100007E04FF40061A048FEF71FFB49B0BDE8A4
:101C2000F08F7B219C48FEF735FB04461CB99EA033
:101C300001F0B0F9F2E7AAA001F0ACF9204601F0FA
:101C400099FE2146ADA001F0A5F9204601F052FF12
:101C50008346BBF1000F0FD101F02EFF80464146B5
:101C6000A8A001F097F9584601F0F6FE4FF4006184
:101C70008948FEF7F2FAD1E7A8A001F08BF9AAA1F2
:101C8000584601F021FF0546A9A1584601F01CFF66
:101C90000646A9A1584601F017FF4790A8A158464B
:101CA00001F012FF4690A8A1584601F00DFF07462B
:101CB000002D7DD0002EFCD047980028F9D0469802
:101CC0000028F6D0002FF4D0A1A0696901F062F9D4
:101CD000D6E9060102460B46CDE900019FA001F0BE
:101CE00059F947980169A1A001F054F94698016992
:101CF000A1A001F04FF9A3A106A83A6901F05AF991
:101D0000287DA1490870084600780A2828D004DCFC
:101D1000002835D004283AD104E00B2819D05A28DD
:101D200035D124E099A001F035F9D6E90621104615
:101D3000FEF7D0FDCDE90401DDE90401FFF756F916
:101D4000584601F089FE4FF400615348FEF785FACA
:101D500064E70020954908609549C1F8BC011FE07F
:101D60000120924908609249C1F8BC0118E091A095
:101D700001F010F94FF47A70FFF7AFFB00F01CFB95
:101D800092A001F007F9584601F066FE46E7584672
:101D900001F062FE4FF400613F48FEF75EFA00BFBB
:101DA00000BF584601F058FE06A801F0A3FE00E06F
:101DB00067E00390039850B901F07EFE014602905F
:101DC00087A001F0E7F8039801F046FE26E78CA013
:101DD00001F0E0F88FA1039801F076FE80468FA114
:101DE000039801F071FE81468DA1039801F06CFE0D
:101DF0008246B8F1000F1DD0B9F1000F1AD0BAF128
:101E0000000F17D0D8E9060102460B46CDE90001C4
:101E100085A001F0BFF8D9E9060102460B46CDE9DD
:101E2000000185A001F0B6F886A0DAF8101001F0E4
:101E3000B1F802E086A001F0ADF8D8E9062110461D
:101E4000FEF748FD864A03C2D9E906211046FEF78F
:101E500041FD844A03C282480CC883A001F09AF86D
:101E60007F4903C9FFF72AF97E4903C9FFF7EAF85A
:101E7000039801F0F1FD4FF400610748FEF7EDF91A
:101E800000BF00BFCAE60000340000200D0A7465E0
:101E90006D703A0D0A0000004C13002025730D0AE6
:101EA00000000000CC120020556E61626C65207449
:101EB0006F2066696E642074686520737461727443
:101EC000696E6720706F736974696F6E206F66202A
:101ED000746865204A534F4E20646174610D0A0096
:101EE0004A736F6E20537461727420537563636517
:101EF000737366756C210D0A000000000D0A2573CE
:101F00000D0A00004A534F4E2070617273652065C0
:101F100072726F723A2025730A0000004A736F6E66
:101F2000204F4B0D0A00000054797065000000003E
:101F300054696D65000000004D736749640000003E
:101F400053656E64496400005061796C6F61640090
:101F5000547970653A2025640A00000054696D6563
:101F60003A20252E6C6C660A000000004D7367490C
:101F7000643A2025730A000053656E6449643A2070
:101F800025730A0025730000680800204865617207
:101F900074426561742053796E2053756363657371
:101FA000736663756C210D0A00000000B481214244
:101FB0000080214253797374656D2077696C6C20C1
:101FC00072657365742E2E2E0D0A00004974206907
:101FD00073204261636B536F756E6432210D0A008A
:101FE0005061796C6F6164204A534F4E207061726A
:101FF0007365206572726F723A2025730A000000C3
:102000005061796C6F6164204A534F4E204F4B21D1
:102010000D0A00005374617274000000456E640084
:10202000476574746572000053746172743A2025B8
:102030002E6C6C660A000000456E643A252E6C6CAE
:10204000660A00004765747465723A25730A0000D9
:102050005374617274206572726F72210D0A0000F0
:10206000400800204808002053746172745F74694E
:102070006D655F7374616D703A20256C6C640D0A38
:102080000000000010B586B003240FE047A001F067
:1020900089FE012803D153A000F07CFF03E057A084
:1020A00000F078FF07E00120FFF717FA201EA4F1E7
:1020B0000101CCB2EAD100BF032405240FE056A0F1
:1020C00001F016FE012803D158A000F063FF03E0E1
:1020D0005CA000F05FFF07E00120FFF7FEF9201E83
:1020E000A4F10101CCB2EAD100BF05241EE040F208
:1020F0005B715BA001F0DCFD012809D158A25DA154
:10210000684600F057FF69465BA000F043FF09E016
:1021100053A258A1684600F04DFF69465BA000F04D
:1021200039FF08E01420FFF7D8F900BF201EA4F102
:102130000101CCB2DBD100BF0220FFF7CEF90324AE
:102140000CE059A001F012FE012803D15DA000F0BF
:1021500021FF03E060A000F01DFF04E0201EA4F1B9
:102160000101CCB2EDD100BF0220FFF7B6F901208A
:102170005F490870032410E05E494BA001F0D2FDD6
:10218000012803D15CA000F005FF03E060A000F08F
:1021900001FF07E00A20FFF7A0F9201EA4F10101CA
:1021A000CCB2E9D100BF06B010BD0000302C312CFC
:1021B00022323232323232375F5531513442325A62
:1021C00035222C22657370383236365F6C69222CCA
:1021D0002231323334353637222C302C302C222227
:1021E000000000004D51545455534552434647207A
:1021F0004572726F72210D0A000000004D51545457
:102200005553455243464720537563636573736660
:10221000756C210D0A000000302C36302C312C2238
:10222000222C22222C302C30000000004D5154541E
:10223000434F4E4E434647204572726F72210D0A3E
:10224000000000004D515454434F4E4E434647202A
:102250005375636365737366756C210D0A00000026
:102260006E657374626173652E6D65736565652E49
:10227000636F6D00257300004D515454434F4E4E13
:10228000204572726F722125730D0A004D5154540E
:10229000434F4E4E205375636365737366756C21AF
:1022A00025730D0A00000000323232323232372FED
:1022B000323232323232375F5531513442325A354E
:1022C000000000004D515454535542204572726F26
:1022D00072210D0A000000004D5154545355422004
:1022E0005375636365737366756C210D0A00000096
:1022F0003E0800204C4E00084D5154545055422089
:1023000053656E64204572726F72210D0A000000E1
:102310004D5154545055422053656E64205375639B
:102320006365737366756C210D0A000000BFFEE7DC
:102330007047000070B5002100230F22C47804B359
:10234000154C246804F4E064C4F5E064210AC1F18A
:102350000403CA40447804FA03F18478144021430A
:1023600009010E4C0678A155047804F01F050124DC
:10237000AC4005786D11AD0005F1E025C5F80041D0
:1023800009E0047804F01F050124AC40044D0678F0
:10239000761145F8264070BD0CED00E000E400E049
:1023A00080E100E002490143024A116070470000E9
:1023B0000000FA050CED00E00648006800F4E0605B
:1023C00005490843001D03490860BFF34F8F00BF54
:1023D000FEE700000CED00E00000FA057047000089
:1023E00029B1064AD2690243044BDA6104E0034A88
:1023F000D2698243014BDA6170470000001002404D
:1024000029B1064A12690243044B1A6104E0034AE7
:1024100012698243014B1A617047000000100240AC
:1024200029B1064A92690243044B9A6104E0034AC7
:1024300092698243014B9A6170470000001002408C
:1024400029B1064AD2680243044BDA6004E0034A29
:10245000D2688243014BDA607047000000100240EE
:1024600030B500210022002400232D4D6D6805F0B9
:102470000C0121B1042905D0082923D105E0294DFB
:10248000056022E0274D05601FE0254D6D6805F4CD
:102490007012234D6D6805F48034022505EB9242DD
:1024A0001CB9214D554305600BE01D4D6D6805F4C9
:1024B00000351DB11C4D5543056002E0194D5543D3
:1024C000056002E0174D056000BF00BF144D6D6848
:1024D00005F0F0010909154D6B5C0568DD404560AC
:1024E0000F4D6D6805F4E061090A104D6B5C45689D
:1024F000DD4085600A4D6D6805F46051C90A0B4DD9
:102500006B5C4568DD40C560054D6D6805F4404174
:10251000890B074D6B5CC568B5FBF3F5056130BDF4
:102520000010024000127A0000093D000000002067
:1025300010000020704710B500F002F810BD000038
:102540000CB50020019000903348006840F48030C2
:102550003149086000BF3048006800F40030009046
:102560000198401C0190009818B90198B0F5A06F2F
:10257000F1D12948006800F4003010B1012000902A
:1025800001E0002000900098012843D12348006812
:1025900040F01000214908600846006820F007005C
:1025A00008600846006840F0020008601A48406869
:1025B000194948600846406848600846406840F449
:1025C000806048600846406820F47C1048600846F7
:1025D000406840F4E81048600846006840F08070A9
:1025E000086000BF0C48006800F000700028F9D0B7
:1025F0000948406820F003000749486008464068E1
:1026000040F00200486000BF0348406800F00C0042
:102610000828F9D10CBD0000001002400020024043
:102620007047000010B51348006840F001001149E0
:10263000086008464068104908400E49486008464E
:1026400000680E4908400B4908600846006820F4FD
:10265000802008600846406820F4FE0048604FF47F
:102660001F008860FFF767FF4FF0006004490860B3
:1026700010BD0000001002400000FFF8FFFFF6FE52
:1026800008ED00E010B50121880700F05BF830B1DB
:102690000120034908700121800700F044F810BDB3
:1026A0005708002000B585B00121164800F04AF80F
:1026B00030B30121134800F036F813480078401C6D
:1026C000114908700846027810A1684600F072FCB3
:1026D000694610A000F05EFC0B4800780A280FD174
:1026E00000200949087001200B4908600B49C1F816
:1026F000B8010949083908600021024800F016F8BD
:1027000005B000BD000800405808002025640D0AEF
:102710000000000025730000BC812142008021429E
:10272000CA4302827047CA430282704721B10288BD
:1027300042F00102028004E002884FF6FE731A4064
:102740000280704730B50246002000230024158A1D
:1027500005EA0103958905EA010413B10CB10120D2
:1027600000E0002030BD1FB501210846FFF738FE0C
:102770000020ADF80A00ADF8060048F69F40ADF81D
:1027800008004EF65F20ADF8040000208DF80C0024
:1027900001A94FF0804000F02BF801218807FFF7D6
:1027A000BFFF01221146900700F018F84FF4A06017
:1027B000FFF7F8FD1C208DF8000002208DF80100C5
:1027C00003208DF8020001208DF803006846FFF712
:1027D000B1FD01218807FFF7A9FF1FBD1AB1838949
:1027E0000B43838102E083898B4383817047000020
:1027F000002202881D4B98420ED01D4B98420BD0F0
:10280000B0F1804F08D01B4B984205D01A4B98422C
:1028100002D01A4B984204D14FF68F731A404B885E
:102820001A43174B984207D0164B984204D04FF6E4
:10283000FF431A40CB881A4302808B8883850B881C
:1028400003850A4B98420BD0094B984208D00E4B97
:10285000984205D00D4B984202D00D4B984201D1C1
:102860000B7A03860123838270470000002C01400D
:10287000003401400004004000080040000C00400B
:10288000001000400014004000400140004401409E
:102890000048014010B540F225511D4800F003FAF0
:1028A00010B31B4800F0BAFAC4B21A48008800F40A
:1028B0000040C8B91748008800F4804060B10A2C75
:1028C00003D000201349088020E01248008840F41B
:1028D00000401049088019E00D2C06D10D480088F1
:1028E00040F480400B49088010E00A480088C0F39B
:1028F0000D0009490C5407480088401C0549088010
:1029000008460088C72801DD0020088010BD0000AF
:10291000003801402C0000207408002010B5034846
:10292000006810B101480068804710BD64080020AD
:1029300010B5002440F225511D4800F0B4F90028DC
:1029400034D01C480088802802D300201949088010
:10295000174800F063FAC4B2164801880088401C8A
:10296000144A10801448445414480078012818D19F
:1029700010460088801E1049085C4F2811D110466F
:102980000088401E085C4B280BD10D480D4908609B
:1029900040F22551064800F00FF900200749087061
:1029A00010BD40F22551024800F006F900BFF7E7DC
:1029B000004400403A000020CC1200203E080020D5
:1029C000C92900086408002010B540F225510B48C1
:1029D00000F069F980B1094800F020FAC4B2084952
:1029E0000888411C064A118006490C5440F22551C2
:1029F000024800F0E1F800BF10BD000000440040B4
:102A000036000020CC0A002010B540F2255129489C
:102A100000F049F900284AD0264800F0FFF9C4B276
:102A200025480088B0F5006F02D3002022490880B5
:102A300021490888411C204A118020490C547D2CD2
:102A400027D11F480078012823D11E490870002093
:102A50001B4908701146088040F22551154800F0C6
:102A6000ABF816491848FDF734FC18A000F092FAAC
:102A700012491CA000F08EFA4FF400610F48FDF7D8
:102A8000ECFB1AA000F086FA0C4916A000F082FABE
:102A900010BD7D2C05D10A48007810B901200849E5
:102AA000087040F22551034800F086F800BF00BFCF
:102AB000EEE700000044004036000020CC0A002071
:102AC00033000020340000204C1300200D0A7278DF
:102AD0005F6275666665725F657370383236363A66
:102AE0000D0A000025730D0A000000000D0A636C3A
:102AF00065616E2061667465723A0D0A000000001F
:102B000010B504460BE000BF8021074800F0BEF876
:102B10000028F9D014F8011B034800F084F920784C
:102B20000028F0D110BD00000044004010B540F274
:102B300025511D4800F0B7F810B31B4800F06EF99E
:102B4000C4B21A48008800F40040C8B91748008889
:102B500000F4804060B10A2C03D0002013490880A3
:102B600020E01248008840F400401049088019E035
:102B70000D2C06D10D48008840F480400B49088098
:102B800010E00B480088C0F30D000A490C540748B8
:102B90000088401C0549088008460088C72801DDD8
:102BA0000020088010BD00000048004030000020D8
:102BB0002E000020040A002010B50022002340F659
:102BC0006A14A14200D100BF0A1201249440A3B2AA
:102BD000DC43048010BD21B1828942F4005282811D
:102BE00004E082894DF6FF731A408281704700002D
:102BF00010B504462048844209D101218803FFF71B
:102C00001FFC00214FF48040FFF71AFC32E01B4804
:102C1000844209D101214804FFF7F2FB00214FF45F
:102C20000030FFF7EDFB25E01548844209D1012172
:102C30008804FFF7E5FB00214FF48020FFF7E0FB5D
:102C400018E01048844209D10121C804FFF7D8FBDD
:102C500000214FF40020FFF7D3FB0BE00A48844229
:102C600008D101210805FFF7CBFB00214FF48010AC
:102C7000FFF7C6FB10BD00000038014000440040D3
:102C800000480040004C0040005000400246002038
:102C9000B1F5007F00D100BF13880B400BB10120BC
:102CA00000E00020704770B5024600240023002594
:102CB000002040F66A16B14200D100BFC1F34215B0
:102CC00001F01F03012606FA03F3012D02D19689B4
:102CD000334006E0022D02D1168A334001E0968A85
:102CE00033400C12012606FA04F41688344013B15E
:102CF0000CB1012000E0002070BDF0B503460024B7
:102D000000260025002040F66A17B94200D100BF16
:102D10001846C1F3421401F01F06012707FA06F511
:102D2000012C01D10C3004E0022C01D1103000E064
:102D300014301AB107682F43076002E00768AF43F9
:102D40000760F0BD2DE9F04786B005460E46002429
:102D5000A24600BFA1460027B08900B100BF2F46A0
:102D60002C8A4CF6FF700440F08804432C82AC8916
:102D70004EF6F3100440B088318908437189084346
:102D80000443AC81AC8A4FF6FF400440B089044351
:102D9000AC8201A8FFF764FB1F48874202D1DDF82F
:102DA00010A001E0DDF80CA0A88900F4004040B1BB
:102DB0000AEBCA0000EB0A1031684900B0FBF1F8D9
:102DC00007E00AEBCA0000EB0A1031688900B0FB8B
:102DD000F1F86420B8FBF0F004012009642101FB44
:102DE0001089A88900F4004040B1322000EBC900EE
:102DF000B0FBF1F000F00700044308E0322000EBE4
:102E000009106421B0FBF1F000F00F0004432C81A5
:102E100006B0BDE8F0870000003801400146888810
:102E2000C0F308007047C1F308028280704700BFFA
:102E3000FEE7000010B586B00446012144F204000C
:102E4000FFF7EEFA2448FFF7D3FE18208DF817009D
:102E50004FF40070ADF8140003208DF8160005A99A
:102E60001E48FEF78BFD04208DF817000002ADF818
:102E7000140003208DF8160005A91848FEF77EFD02
:102E800025208DF8100001208DF8130003208DF807
:102E900011008DF8120004A8FFF74CFA00940020EE
:102EA000ADF80C000C20ADF80A000020ADF80800C9
:102EB000ADF80600ADF8040069460748FFF742FF89
:102EC000012240F225510448FFF717FF0121024873
:102ED000FFF781FE06B010BD003801400008014038
:102EE00010B586B0044601210420FFF799FA0121AC
:102EF0004804FFF775FA2548FFF77AFE18208DF889
:102F000017000420ADF8140003208DF8160005A961
:102F10001F48FEF733FD04208DF817000820ADF898
:102F2000140005A91A48FEF729FD01940020ADF808
:102F300010000C20ADF80E000020ADF80C00ADF82C
:102F40000A00ADF8080001A91048FFF7FBFE0121B7
:102F50000E48FFF740FE012240F225510B48FFF7D3
:102F6000CCFE4FF4A060FFF71DFA26208DF800007C
:102F700001208DF8030003208DF801008DF8020078
:102F80006846FFF7D7F906B010BD000000440040C6
:102F9000000801400FB4054B10B503A9044A02987C
:102FA00000F04CF910BC5DF814FB0000C13E0008B5
:102FB000280000200FB4084B10B504A902AA0398FA
:102FC00000F03CF9044602A9002000F0CEFC2046A7
:102FD00010BC5DF814FB00006B39000830B528B157
:102FE000144C031F002021680A4605E0084630BD46
:102FF0009A4203D810465268002AF9D1002800D01E
:1030000041680BD00468A3EB0005A54204D11B68FE
:103010001C440346046002E0436000E023603AB1D0
:103020001C68D51AA54203D115682C441C6052684F
:103030005A6030BD6C0800202DE9F04782460F4CE5
:1030400010480D4E0E4F001B4FF0000820F00705F2
:103050004FF0010900221146504600F06BFF002896
:1030600002D1306810B10020BDE8F0873C60C4E9AF
:103070000058C6F80090EDE7700800207C1B002087
:103080006C080020781D002002E008C8121F08C14B
:10309000002AFAD170477047002001E001C1121FD9
:1030A000002AFBD1704700002DE9FF5F82B00021AC
:1030B000DDE90430020DDDF840B0034318D044F6DA
:1030C0001050A2F2FF3242431514119801281FD06C
:1030D000A5EB0B00401C5FEA000A4FF000064E4FC4
:1030E000DFF83891B046504615D5CAF1000413E018
:1030F000119801244AA3012801D16FEA0B0102981B
:10310000119AC0E90031C0E9024206B0BDE8F09F63
:10311000CBF10000DFE704460021404A491842EBAA
:103120000450CDE9001012E0E00707D032463B46DC
:1031300040464946FDF73DFB8046894632463B46C0
:1031400010461946FDF735FB06460F466410002C65
:10315000EAD1DDE90401DDE90023BAF1000F06DA66
:10316000FDF727FB42464B46FDF723FB05E0FDF745
:103170004AFD42464B46FDF746FD04460E460022F8
:10318000284BFDF7E5FB03D84FF0FF30014607E081
:103190000022254B20463146FDF764FAFDF7AEFDCF
:1031A000102409E0002C0ADB0A220023FDF7FEFBB5
:1031B000039B30321A55641E50EA0102F2D1641C9E
:1031C000039AC4F111031444119A012A03D0012275
:1031D00008430DD10AE0084304D000204FF0110B42
:1031E000119072E7A3EB0B056D1E0DE05B4504DD4E
:1031F0004FF0000205F1010504E003DA4FF0000290
:10320000A5F10105002AECD002981199C0E902311C
:10321000C0E9004579E70000000014400000F03FDD
:10322000300000000000F0430000E03F30380A2882
:1032300001D2012070470020704700002DE9FF4FA8
:1032400095B09B468946064600250FE2252877D192
:1032500000242746F84A0121059400E0044316F8AB
:10326000013F203B01FA03F01042F7D130782A28C1
:1032700011D06FF02F033078A0F13002092A16D850
:10328000059A44F0020402EB820203EB420210446E
:10329000761C0590EFE759F8042B0592002A03DA13
:1032A000504244F40054059044F00204761C3078F7
:1032B0002E2816D116F8010F44F004042A280DD048
:1032C0006FF02F023078A0F13003092B09D807EBFB
:1032D000870302EB4303C718761CF3E759F8047B16
:1032E000761C30786C280FD006DC4C2817D0682864
:1032F0000DD06A2814D104E0742810D07A280FD198
:103300000DE044F400140AE044F4801401E044F4B5
:1033100040147278824202D104F58014761C761C27
:10332000307866280BD013DC582877D009DC0028C9
:1033300075D04528F6D04628F4D047281AD19DE10B
:1033400018E0632835D0642879D0652812D195E13A
:10335000702873D008DC6728F1D069286FD06E28F8
:103360000DD06F2806D1B5E073282CD0752875D004
:10337000782874D05A46179990476D1C75E1C4F3AC
:103380000250022809D003280DD0D9F800100428D3
:103390000DD00D6009F1040967E1D9F80010EA17B2
:1033A000C1E90052F6E7D9F800100D80F2E70D7080
:1033B000F0E719F8041B8DF8001000208DF80100CB
:1033C000EA46012003E059F804AB4FF0FF306107F3
:1033D0004FF0000102D40DE008F101018846B94226
:1033E0000FDA8045F8DB1AF808100029F4D108E05C
:1033F00008F1010188468142FADB1AF80810002919
:10340000F6D105985B46A0EB080721463846179A87
:1034100000F094FA284400EB080507E04DE029E1AC
:103420000DE01AF8010B5A4617999047B8F10108B8
:10343000F7D25B4621463846179A13E142E00A224A
:103440000092C4F302524FF0000A022A08D059F841
:1034500004CB032A4FEAEC710AD00DE029E02AE000
:1034600009F1070121F00702F2E802C1914609E0E3
:103470000FFA8CFC4FEAEC71042A03D14FFA8CFC52
:103480004FEAEC71002907DA0A460021DCF1000C52
:1034900061EB02012D2202E0220504D52B228DF8DA
:1034A0000420012203E0E20701D02022F7E7904642
:1034B00059E00A2102E010220DE010214FF0000A2D
:1034C00000910BE010224FF0000A44F0040408279A
:1034D000009203E008224FF0000A0092C4F3025267
:1034E000022A05D059F804CB0021032A08D009E0AC
:1034F00009F1070121F00702F2E802C1914605E057
:103500001FFA8CFC042A01D10CF0FF0C4FF00008CC
:10351000220728D5702806D0009B83F0100353EAB9
:103520000A0305D00EE040228DF80420012208E0B5
:103530005CEA010206D030228DF804208DF80500E7
:1035400002229046009B83F0080353EA0A030AD143
:103550005CEA010201D1620705D530228DF8042012
:103560004FF001087F1E582804D034A003900EA805
:1035700002900DE036A0F9E753466046009AFDF749
:1035800015FA84460398825C0298401E02900270ED
:103590005CEA0100F0D1029806A9081A00F1200A9D
:1035A000600702D524F4803400E00127574502DD8E
:1035B000A7EB0A0000E0002000EB0A01009005984C
:1035C0004144401A0590E00306D45B462146179A11
:1035D000059800F0B3F90544002706E001A85A4613
:1035E000C05D179990476D1C7F1C4745F6DBE003D3
:1035F0000CD55B462146179A059800F09FF90544C3
:1036000004E030205A46179990476D1C0099481ED7
:1036100000900029F5DC08E0029802995A460078EB
:10362000491C0291179990476D1CBAF10001AAF14B
:10363000010AF1DC65E10000092801003031323374
:1036400034353637383961626364656600000000DE
:1036500030313233343536373839414243444546C8
:103660000000000000F058F90544761C307800286E
:103670007FF4ECAD19B02846BDE8F08F620700D4A6
:10368000062709F1070222F0070CFCE80223E146B5
:1036900003F000485FEA080C02D00FF2702C0DE036
:1036A0005FEA045C02D50FF2682C07E05FEAC47C95
:1036B00002D00FF2602C01E0AFF2700C4FF0FF3837
:1036C00023F00043CDF850C065280CD006DC452817
:1036D00009D046281DD047283DD13DE0662818D0A6
:1036E00067287ED138E00021112F01DB112000E096
:1036F000781CCDE9000106A90EA8FFF7D5FCDDE98D
:103700000F010E9A03910021009207F1010A049122
:103710004DE04FF000400097CDE9011006A90EA83A
:10372000FFF7C2FCDDE90F0203920E9B1199002204
:10373000DDF80CA00093049211B9791C00EB010A8A
:10374000B7EB0A0004D4C0F1FF3007F1010A04907E
:10375000AAEB0700019044E0012F00DA01270021C5
:10376000112F01DD112000E03846CDE9000106A946
:103770000EA8FFF799FCDDE90F010E9A03910021D5
:1037800004910092BA4621070CD40399514500DAFE
:103790008A46BAF1010F05DD009AAAF10101515CD8
:1037A000302908D0B84202DA10F1040F06DA0121FC
:1037B000CDE9011015E0AAF10101E9E7002805DCD7
:1037C000049901440491AAEB000102E0411C514517
:1037D00000DD8A460499401A401C01904FF00040D9
:1037E0000290200704D40198504501DBCDF80480F5
:1037F00000208DF84F0002980DF14F07B0F1004FF7
:1038000025D02B200E9002984FF0020800280CDAE9
:10381000404202902D200E9007E00A210298FDF709
:10382000AFF83031029007F8011DB8F10001A8F19E
:103830000108F2DC02980028EFD1791E0E9808707A
:10384000307800F0200040F0450007F8020D12A883
:10385000C01B00F107081498007800B1012000EBAC
:103860000A01019801EBE07105984144401A401E9D
:103870000590E00306D45B462146179A059800F0B0
:103880005DF805441498007818B15A461799904786
:103890006D1CE00324D55B462146179A059800F07D
:1038A0004DF805441CE00498002807DBDDE903011E
:1038B000884203DD0098405C179901E01799302099
:1038C0005A469047049805F10105401C0490019860
:1038D000401E019004D12E205A46179990476D1C26
:1038E000BAF10001AAF1010ADDDC05E017F8010BCD
:1038F0005A46179990476D1CB8F10001A8F10108CC
:10390000F4DC5B462146179A0598ABE62D000000D3
:103910002B000000200000002DE9F04104460025A6
:103920001E461746880404D405E039462020B047D7
:103930006D1C641EF9D52846BDE8F0812DE9F041E3
:10394000044600251E469046C80301D5302700E0F6
:103950002027880404D505E041463846B0476D1C51
:10396000641EF9D52846BDE8F0810A68531C0B6037
:10397000107070472DE9F041ADF5806D04464FF4AD
:1039800080616846FCF769FC2046FCF78DFC8046A8
:1039900000250026002700202FE0215C7B2909D18B
:1039A000761C022E19D10127222329466D1C0DF801
:1039B000013012E0215C7D290FD1761E022E0CDA37
:1039C0005FB10027235C29466D1C0DF801302223CE
:1039D00029466D1C0DF801300EE0215C222905D12D
:1039E00027B15C2329466D1C0DF80130235C294664
:1039F0006D1C0DF8013000BF401C4045CDDB694611
:103A00002046FCF766FC0DF5806DBDE8F0810146AF
:103A100009B1086808B90020704719B1D1E901203F
:103A2000904201D30846F7E702E08868401C8860AE
:103A300041B1D1E90120904204D28A680868805CD3
:103A40002028F2DDD1E90120904202D18868401E91
:103A500088600846E0E7000070B50446002526E0CF
:103A60002568A08900F4807020B9A06810B1A06812
:103A7000FFF7F2FFA08900F4807038B9206928B1FF
:103A80000C4A20695168884700202061A08900F411
:103A9000007038B9606A28B1064A606A5168884780
:103AA0000020606203484168204688472C46002C6D
:103AB000D6D170BD1C000020024800680149496849
:103AC000084470471400002070B504460D460022DB
:103AD0002946204600F004FA70BD70B5044628203F
:103AE0002168884705461DB128212846FCF7B5FB0B
:103AF000284670BD10B5044600221146204600F04D
:103B00006BF810BD2DE9F0478AB004460E46154605
:103B100098461C2103A8FCF7A0FB002700202C4995
:103B20000860486004B106B932E0039404960020AE
:103B30000590284A07CA07AB07C32648FFF7CDFF01
:103B4000074607B924E003A800F0FCFF8246FFF710
:103B50005EFF81464946384600F0A8FD00B917E0EF
:103B6000B8F1000F0BD003A8FFF751FFDDE90410F7
:103B7000884203D205990398405C00B108E01DB16A
:103B8000059903980844286038460AB0BDE8F087D4
:103B900017B13846FFF760FFC4B1019400200290CE
:103BA000DDE90410884202D20598029004E00498EE
:103BB00010B10498401E02901DB1DDE901010844D6
:103BC00028600348DDE9011206C000BF0020DCE7E1
:103BD000140000201C0000202DE9F04104460D4691
:103BE000164614B90020BDE8F0812046FCF75CFBC6
:103BF000471C33462A4639462046FFF783FFF2E743
:103C000070B504460D4604B10DB9012070BDAC423B
:103C100001D10020FAE705E0207808B90020F5E797
:103C2000641C6D1C2078FCF7AEFA06462878FCF779
:103C3000AAFA8642F0D02078FCF7A5FA0646287842
:103C4000FCF7A1FA301AE1E730B591B004460D4611
:103C50002B46224604A101A8FFF7ACF908A101A850
:103C600000F0F4F811B030BD41542B43574A415095
:103C70003D222573222C222573220D0A000000000C
:103C80005749464920434F4E4E4543544544000052
:103C900010B502A102A000F0D9F810BD4F4B0000F2
:103CA00041542B43574D4F44453D310D0A00000010
:103CB00030B5A1B004460D462B46224604A101A80A
:103CC000FFF778F909A101A800F0C0F821B030BDD4
:103CD00041542B4D515454434F4E4E3D302C2225D0
:103CE00073222C25642C300D0A0000004F4B00007D
:103CF00010B5A0B00446224604A16846FFF75AF961
:103D000007A1684600F0A2F820B010BD41542B4D29
:103D1000515454434F4E4E4346473D25730D0A00C0
:103D20004F4B000030B5ADF5017D04460D462B46E6
:103D3000224605A101A8FFF73DF90BA101A800F05B
:103D400085F80DF5017D30BD41542B4D5154545033
:103D500055423D302C222573222C222573222C30F3
:103D60002C300D0A000000004F4B000010B5A0B031
:103D70000446224604A16846FFF71CF908A16846DC
:103D800000F064F820B010BD41542B4D51545453F1
:103D900055423D302C222573222C300D0A000000A4
:103DA0004F4B000010B5ADF5027D0446224605A13B
:103DB00001A8FFF7FFF808A101A800F047F80DF5EA
:103DC000027D10BD41542B4D51545455534552431F
:103DD00046473D25730D0A004F4B000010B588B0D3
:103DE0000446224604A16846FFF7E4F806A16846A7
:103DF00000F02CF808B010BD41542B50494E473DFF
:103E000025730D0A000000004F4B000010B502A101
:103E100002A000F01BF810BD4F4B000041540D0AEA
:103E20000000000010B580210548FCF716FA4FF499
:103E300000610448FCF711FA00200349088010BD16
:103E4000CC120020CC0A00203A00002070B50446B5
:103E50000D46FA26FFF7E6FF2046FEF751FE0CE07E
:103E600000F014F830B929460748FCF701FA08B108
:103E7000002070BD0A20FDF730FB301EA6F10101C5
:103E8000CEB2EDD10120F4E7CC1200200A48008820
:103E900008B9012070470848008808490988884205
:103EA00003D1002004490880F4E70348008803494F
:103EB00008800120EEE700003A0000203C000020CE
:103EC00000BF054A128802F04002002AF9D0C2B2AF
:103ED000014B1B1D1A807047003801402E2070478F
:103EE0002DE9F04105460E461746002405B116B9E6
:103EF0000020BDE8F081AC685FB100E024688CB1BF
:103F0000606A78B13046616AFCF7D5F90028F5D1CE
:103F100008E000E024682CB13046616AFFF770FECB
:103F20000028F7D10CB1606A08B90020E1E720460B
:103F3000DFE700002DE9F0410B3020F00706104DBF
:103F400019E02068B04215D3B0420AD9871B201D62
:103F5000D4F80480FCF768F9A019C0E9007828605B
:103F600004E060682860201DFCF75EF9201D2660D3
:103F7000BDE8F081251D2C68002CE2D10020F7E778
:103F80006C08002000B5ADF5017D074B07A20EA11E
:103F900001A8FFF70FF8FFF745FF01A8FEF7B0FDF6
:103FA0000DF5017D00BD00004C4E0008323232326A
:103FB0003232372F323232323232375F553151346A
:103FC00042325A350000000041542B4D5154545098
:103FD00055423D302C222573222C222573222C3071
:103FE0002C300D0A000000000EB54FF4E130FEF752
:103FF00021FF4FF4E130FEF773FF3948394908607B
:1040000000F008FE00F0CAFD00F07AFDFDF7A6FA08
:10401000FEF738F83448FDF743FA00BF4FF4FA7062
:10402000FDF75BFA314932A0FEF7B4FF2F4800F0EC
:10403000DBFB00BF4FF400612C48FCF70EF90020B9
:104040002C4908802C4827490860FEF78CFBFDF7B7
:104050009FFD00BF2948007820B1FFF793FF0020A3
:1040600026490870FDF7C0FD40F2E330FDF735FA50
:104070002348007801281DD1FCF704FFD0B121A00E
:10408000FEF788FF0120274908602749C1F8BC01D5
:10409000C003019000208DF8080008208DF8090069
:1040A00001208DF80A0001A8FDF7FEFB002014494D
:1040B000087000BFFDF712F90B4840790A490979E9
:1040C000094AD278CDE900210290074883784278E6
:1040D000017816A0FEF75EFFFDF76CFDBAE7000061
:1040E00031290008640800205C080020CC0A002068
:1040F0002573000036000020092A00085708002018
:104100005608002074657374436F6D706172655456
:10411000696D65205375636365737366756C210DF6
:104120000A000000B48121420080214225642D252F
:10413000642D2564202025643A25643A25640D0AFF
:10414000000000002DE9F04180460C4600250027C4
:10415000E068B0F57A7F02D30020BDE8F081E06826
:10416000401CE060A1682068405C5B2800D05FE0F4
:10417000A068401CA0602046FFF749FC4CB1D4E980
:104180000110884205D2A1682068405C5D2800D1FA
:104190003FE01CB1D4E90110884203D3A068401E5F
:1041A000A06045E0A068401EA06000BF04F11000C0
:1041B000FFF793FC064606B93AE015B9354637468F
:1041C00002E03E6077603746A068401CA060204651
:1041D000FFF71DFC2146384600F068FA00B927E0D9
:1041E0002046FFF714FC44B1D4E90110884204D200
:1041F000A1682068405C2C28D8D044B1D4E90110D3
:10420000884204D2A1682068405C5D2800D00FE09D
:1042100000BFE068401EE06005B16F602020C8F874
:104220000C00C8F80850A068401CA060012094E76A
:1042300015B12846FFF710FC00208EE70246002348
:10424000002100BF23E0505C302806DB505C392899
:1042500003DC505C3038034415E0505C412806DB39
:10426000505C462803DC505C373803440BE0505C5C
:10427000612806DB505C662803DC505C5738034439
:1042800001E000207047032900D21B01491C0429CA
:10429000D9D31846F6E700002DE9F04391B08046E7
:1042A0000C4600BF00201090FFF718FE8146002545
:1042B0000CB1206818B9002011B0BDE8F0830025CA
:1042C0003CE0A16820680844405D342820D00ADC26
:1042D000A0F12B0009282ED2DFE800F0202D212AA2
:1042E0002D1617181900382816D006DC352810D0DE
:1042F00036280FD037281ED10DE039280DD045289B
:104300000FD0652817D10BE000BF00BF00BF00BF72
:1043100000BF00BF00BF00BF00BF00BF00BF00BFA5
:1043200000BFA16820680844405D0DF8050003E067
:104330000DF8059000E00AE000BF6D1C3F2D05D28E
:1043400024B1A068284461688842BAD300BF002025
:104350000DF8050010A9684600F012FC06460F464D
:1043600068461099884201D10020A5E7C8E9066790
:10437000144A154B30463946FCF7EAFA04D86FF078
:104380000040C8F8140011E00022104B30463946B6
:10439000FCF7C6FA04D84FF00040C8F8140005E056
:1043A00030463946FCF777FAC8F814000820C8F8F8
:1043B0000C00A0686A461099891A0844A060012080
:1043C0007AE700000000C0FFFFFFDF410000E0C10E
:1043D0002DE9F04180460C4600260025E068B0F546
:1043E0007A7F02D30020BDE8F081E068401CE060E5
:1043F00044B1D4E90110884204D2A1682068405C2D
:104400007B2800D084E0A068401CA0602046FFF715
:10441000FEFA4CB1D4E90110884205D2A1682068A7
:10442000405C7D2800D164E01CB1D4E901108842D1
:1044300003D3A068401EA0606AE0A068401EA06090
:1044400000BF04F11000FFF748FB074607B95FE023
:1044500016B93E463D4602E02F607D603D4624B1E0
:10446000A068401C6168884200D351E0A068401CED
:10447000A0602046FFF7CBFA2146284600F04EF810
:1044800000B945E02046FFF7C2FA286968620020BB
:10449000286144B1D4E90110884204D2A16820689F
:1044A000405C3A2800D033E0A068401CA060204661
:1044B000FFF7ADFA2146284600F0F8F800B927E0EA
:1044C0002046FFF7A4FA44B1D4E90110884204D28F
:1044D000A1682068405C2C28B3D044B1D4E9011015
:1044E000884204D2A1682068405C7D2800D00FE09B
:1044F00000BFE068401EE06006B175604020C8F86B
:104500000C00C8F80860A068401CA06001206AE7A1
:1045100016B13046FFF7A0FA002064E72DE9F84F06
:1045200080460C46A16820680844461CA1682068A3
:104530000844451C002000900027A1682068405CCA
:10454000222800D0A6E04FF0000AD1460DE02878DE
:104550005C2809D1681C2168401A6168884200D330
:1045600098E009F101096D1C6D1C2068281A61682A
:10457000884202D228782228E9D12068281A616866
:10458000884202D22878222800D083E0A1682068DF
:104590000844281AA0EB090A0AF10100216988479A
:1045A000074607B976E0009761E030785C2807D0CD
:1045B00016F8010B009908700098401C009056E016
:1045C0004FF00209A81B012800DA63E07078662822
:1045D00019D008DC222832D02F2832D05C282FD0E6
:1045E000622840D108E06E2814D0722819D07428AF
:1045F0001ED0752837D12BE008200099087000984C
:10460000401C009030E00C20009908700098401C7D
:10461000009029E00A20009908700098401C009042
:1046200022E00D20009908700098401C00901BE0CB
:104630000920009908700098401C009014E000BF09
:1046400000BF7078009908700098401C00900BE043
:104650006A462946304600F019FB8146B9F1000F41
:1046600000D117E000E015E000BF4E4400BFAE42AD
:104670009BD30020009908701020C8F80C00C8F8DF
:1046800010702068281AA060A068401CA06001205B
:10469000BDE8F88F1FB1384661698847002716B119
:1046A0002068301AA0600020F2E7000070B50546CF
:1046B0000C460CB1206808B9002070BD9CB1A06800
:1046C000001D616888420ED8A268216888180422FB
:1046D0003FA1FBF707FE30B90420E860A068001D89
:1046E000A0600120E9E79CB1A068401D6168884294
:1046F0000ED8A26821688818052237A1FBF7F2FDC1
:1047000030B90120E860A068401DA0600120D4E716
:10471000ACB1A068001D6168884210D8A268216809
:10472000881804222EA1FBF7DDFD40B90220E860C5
:1047300001206861A068001DA0600120BDE76CB188
:10474000D4E90110884209D2A1682068405C22287F
:1047500004D121462846FFF7E1FEAEE7BCB1D4E91B
:104760000110884213D2A1682068405C2D2809D02E
:10477000A1682068405C302809DBA1682068405CA3
:10478000392804DC21462846FFF786FD95E76CB101
:10479000D4E90110884209D2A1682068405C5B28F6
:1047A00004D121462846FFF7CDFC86E76CB1D4E959
:1047B0000110884209D2A1682068405C7B2804D19E
:1047C00021462846FFF704FE77E7002075E7000042
:1047D0006E756C6C0000000066616C736500000013
:1047E00074727565000000002DE9F14FC8B059A141
:1047F0004898FBF73DFD4690469828B956A0FEF72D
:10480000C9FB49B0BDE8F08F4698401C45907B211C
:104810004598FBF73FFD04461CB95E48FEF7BAFB1E
:10482000EFE72046FFF7A6F821465BA0FEF7B2FBB4
:104830002046FFF75FF98246BAF1000F0AD1FFF771
:104840003BF98146494656A0FEF7A4FB5046FFF7C8
:1048500003F9D6E758A15046FFF736F9834658A129
:104860005046FFF731F9054657A15046FFF72CF99E
:10487000449057A15046FFF727F9439056A1504660
:10488000FFF722F90646BBF1000F5DD0002D5BD08B
:104890004498002858D04398002855D0002E53D073
:1048A0004FA0DBF81410FEF775FBD5E906010246B0
:1048B0000B46CDE900014DA0FEF76CFB4498016961
:1048C0004EA0FEF767FB439801694FA0FEF762FB1D
:1048D00050A0FEF75FFBD5E906211046FBF7FAFF73
:1048E0000746884638464146FCF780FB51A103A89D
:1048F0003269FEF75FFB5046FFF7AEF803A8FFF7FB
:10490000F9F80290029850B9FFF7D6F801460190E5
:1049100049A0FEF73FFB0298FFF79EF871E74EA112
:104920000298FFF7D1F88146B9F1000F05D04CA0ED
:10493000D9F81010FEF72EFB02E04CA0FEF72AFB80
:104940000298FFF789F800BF4CA0FEF723FB00BFD9
:1049500057E700007D000000556E61626C652074B1
:104960006F2066696E642074686520656E642070CF
:104970006F736974696F6E206F6620746865206656
:104980006972737420736574206F6620646174614A
:104990000D0A0000044E00080D0A25730D0A0000E0
:1049A0004A534F4E207061727365206572726F7248
:1049B0003A2025730A000000547970650000000059
:1049C00054696D65000000004D7367496400000084
:1049D00053656E64496400005061796C6F616400D6
:1049E000547970653A2025640A00000054696D65A9
:1049F0003A20252E6C6C660A000000004D73674952
:104A0000643A2025730A000053656E6449643A20B5
:104A100025730A0048656172744265617420537998
:104A20006E20537563636573736663756C210D0A3D
:104A300000000000257300005061796C6F616420F4
:104A40004A534F4E207061727365206572726F72A7
:104A50003A2025730A00000043747849640000007E
:104A600043747849643A2025730A00004374786CD3
:104A700064206572726F72210D0A00000D0A506188
:104A80007273696E6720636F6D706C657465642105
:104A90000D0A00002DE9F04704008A4616D054F8AC
:104AA000047CD4F800903E1F564500D95646204657
:104AB000FEF794FA05468846324621465046FFF7EF
:104AC00039FA40B1C0F80090BDE8F087BDE8F04782
:104AD0000846FEF7B1BA44E9017955B129686A1868
:104AE000211F8A4202D9611B091F2960C5F8048071
:104AF000EAE7024AC2F80080E6E700006C080020FE
:104B000010B510211C20FDF70DF810211D20FDF718
:104B100009F810211E20FDF705F810211F20FDF7D0
:104B200001F80120054908600549C1F8B4010349AD
:104B3000083108600249C1F8BC0110BDB0812142B2
:104B40000080214210B504461CB1206808B1A0685D
:104B500008B1002010BD7CB1A068001D61688842CA
:104B60000AD2A26821688818032204A1FBF7BAFBC5
:104B700010B9A068C01CA0602046EBE7EFBBBF00E7
:104B800000B583B00A460021CDE900110146684610
:104B9000FBF7A9FFDDE9000103B000BD0EB501215F
:104BA0000D20FDF73DFC01211948FCF773FF48215A
:104BB0000F20FCF7B7FF48211320FCF7B3FF482173
:104BC0001420FCF7AFFF0F210020FCF7B7FE4FF4D5
:104BD0000040019000208DF8080008208DF80900A1
:104BE00001208DF80A0001A8FCF75EFE4FF4A060DA
:104BF000FDF7D8FB28208DF8000001208DF8030078
:104C00008DF801008DF802006846FDF793FB0EBD9C
:104C1000000230001FB501210420FDF7E1FB002058
:104C2000ADF80A00ADF8060048F69F40ADF8080060
:104C300040F2CF70ADF8040000208DF80C0001A9FF
:104C40001148FDF7D5FD01210F48FDF769FD01224F
:104C500011460D48FDF7C2FD4FF4A060FDF7A2FB21
:104C60001E208DF8000002208DF8010001208DF833
:104C700002008DF803006846FDF75CFB0021024846
:104C8000FDF754FD1FBD0000000800402DE9FF5F47
:104C900080468946154600240026C246002003901F
:104CA000834602900190A9EB0A00062800DA81E011
:104CB0000AF10200FFF7C2FA0646B6F55C4F03D3CD
:104CC000B6F5604F00D275E0B6F5584F29D3B6F56A
:104CD0005C4F26D20AF10607002000900C200290BB
:104CE000A9EB0700062800DA64E038785C2802D1D6
:104CF0007878752800D05DE0B81CFFF79FFA009027
:104D00000098B0F55C4F03D30098B0F5604F00D326
:104D100050E0C6F30901009861F39F2000F580344C
:104D200002E0062002903446802C02D2012003903B
:104D300018E0B4F5006F04D202200390C020019067
:104D400010E0B4F5803F04D203200390E0200190EE
:104D500008E0B4F5881F04D204200390F0200190ED
:104D600000E027E00398401E00F0FF0B0BE004F08A
:104D7000BF0040F08000296801F80B00A409ABF1E6
:104D8000010000F0FF0BBBF1000FF0DC03980128DD
:104D900004DD019820432968087003E004F07F00D7
:104DA000296808702968039808442860029804B0AC
:104DB000BDE8F09F0020FAE71F1D1F1E1F1E1F1FCA
:104DC0001E1F1E1FDDDDDDDDDCBBBBDDDDDDDDDD52
:104DD000DDDDDDDD98888888888888887777777733
:104DE00077888888855555566666666666666666FF
:104DF00066688888833333322222222222222222AA
:104E00002228888D556E61626C6520746F206669FA
:104E10006E6420746865207374617274696E6720B3
:104E2000706F736974696F6E206F66207468652097
:104E30007365636F6E6420736574206F66204A53D8
:104E40004F4E20646174610D0A0000007B5C2254A7
:104E50007970655C223A305C2C5C2254696D655C2B
:104E6000223A31323738375C2C5C224D7367496403
:104E70005C223A5C223766393163356139663038F5
:104E80003739393934643935613432653931396209
:104E900035373461665C225C2C5C2253656E644954
:104EA000645C223A5C22323232323232375F553120
:104EB000513442325A355C227D000000DC4E00083D
:104EC0000000002074080000280E0008404F000871
:104ED000740800200419000098300008412D0102D8
:104EE0000304048009060708090204060813393080
:104EF0001408DD2F1408954A7914E1002DFF7B2258
:104F00004374784964223A2237663931633561390E
:104F10006630383739393934643935613432653976
:104F20003139623537346166227D01FF01FF01FFAF
:104F300001FF01FF01FF01F9071218021C171E05EE
:04000005080000ED02
:00000001FF
