:020000040800F2
:10000000F018002001010008AD290008A91B000814
:10001000F5270008290E000825360008000000001A
:10002000000000000000000000000000692C000833
:100030009914000800000000A12A0008BB2E000847
:100040001B0100081B0100081B0100081B01000820
:100050001B0100081B0100081B0100081B01000810
:100060001B0100081B0100081B0100081B01000800
:100070001B0100081B0100081B0100081B010008F0
:100080001B0100081B0100081B0100081B010008E0
:100090001B0100081B0100081B0100081B010008D0
:1000A0001B0100081B0100081B0100081B010008C0
:1000B0001D2F00083D2F0008612F00081B010008BC
:1000C0001B0100081B0100081B0100081B010008A0
:1000D0001B010008CD310008553200081B01000843
:1000E000251800081B0100081B010008DFF80CD0D0
:1000F00000F038FE00480047394A0008F018002098
:100100000648804706480047FEE7FEE7FEE7FEE7B1
:10011000FEE7FEE7FEE7FEE7FEE7FEE7BD2E00088E
:10012000ED0000082DE9F0410024061B254671F181
:10013000000605DA01240027D0EB070067EB010178
:10014000161E73F1000605DA0027D2EB070201251F
:1001500067EB030300F02AFC86460E4617469C46D2
:10016000AC4204D00025D0EB050E65EB010624B1AE
:100170000020D2EB000760EB030C704631463A4694
:100180006346BDE8F081A0F14101192900D8203073
:1001900070470000014610B509683C22B1FBF2F33C
:1001A00002FB1313B1FBF2F11D480360B1FBF2F344
:1001B00002FB1313B1FBF2F118224360B1FBF2F31F
:1001C00002FB1313B1FBF2F183600A1D0723B2FB9C
:1001D000F3F403FB142282618A0040F2B55102F667
:1001E0006C32B2FBF1F344334361B2FBF1F301FB38
:1001F00013218908C1613B2903D3027D920700D0F6
:10020000491C0022074C13460261E25C8A4203D873
:10021000891A5B1C0361F8E7491CC16010BD00002E
:10022000C41200205C56000840EA01039B0703D07B
:1002300009E008C9121F08C0042AFAD203E011F825
:10024000013B00F8013B521EF9D27047D2B201E0E7
:1002500000F8012B491EFBD270470022F6E710B5CB
:1002600013460A4604461946FFF7F0FF204610BD24
:1002700030B505462A460B4612F8010B13F8014B20
:1002800008B1A042F8D01CB1002802D06D1CF1E7E3
:10029000284630BDCAB2401E10F8011F8A4202D063
:1002A0000029F9D100207047421C10F8011B0029D9
:1002B000FBD1801A704710B5002200E0521C835C0D
:1002C0008C5CA34201D1002BF8D1D8B2E1B2401A24
:1002D00010BD034611F8012B00F8012B002AF9D1BB
:1002E0001846704730B505460020034600E05B1C09
:1002F000934205D2EC5CC85C201A01D1002CF6D1E7
:1003000030BD00002DE9FF4F087883B09946FF28E3
:1003100005D0491C2D2804D00024002008E000202E
:100320000BE00124F9E700EB800003EB4000491CDF
:100330000B78FF2BF7D104B14042002302931478CD
:1003400019461D462D2C01D02B2C04D1521C2D2CCE
:1003500013D000240294AA461478FF2C0FD00A254B
:10036000A3FB057801FB05814FF0000C03FB0C118A
:10037000521CE3194AEB0101EEE70124EAE781444C
:1003800053EA010002D019F5C87F06DA039800216C
:10039000C0E9001107B0BDE8F08F0025AE4E2F4632
:1003A000DFF8B882184600F09DFCCDE90001B9F1F4
:1003B000000002DAC9F1000400E004460023A74A65
:1003C0001AEB030B42EB045A12E0E00707D02A466F
:1003D00033463846414600F0ECF9074688462A463F
:1003E00033461046194600F0E4F905460E466410FF
:1003F000002CEAD1DDE90001B9F1000F5A4653465D
:1004000006DA00F000FC3A46434600F0FCFB05E04B
:1004100000F0CFF93A46434600F0CBF9029A0AB110
:1004200081F00041039AC2E90001B3E72DE9FF4FD3
:100430001F468DB0D7E901464FF0FF382E204546C4
:100440004FF000090B90B9696D1C0E988847396A06
:10045000824688470028F6D1BAF1FF3F0AD024F43B
:10046000D064002E11DDBAF12B0F08D0BAF12D0F98
:100470000BD102E0404611B08DE744F48064B969C5
:100480006D1C0E9888478246761E6946600501D528
:100490002D2000E02B208DF8000001F1010B0DF163
:1004A000200809E0B9696D1C0E98884782460F98AC
:1004B00044F40074761E0560002E02DDBAF1300FA0
:1004C000F0D00B998A453ED144F0800406E00F99A4
:1004D000681CA9F1010944F400740860B9696D1C35
:1004E000761E0E98884782463028F0D02BE00B9974
:1004F0008A4505D1200603D444F08004761E18E016
:10050000504603F035FB08B30DF11301761E44F499
:1005100000748B4508D2AAF130000BF8010B2006BD
:1005200007D5A9F1010003E0200602D409F101007A
:100530008146A00502D50F99681C0860B9696D1C39
:100540000E9888478246002ED1DC53E0002E51DD04
:10055000BAF1650F02D0BAF1450F4BD1A00549D5CC
:10056000B9696D1C24F44074761E0E988847824643
:10057000002E0CDD2B2804D0BAF12D0F07D144F446
:100580008074B9696D1C0E9888478246761EE00516
:1005900001D52D2100E02B2108F8011BCDF82C807E
:1005A00021E00DF12901761E44F4007488450CD237
:1005B000AAF1300010F0FF0088F8000002D10B997A
:1005C000884509D908F1010806E0E00501D524486D
:1005D00001E042F20F708146B9696D1C0E988847A0
:1005E00082460F980560002E04DD504603F0C0FAE5
:1005F0000028D6D1F9690E988847FF208BF80000B3
:1006000088F800000020069007904B466A4608A92B
:1006100006A8FFF777FEA00502D46FF001002AE7D5
:1006200014F0240F0AD0E00714D1DDE9061238686F
:10063000031D3B600068C0E900120BE0DDE9060124
:1006400000F074FB0146E00704D13868021D3A60EF
:100650000068016028460EE7000014400000F03FEB
:10066000F1D8FFFF2DE9FE4F804681EA0300C00F5D
:100670000C46009021F0004123F00045B8EB020049
:10068000A94105D24046214690461C460B460246EB
:1006900023F00040104347D0270DC7F30A00C3F3EF
:1006A0000A510290401A019040286BDAC3F31300FC
:1006B00040F4801B0098924620B10023D2EB030A3D
:1006C00063EB0B0B01985946C0F14002504600F015
:1006D0009EF906460D4650465946019A00F0B6F975
:1006E00010EB08006141002487EA115284EAE773A5
:1006F0001A4340D0009A62B3019A012A4FEA075286
:1007000015DC001B61EB02014FF0004202EA0752C8
:10071000CDE90042001C41F5801132462B4600F025
:1007200024FA03B0BDE8F08F40462146F9E7001BEC
:1007300061EB0201001C41F5801300185B41201899
:10074000A2F5001747EB030140EAD570B6196D41D9
:1007500011E06D084FEA360645EAC0754FEA0752C8
:10076000001B61EB0201001C41F5801149084FEAB2
:1007700030000019514132462B4603B0BDE8F04F1E
:1007800000F0E4B90098012240000023D0EB0202FF
:1007900063EBE073009821464FEAE074B8EB000089
:1007A00061EB0401E9E783F000435BE781F000417E
:1007B00058E72DE9FE4F81EA030404F0004421F0DC
:1007C000004100944FF0000B23F0004350EA010475
:1007D0005ED052EA03045BD0C3F30A54C1F30A5556
:1007E0002C44A4F2F3340194A0FB0254C1F313018E
:1007F00041F48011C3F3130343F4801301FB02445B
:1008000000FB034E840A970A44EA815447EA83575F
:10081000A4FB076802958D0A05FB07854FEA932C18
:1008200004FB0C542705029D4FEA065847EA163789
:10083000B5EB08056EEB070C870E920E47EA8117A1
:1008400042EA8312A7FB0201B6EB0B0164EB000442
:100850002B0D43EA0C335E1844EB1C50DA4651462C
:10086000E7FB0201C5F313044FEA0B3343EA1453C9
:100870004FEA0432019C43EA0603A4F10C040294FB
:10088000009CCDE900B400F070F903B0BDE8F08F32
:1008900000200146F9E770B5C1F30A5201F00045A6
:1008A0000024C1F3130140F2FF3341F480119A4256
:1008B00001DA002070BD40F233439A42A2F2334283
:1008C00003DC524200F0B2F800E090402C43F1D03B
:1008D000404270BD70B5C1F30A5201F000450024DA
:1008E000C1F3130140F2FF3341F480119A4202DA5E
:1008F0000020014670BD40F233439A42A2F23342D7
:1009000003DC524200F092F801E000F080F82C4342
:10091000F0D00023D0EB030063EB010170BD0000B9
:1009200030B5041E71F1000404DB4FF00044404276
:1009300064EB0101141E73F1000405DB1C464FF04B
:100940000043524263EB04038B4208BF824230BD36
:1009500030B5041E71F1000404DB4FF00044404246
:1009600064EB0101141E73F1000405DB1C464FF01B
:100970000043524263EB0403994208BF904230BDEA
:1009800030B50B46014600202022012409E021FA5F
:1009900002F59D4205D303FA02F5491B04FA02F55C
:1009A0002844151EA2F10102F1DC30BD2DE9F05FF3
:1009B0000546002092469B468846064681464024CE
:1009C0001BE0284641464746224600F02FF8534692
:1009D0005A46C01A914110D311461846224600F0DB
:1009E00016F82D1A67EB01084F4622460120002118
:1009F00000F00DF817EB00094E41201EA4F1010490
:100A0000DFDC484631462A464346BDE8F09F202AAF
:100A100004DB203A00FA02F1002070479140C2F155
:100A2000200320FA03F3194390407047202A04DB87
:100A3000203A21FA02F00021704721FA02F3D04057
:100A4000C2F120029140084319467047202A06DB74
:100A5000CB17203A41FA02F043EAE07306E041FA8C
:100A600002F3D040C2F1200291400843194670477A
:100A7000426842B1016811F8013B23B1521EC0E93E
:100A80000012184670470121C160881E70474268F5
:100A90005AB1C368016843B983688B4205D0491EC7
:100AA000521CC0E90012002070474FF0FF30704721
:100AB0000FB4002300B589B00CA900910B996FF019
:100AC0000042CB601E4B06931E4B07930423CDE9D7
:100AD00001321D4A089202466B460020FFF7A6FC31
:100AE00009B05DF814FB70B586B006464FF0FF30D4
:100AF0000091CDE90101002015460C4604903246D4
:100B0000694604A8FFF7D4FF02460498211825B1CE
:100B100008B1084600E020462860049800280DD05F
:100B2000002A02DD0098884208D0081B0094CDE915
:100B300001043246694604A8FFF7BAFF06B070BD4B
:100B4000710A00088F0A0008890D000810B5141EEC
:100B500073F1000408DA401C41F1000192185B4176
:100B60001A4301D120F0010010BD2DE9F04D92464D
:100B70009B4611B1B1FA81F202E0B0FA80F2203264
:100B80009046FFF744FF04460F4640EA0A0041EA58
:100B90000B0153465A46084313D0114653EA01004D
:100BA00019D0C8F140025046FFF740FF05460E46F7
:100BB000504659464246FFF72AFF084305D0012018
:100BC00004E020463946BDE8F08D0020054346EAA2
:100BD000E0762C4337430A986305E40AA0EB08004B
:100BE0000022FD0A44EA47540A3002D5002001469B
:100BF000E9E7010510196941DDE908450019694176
:100C0000BDE8F04DA2E72DE9F04D81EA030404F0C0
:100C1000004B21F0004514464FF0000A23F000413C
:100C200050EA050220D054EA01021DD0C5F30A574C
:100C30000246C5F31303C1F31300C1F30A5640F48F
:100C4000801543F48013A7EB0608101BD64608F264
:100C5000FD3873EB050002D308F1010801E092189A
:100C60005B41B8F1000F03DA00200146BDE8F08DCA
:100C700000204FF48011064684460EE0171B73EBEC
:100C8000050705D3121B63EB050306434CEA010C71
:100C900049084FEA300092185B4150EA0107EDD154
:100CA00052EA030012D082EA040083EA05010843F5
:100CB00005D0101BAB4106D20122002306E0002222
:100CC0004FF0004302E06FF0010253101AEB0600F0
:100CD0004CEB085110EB0A0041EB0B01BDE8F04D65
:100CE000FFF734BF0EB540F2334202920022CDE945
:100CF00000221346FFF739FF03B000BDC1F30A52CB
:100D0000C1F3130140F2FF3341F480119A4202DA39
:100D100000200146704740F233439A42A2F2334228
:100D200002DC5242FFF782BEFFF771BE01F00043C2
:100D300030B421F0004150EA010206D00A0DA2F5BC
:100D40006072C1F31301002A02DC30BC002070473E
:100D5000440F44EAC104C100E01830BC00EBC250AB
:100D600000F017B8064C074D06E0E06840F00103BC
:100D700094E8070098471034AC42F6D3FFF7BAF96D
:100D80001857000838570008C0B24FF4F05100F06F
:100D900037B80029A8BF7047401C490008BF20F0A1
:100DA0000100704710B4B0FA80FC00FA0CF050EA71
:100DB000010404BF10BC704749B1CCF1200421FAF2
:100DC00004F411FA0CF118BF012121430843A3EBED
:100DD0000C01CB1D4FEA00614FEA102042BF0020FA
:100DE00010BC704700EBC35010440029A4BF10BCD6
:100DF0007047401C490008BF20F0010010BC70473C
:100E00007F2801D9002208E0064A02EB5002C00701
:100E1000127800D1120902F00F0201209040084020
:100E2000704700006856000800BFFEE710B508A133
:100E30000B48FFF71DFA20B90AA10948FFF718FA75
:100E400020B103F073FC08B901F08AFB10BD00006B
:100E50005749464920434F4E4E45435445440000B0
:100E6000C40200205749464920474F5420495000AA
:100E700070B542A002F030FD414802784148017847
:100E800041A002F029FD3E4842783E48417847A003
:100E900002F022FD3A4882783A4881784CA002F06C
:100EA0001BFD3748C2783748C17852A002F014FDC4
:100EB000334802793348017957A002F00DFD3048DC
:100EC0004279304841795DA002F006FD644800781F
:100ED000002831D100242BE02A48005D2849095D13
:100EE000884222DB052C22D15EA1614802F07DFB05
:100EF0004FF4967000F0D1FA00BF01F023FD0028F6
:100F0000FBD001205649087002F0D9FC002508E00A
:100F1000E91D002242EA012002F07DFC18494855F3
:100F20006D1C062DF4DB012070BD0020FCE7641C65
:100F3000062CD1DB0020F7E74948007801281AD1B8
:100F40004CA002F0C9FC002413E00E48005D0C49DF
:100F5000095D88420ADB052C0AD1002002F075FCED
:100F60004FF4805002F071FC0120DDE70020DBE748
:100F7000641C062CE9DB0020D6E700000D0A000007
:100F80003B0000205800002074696D655F43757256
:100F900072656E745F593A20256409456E645F740A
:100FA000696D653A25640D0A0000000074696D657D
:100FB0005F43757272656E745F4D3A202564200937
:100FC000456E645F74696D653A25640D0A00000022
:100FD00074696D655F43757272656E745F443A2023
:100FE000256409456E645F74696D653A25640D0A70
:100FF0000000000074696D655F43757272656E7400
:101000005F483A20256409456E645F74696D653AEE
:1010100025640D0A0000000074696D655F437572F8
:1010200072656E745F4D3A20256409456E645F7485
:10103000696D653A25640D0A0000000074696D65EC
:101040005F43757272656E745F533A20256409457B
:101050006E645F74696D653A25640D0A00000000D6
:101060004800002041373A30303030310D0A00005E
:10107000004800400D0A5468652061626F76652063
:10108000617265206C69676874696E67206669784B
:1010900074757265730D0A00F8B505460E464FF477
:1010A0007A72002328463146FFF73CF800906846E4
:1010B000FFF770F80446606900F26C70642190FBE1
:1010C000F1F201FB120009490870207C401C4870B5
:1010D000207B8870207A0830C870207908712078C9
:1010E0004871084600F0FCF8F8BD000058000020E8
:1010F000F8B506460F464FF47A720023304639465B
:10110000FFF710F800906846FFF744F8044660695E
:1011100000F26C70642190FBF1F201FB12000F49A8
:101120000870207C401C4870207B8870207A083032
:10113000C8702079087120784871002508E0074AB6
:10114000515D6A1C002343EA022002F047FB6D1C3C
:10115000062DF4DB012002490870F8BD3B00002099
:101160004100002008B50121082001F0BBFCE0206F
:10117000ADF8000003208DF8020010208DF8030068
:101180006946024800F00CFC08BD0000000C01405C
:1011900038B50446012C0DD14020ADF800000320E5
:1011A0008DF8020010208DF803006946094800F010
:1011B000F7FB0DE064B94020ADF8000003208DF886
:1011C000020048208DF803006946024800F0E8FB61
:1011D00038BD0000000C01402DE9F04706463746B7
:1011E00080202D490860002517E007F0010018B1A4
:1011F00040202949086003E040202749091D086074
:101200007F10202024490860022000F01DF92020D2
:101210002149091D0860681CC5B2082DE5DB0020C6
:10122000FFF7B6FF002517E0641040211A48103878
:1012300000F0ACFC10B144F0800401E004F07F0445
:10124000202015490860022000F0FEF820201249F5
:10125000091D0860681CC5B2082DE5DB80200E4919
:10126000091D08600120FFF793FF2046E11704EBFA
:101270001171C1F30718E11704EB11710911A4EB07
:10128000011101F0FF0908EB880009EB400000F0B4
:10129000FF0A5046BDE8F087100C014010B58D20C4
:1012A000FFF79AFF0D4908708920FFF795FF0B495A
:1012B00048708720FFF790FF084988708520FFF766
:1012C0008BFF0649C8708320FFF786FF034908712A
:1012D0008120FFF781FF0149487110BD58000020AF
:1012E00030B5044600218E2000F066F860790A21AE
:1012F00090FBF1F201FB12010A2290FBF2F001EBEC
:101300000010C5B22946802000F056F820790A2145
:1013100090FBF1F201FB12010A2290FBF2F001EBCB
:101320000010C5B22946822000F046F8E0780A2174
:1013300090FBF1F201FB12010A2290FBF2F001EBAB
:101340000010C5B22946842000F036F8A0780A21A2
:1013500090FBF1F201FB12010A2290FBF2F001EB8B
:101360000010C5B22946862000F026F860780A21D0
:1013700090FBF1F201FB12010A2290FBF2F001EB6B
:101380000010C5B22946882000F016F820780A21FE
:1013900090FBF1F201FB12010A2290FBF2F001EB4B
:1013A0000010C5B229468C2000F006F880218E205E
:1013B00000F002F830BD0000F0B504460D462646A8
:1013C0002F4680201F490860002317E006F0010027
:1013D00018B140201B49086003E040201949091D4D
:1013E00008607610202017490860022000F02CF8D1
:1013F00020201449091D0860581CC3B2082BE5DBE6
:10140000002317E007F0010018B140200D490860E3
:1014100003E040200B49091D08607F102020094986
:101420000860022000F010F820200649091D08601D
:10143000581CC3B2082BE5DB80200249091D086057
:10144000F0BD0000100C014007E06E2101E04A1ED3
:10145000D1B20029FBDC421ED0B20028F5DC704777
:1014600010B50446FFF77EFE0220FFF7EDFF802057
:10147000084908602020086000218E20FFF79CFFAB
:101480008120FFF7A9FE00F0800010B12046FFF791
:1014900027FF10BD140C0140704700B5034603E060
:1014A0004FF47A7000F005F8181EA3F10103F7D18C
:1014B00000BD00EBC001C9004FF0E02251610021E6
:1014C00091610521116100BF4FF0E021096901F42C
:1014D00080310029F8D004214FF0E02211617047DB
:1014E00010B51021182000F02FFB1021192000F05A
:1014F0002BFB0020074908600749C1F8A40101201F
:10150000FFF7CBFF0120034908600349C1F8A4019C
:1015100010BD0000A08121420080214270B5FFF77C
:10152000DFFF03244FF4FA70FFF7B7FF11E00CB9A7
:1015300001F080FA03F096F9012803D15EA002F0D1
:10154000CBF903E061A002F0C7F907E00A20FFF73A
:10155000A4FF201EA4F10101CCB2E8D100BF03F02A
:1015600039F8012803D15FA002F0B6F902E062A0C9
:1015700002F0B2F9052410E065A168A003F006F8B6
:10158000012803D167A002F0A7F903E06AA002F0E6
:10159000A3F907E00A20FFF780FF201EA4F1010154
:1015A000CCB2E9D100BFFF2C01D101F043FA0120F8
:1015B000FFF773FF05240BE003F01CF8012803D1AB
:1015C00063A002F089F903E067A002F085F904E066
:1015D000201EA4F10101CCB2EED100BFFF2C01D13D
:1015E00001F028FA0120FFF758FF0524012500BF6C
:1015F000062C54D2DFE804F053433323130362A0D4
:1016000003F018F9012804D15FA164A002F064F985
:1016100004E05DA167A002F05FF900253FE06CA047
:1016200003F008F9012804D169A15CA002F054F983
:1016300004E067A15FA002F04FF900252FE068A049
:1016400003F0F8F8012804D165A154A002F044F990
:1016500004E063A157A002F03FF900251FE064A059
:1016600003F0E8F8012804D161A14CA002F034F99C
:1016700004E05FA14FA002F02FF900250FE05FA06A
:1016800003F0D8F8012804D15CA144A002F024F9A9
:1016900004E05AA15DA002F01FF9002500BF00BFC1
:1016A0003220FFF7FAFE201EA4F10101CCB201D0D6
:1016B000002D9DD170BD000061742074657374208D
:1016C0004572726F72210D0A00000000617420746F
:1016D000657374205375636365737366756C210D50
:1016E0000A00000061742043574D4F444520457265
:1016F000726F72210D0A000061742043574D4F44F0
:1017000045205375636365737366756C210D0A001C
:1017100031323334353637380000000053544D33FE
:101720003200000061742043574A415020457272D4
:101730006F72210D0A00000061742043574A415026
:10174000205375636365737366756C210D0A000021
:1017500061742043575245434F4E4E434647204500
:1017600072726F72210D0A00617420435752454313
:101770004F4E4E43464720537563636573736675DA
:101780006C210D0A000000006E6573746261736560
:101790002E6D65736565652E636F6D0061742050F5
:1017A000494E472074696D656F7574212025730D4E
:1017B0000A00000061742050494E4720537563634E
:1017C00065737366756C212025730D0A0000000097
:1017D0007777772E62616964752E636F6D00000004
:1017E0007777772E616C6979756E2E636F6D000067
:1017F0007777772E71712E636F6D00007777772E74
:1018000073696E612E636F6D2E636E00617420507C
:10181000494E47205375636365737366756C202565
:10182000730D0A0010B54CF250344FF4004000F034
:1018300039F8012824D1134908601349C1F8B801C7
:101840001049083908601049C1F8B001C00300F020
:1018500023F801E000F0C4F94FF400410B4800F018
:1018600095F90028F6D0002009490870012109489F
:1018700001F0F8FB00BF201EA4F101018CB2FAD1E7
:1018800010BD0000BC8121420080214200080140BF
:101890004300002000080040014908607047000034
:1018A00014040140014600200022074B1B6803EA94
:1018B0000102054B14331B680B4013B10AB1012020
:1018C00000E000207047000000040140002123498F
:1018D0008279002A3AD00A46126803689A430B4676
:1018E0001A600A1D126803689A430B1D1A60027978
:1018F00011440A6803681A430A60184A08321268D9
:1019000003689A43154B08331A601A1D126803685E
:101910009A43124B0C331A604279102A0ED11A1FC7
:10192000126803681A430D4B08331A601A1D1268B7
:1019300003681A43094B0C331A600DE007494279DA
:1019400011440A6803681A430A6005E002791144E9
:101950000A6803689A430A60704700000004014067
:1019600030B500228B071C0F0F2303FA04F20B4B38
:101970008C1053F824309343084C8D1044F82530D4
:1019800023468C1053F824308C07240F00FA04F4FB
:101990002343024C8D1044F8253030BD080001402F
:1019A0002DE9F041024600250026002000230024F6
:1019B000002791F803C00CF00F0591F803C00CF05C
:1019C000100CBCF1000F03D091F802C04CEA0505E1
:1019D00091F800C0BCF1000F31D0146800202BE05A
:1019E0004FF0010C0CFA00F3B1F800C00CEA03064A
:1019F0009E4220D183004FF00F0C0CFA03F7BC433A
:101A000005FA03FC4CEA040491F803C0BCF1280F6A
:101A100006D14FF0010C0CFA00FCC2F814C00AE029
:101A200091F803C0BCF1480F05D14FF0010C0CFA3E
:101A300000FCC2F810C0401C0828D1D31460B1F8D3
:101A400000C0BCF1FF0F34DD546800202EE000F12F
:101A5000080C4FF0010808FA0CF3B1F800C00CEACA
:101A600003069E4221D183004FF00F0C0CFA03F7BE
:101A7000BC4305FA03FC4CEA040491F803C0BCF132
:101A8000280F05D100F1080C08FA0CF8C2F81480F0
:101A900091F803C0BCF1480F07D100F1080C4FF0DA
:101AA000010808FA0CF8C2F81080401C0828CED3B0
:101AB0005460BDE8F0810000F0B50A460023002420
:101AC0000021002500F00046B6F1004F02D11D4E66
:101AD000F16901E01B4E7168C0F3034583B200F465
:101AE0004016B6F5401F08D121F07061154E76689A
:101AF00026F07066134F7E6012E000F48016B6F593
:101B0000801F06D1032606FA05F4A14341F0706157
:101B100006E0460D360103FA06F6B14341F0706166
:101B200022B1460D360103FA06F6314300F00046B5
:101B3000B6F1004F02D1034EF16101E0014E716038
:101B4000F0BD00000000014038B504460D462211EA
:101B5000042101FA02F0012100F0C4FF03208DF8F6
:101B6000020004F00F010120884080B2ADF80000AF
:101B70008DF803502111044A131503FB0120694617
:101B8000FFF70EFF38BD00000008014002460020AC
:101B900093680B400BB1012000E0002070470AB1B0
:101BA000016100E04161704700BFFEE74CF6CC40A8
:101BB00001490860704700000030004010B545F250
:101BC000555000F021F8052000F012F840F69B7007
:101BD00000F014F800F004F8FFF7E8FF10BD000073
:101BE0004AF6AA2001490860704700000030004012
:101BF000014948607047000000300040014988609A
:101C00007047000000300040014908607047000044
:101C10000030004010B586B004460121082000F0D5
:101C200061FF0121880400F03DFF144801F0BEFB74
:101C30004FF48060ADF8140003208DF816001820D2
:101C40008DF8170005A90E48FFF7AAFE01940020A1
:101C5000ADF80800ADF80A00ADF80C00ADF81000C2
:101C60000820ADF80E0001A9044801F049FC01214B
:101C7000024801F08FFB06B010BD00000048004094
:101C8000000C01402DE9F04FADF6441D0020CDF8C9
:101C90003C09D1490870D149D1A001F01DFE7B213A
:101CA000CE48FEF7F7FA064631464FA8FEF711FB7D
:101CB00000BF761C00BF0020CDF83C090DE0DDF828
:101CC0003C09305C7D2803D10120C349087009E03C
:101CD000DDF83C09401CCDF83C09DDF83C09305CDE
:101CE0007B28ECD100BFBC48007801281BD1BEA0E6
:101CF00001F0F2FD0020B84908707B213046FEF764
:101D0000C9FA0646761C7B213046FEF7C3FA064622
:101D100031464FA8FEF7DDFA4FA800F02DFA0DF678
:101D2000441DBDE8F08FAC480078002871D1B3A005
:101D300001F0D2FD4FA802F0BFFA4FA9A8A001F010
:101D4000CBFD4FA802F078FB4E904E9878B902F088
:101D500055FB04462146AFA001F0BEFD4E9802F0AF
:101D60001DFB4FF400619D48FEF777FAD7E7AFA05F
:101D700001F0B2FDB0A14E9802F048FB0746B0A1B9
:101D80004E9802F043FB8046AFA14E9802F03EFB16
:101D90004D90AFA14E9802F039FB4C90AEA14E98F9
:101DA00002F034FB8146002F6FD0B8F1000FFBD05A
:101DB0004D980028F8D04C980028F5D0B9F1000FC4
:101DC000F2D0A7A0796901F087FDD8E906010246A3
:101DD0000B46CDE90001A5A001F07EFD4D980169FB
:101DE000A6A001F079FD4C980169A7A001F074FD4F
:101DF000A8A10CA8D9F8102001F07EFD78690B2865
:101E000031D007DC002839D0042808D00A283DD179
:101E10002AE0DEE05A2828D0652837D116E09EA0B7
:101E200001F05AFDD8E906211046FEF753FDCDE931
:101E30000A01DDE90A01FFF72FF94E9802F0AEFA28
:101E40004FF400616548FEF708FA68E700209A49F8
:101E500008609A49C1F8B401974908310860974968
:101E6000C1F8BC011BE01AE019E095A001F034FDB7
:101E70004FF47A70FFF711FB00F000FE96A001F01E
:101E80002BFD4E9802F08AFA49E79EE04E9802F048
:101E900085FA4FF400615148FEF7DFF900BF00BF3B
:101EA0004E9802F07BFA0CA802F0C6FA0990099845
:101EB00050B902F0A3FA014601908CA001F00CFD8C
:101EC000099802F06BFA2AE790A001F005FD94A1B1
:101ED000099802F09BFA089093A1099802F096FAEB
:101EE000824692A1099802F091FA83460898F0B1CF
:101EF000BAF1000F1BD0BBF1000F18D00899D1E93F
:101F0000060102460B46CDE900018AA001F0E4FC7F
:101F1000DAE9060102460B46CDE9000189A001F08D
:101F2000DBFC8BA0DBF8101001F0D6FC02E08BA0EC
:101F300001F0D2FCDAE906211046FEF7CBFC04469C
:101F40000D4647F23053E01845F10001874A03C2BD
:101F5000874BE01A65F10001CDE90601854BE01AD7
:101F600065F10001CDE90401002001F06EFC4FF4A1
:101F7000805001F06AFC7D4903C900F063FFDDE990
:101F8000060100F0E7FEDDE9040100F01FFF4FF459
:101F90000040029000208DF80C0008208DF80D0004
:101FA00000208DF80E0002A8FFF790FC01F08DFCD8
:101FB00020462946FFF79CF8099802F0EFF94FF404
:101FC00000610648FEF749F902E04E9802F0E6F992
:101FD000A5E600BF00BFA2E63A000020C40A002028
:101FE0000D0A25730D0A000049742069732062618F
:101FF000636B20736F756E640D0A0000697420694D
:10200000736E6F74206261636B736F756E640D0A1B
:10201000000000004A534F4E2070617273652065C6
:1020200072726F723A2025730A0000004A736F6E55
:10203000204F4B0D0A00000054797065000000002D
:1020400054696D65000000004D736749640000002D
:1020500053656E64496400005061796C6F6164007F
:10206000547970653A2025640A00000054696D6552
:102070003A20252E6C6C660A000000004D736749FB
:10208000643A2025730A000053656E6449643A205F
:1020900025730A002573000048656172744265610A
:1020A000742053796E20537563636573736663752B
:1020B0006C210D0A00000000B08121420080214205
:1020C00053797374656D2077696C6C2072657365E4
:1020D000742E2E2E0D0A000049742069732042616F
:1020E000636B536F756E6432210D0A005061796C19
:1020F0006F6164204A534F4E207061727365206592
:1021000072726F723A2025730A0000005061796C78
:102110006F6164204A534F4E204F4B210D0A00003F
:102120005374617274000000456E640047657474F6
:102130006572000053746172743A20252E6C6C66CF
:102140000A000000456E643A252E6C6C660A000099
:102150004765747465723A25730A0000537461729E
:1021600074206572726F72210D0A00005000002009
:10217000A0BB0D0020BF02002DE9F14FCAB07B21AA
:102180004A98FEF787F84890489828B987A001F048
:10219000A3FB4BB0BDE8F08F92A001F09DFB98A08F
:1021A000489901F099FB489802F086F894A0489964
:1021B00001F092FB489802F03FF94790479850B9D8
:1021C00002F01CF9074639468FA001F085FB4798BD
:1021D00002F0E4F8DDE792A001F07EFB93A14798BE
:1021E00002F014F9044693A1479802F00FF905464E
:1021F00092A1479802F00AF9469092A1479802F0FE
:1022000005F9459091A1479802F000F90646002C87
:1022100079D0002DFCD046980028F9D045980028A8
:10222000F6D0002EF4D08BA0616901F055FBD5E902
:10223000060102460B46CDE9000189A001F04CFBE6
:10224000469801698AA001F047FB459801698BA077
:1022500001F042FB8CA105A8326901F04DFB6069D9
:102260000B282BD006DC002832D0042807D00A28FF
:1022700035D124E05A2823D0652830D111E083A03D
:1022800001F02AFBD5E906211046FEF723FB07469D
:10229000884638464146FEF7FFFE479802F07EF832
:1022A00077E70020814908608149C1F8B4017F497E
:1022B000083108607E49C1F8BC0100BF13E012E09C
:1022C0007CA001F009FBC820FFF7E7F800F0D6FB7F
:1022D0007EA001F001FB479802F060F859E74798AB
:1022E00002F05CF800BF00BF479802F057F805A85D
:1022F00002F0A2F88346BBF1000F0CD102F07EF889
:102300000146019000E04BE075A001F0E5FA584667
:1023100002F044F83DE77AA001F0DEFA7DA15846CC
:1023200002F074F804907DA1584602F06FF88146DF
:102330007BA1584602F06AF882460498F0B1B9F1E0
:10234000000F1BD0BAF1000F18D00499D1E9060193
:1023500002460B46CDE9000173A001F0BDFAD9E9B0
:10236000060102460B46CDE9000173A001F0B4FA64
:1023700074A0DAF8101001F0AFFA02E074A001F0D6
:10238000ABFAD9E906211046FEF7A4FACDE902011D
:10239000DDE90201FEF7ACFE584601F0FFFF02E066
:1023A000479801F0FBFF00BFF3E60000556E616245
:1023B0006C6520746F2066696E6420746865207394
:1023C00074617274696E6720706F736974696F6E7F
:1023D000206F6620746865204A534F4E20646174F4
:1023E000610D0A004A736F6E20537461727420533A
:1023F00075636365737366756C210D0A00000000D8
:102400000D0A25730D0A00004A534F4E2070617269
:102410007365206572726F723A2025730A0000009E
:102420004A736F6E204F4B0D0A000000547970659F
:102430000000000054696D65000000004D7367499D
:102440006400000053656E64496400005061796C5B
:102450006F616400547970653A2025640A000000B9
:1024600054696D653A20252E6C6C660A00000000E8
:102470004D736749643A2025730A000053656E6402
:1024800049643A2025730A0025730000486561728B
:1024900074426561742053796E205375636365736C
:1024A000736663756C210D0A00000000B081214243
:1024B0000080214253797374656D2077696C6C20BC
:1024C00072657365742E2E2E0D0A00004974206902
:1024D00073204261636B536F756E6432210D0A0085
:1024E0005061796C6F6164204A534F4E2070617265
:1024F0007365206572726F723A2025730A000000BE
:102500005061796C6F6164204A534F4E204F4B21CC
:102510000D0A00005374617274000000456E64007F
:10252000476574746572000053746172743A2025B3
:102530002E6C6C660A000000456E643A252E6C6CA9
:10254000660A00004765747465723A25730A0000D4
:102550005374617274206572726F72210D0A0000EB
:1025600010B586B0FFF73CFB03240FE046A002F055
:1025700045F9012803D152A001F0AEF903E056A0BD
:1025800001F0AAF907E00120FEF787FF201EA4F161
:102590000101CCB2EAD100BFFFF722FB03240524DE
:1025A0000FE054A002F0F4F8012803D156A001F086
:1025B00093F903E05AA001F08FF907E00120FEF73C
:1025C0006CFF201EA4F10101CCB2EAD100BFFF2CA8
:1025D00007D15AA001F080F91420FEF75EFF00F049
:1025E0003BFA052420E0FFF7FBFA40F25B7156A0AE
:1025F00002F0AEF8012809D153A258A1684601F0B3
:102600007BF9694656A001F067F909E04EA253A193
:10261000684601F071F9694656A001F05DF908E0DD
:102620001420FEF73AFF00BF201EA4F10101CCB236
:10263000D9D100BF0220FEF730FF03240EE0FFF7E0
:10264000CFFA53A002F0BEF8012803D158A001F040
:1026500043F903E05BA001F03FF904E0201EA4F180
:102660000101CCB2EBD100BFFF2C07D15BA001F080
:1026700033F91420FEF711FF00F0EEF90220FEF707
:102680000CFF06B010BD0000302C312C223232324B
:10269000323232375F5531513442325A35222C2290
:1026A000657370383236365F6C69222C22313233D2
:1026B00034353637222C302C302C222200000000FA
:1026C0004D51545455534552434647204572726FFD
:1026D00072210D0A000000004D51545455534552CB
:1026E000434647205375636365737366756C210DAC
:1026F0000A000000302C36302C312C22222C2222D1
:102700002C302C30000000004D515454434F4E4E9D
:10271000434647204572726F72210D0A0000000087
:102720004D515454434F4E4E4346472053756363B7
:1027300065737366756C210D0A0000005265736540
:1027400074210D0A000000006E6573746261736588
:102750002E6D65736565652E636F6D0025730000D2
:102760004D515454434F4E4E204572726F72212585
:10277000730D0A004D515454434F4E4E2053756310
:102780006365737366756C2125730D0A0000000084
:102790005530363632383536372F553036363238B2
:1027A0003536375F35325359324B54410000000003
:1027B0004D515454535542204572726F72210D0A87
:1027C000000000004D51545453554220537563632B
:1027D00065737366756C210D0A000000537973747C
:1027E000656D2077696C6C2072657365742E2E2E72
:1027F0000D0A000000BFFEE700B587B001210420EC
:1028000000F070F90121080300F06CF910208DF838
:102810001B00ADF8180003208DF81A0006A9224805
:10282000FFF7BEF818208DF81B00A020ADF81800A7
:1028300003208DF81A0006A91B48FFF7B1F84820BD
:102840008DF81B004020ADF8180003208DF81A0009
:1028500006A91548FFF7A4F84FF48270ADF80600FA
:102860000020ADF80400ADF80800ADF812003020EB
:10287000ADF810000020ADF80A00ADF80C004FF4E0
:102880000070ADF80E000720ADF8140001A907484C
:1028900000F0CCF90121054800F0AEF9012000F06C
:1028A0002DF807B000BD00000008014000300140D5
:1028B00010B5002000F022F810BD10B5012000F086
:1028C0001DF810BD10B5044600BF02210A4800F0F3
:1028D0009FF90128F9D12146074800F0A5F900BF6A
:1028E0000121054800F094F90128F9D1024800F0CF
:1028F00098F9C0B210BD00000030014010B5044688
:10290000224610210148FFF74AF910BD0008014096
:1029100010B54FF41650FFF77DF91420FEF7BDFDFA
:102920001E2000F01DF81420FEF7B7FD02A1044898
:1029300000F05BFE10BD000042343A30320D0A0058
:102940000048004010B54FF480610448FFF71EF9BD
:10295000012801D1002010BD0120FCE70008014042
:1029600010B50446142C04DD09A10B4800F03DFE0F
:102970000CE00A2C04DD09A1074800F036FE05E052
:10298000002C03DD07A1044800F02FFE10BD00005D
:1029900041463A33300D0A000048004041463A3281
:1029A000300D0A0041463A31300D0A0070470000F0
:1029B00070B5002100230F22C47804B3154C24689D
:1029C00004F4E064C4F5E064210AC1F10403CA40E0
:1029D000447804FA03F184781440214309010E4C31
:1029E0000678A155047804F01F050124AC40057851
:1029F0006D11AD0005F1E025C5F8004109E004784E
:102A000004F01F050124AC40044D0678761145F80A
:102A1000264070BD0CED00E000E400E080E100E045
:102A200002490143024A1160704700000000FA05A4
:102A30000CED00E00648006800F4E060054908433A
:102A4000001D03490860BFF34F8F00BFFEE7000081
:102A50000CED00E00000FA050648006800F4E060B4
:102A600005490843001D03490860BFF34F8F00BFAD
:102A7000FEE700000CED00E00000FA0506480068E3
:102A800000F4E06005490843001D03490860BFF3F6
:102A90004F8F00BFFEE700000CED00E00000FA05DC
:102AA0007047000029B1064AD2690243044BDA613B
:102AB00004E0034AD2698243014BDA6170470000A7
:102AC0000010024029B1064A12690243044B1A6100
:102AD00004E0034A12698243014B1A617047000007
:102AE0000010024029B1064A92690243044B9A61E0
:102AF00004E0034A92698243014B9A6170470000E7
:102B00000010024029B1064AD2680243044BDA6041
:102B100004E0034AD2688243014BDA607047000048
:102B20000010024030B500210022002400232D4D6A
:102B30006D6805F00C0121B1042905D0082923D1C5
:102B400005E0294D056022E0274D05601FE0254D79
:102B50006D6805F47012234D6D6805F4803402250C
:102B600005EB92421CB9214D554305600BE01D4D0C
:102B70006D6805F400351DB11C4D5543056002E03C
:102B8000194D5543056002E0174D056000BF00BFB9
:102B9000144D6D6805F0F0010909154D6B5C056871
:102BA000DD4045600F4D6D6805F4E061090A104D88
:102BB0006B5C4568DD4085600A4D6D6805F46051C9
:102BC000C90A0B4D6B5C4568DD40C560054D6D68FD
:102BD00005F44041890B074D6B5CC568B5FBF3F507
:102BE000056130BD0010024000127A0000093D006E
:102BF000000000201000002021B1028842F04002B5
:102C0000028004E002884FF6BF731A4002807047CA
:102C10000246002013890B400BB1012000E0002088
:102C200070470146888970478181704710B500223E
:102C3000028802F441520B884C8823438C8823433A
:102C4000CC8823430C8923434C8923438C89234319
:102C5000CC8923431A430280838B4FF2FF742340B5
:102C600083830B8A038210BD704710B500F002F811
:102C700010BD00000CB500200190009033480068A2
:102C800040F480303149086000BF3048006800F4EB
:102C9000003000900198401C0190009818B90198EC
:102CA000B0F5A06FF1D12948006800F4003010B1F0
:102CB0000120009001E0002000900098012843D1FD
:102CC0002348006840F01000214908600846006869
:102CD00020F0070008600846006840F00200086025
:102CE0001A484068194948600846406848600846E4
:102CF000406840F4806048600846406820F47C10DA
:102D000048600846406840F4E8104860084600689B
:102D100040F08070086000BF0C48006800F0007050
:102D20000028F9D00948406820F0030007494860AE
:102D30000846406840F00200486000BF0348406811
:102D400000F00C000828F9D10CBD00000010024072
:102D500000200240FEB506460F464FF47A7200236B
:102D600030463946FDF7DEF900906846FDF712FA65
:102D70000446606900F26C70642190FBF1F201FB83
:102D80001200C0B28DF80400207C401CC0B28DF847
:102D90000500207B8DF80600207A0830C0B28DF83F
:102DA000070020798DF8080020788DF809000025AB
:102DB00009E001AA515D6A1C4FF4805343EA0220E6
:102DC00000F00CFD6D1C062DF3DBFEBDFEB50646C6
:102DD0000F464FF47A72002330463946FDF7A2F9C8
:102DE00000906846FDF7D6F90446606900F26C7001
:102DF000642190FBF1F201FB1200C0B28DF80400D7
:102E0000207C401CC0B28DF80500207B8DF80600A8
:102E1000207A0830C0B28DF8070020798DF80800BC
:102E200020788DF80900002509E001AA515DEA1D0E
:102E30004FF4805343EA022000F0D0FC6D1C062DB5
:102E4000F3DBFEBDFEB506460F464FF47A72002353
:102E500030463946FDF766F900906846FDF79AF965
:102E60000446606900F26C70642190FBF1F201FB92
:102E70001200C0B28DF80400207C401CC0B28DF856
:102E80000500207B8DF80600207A0830C0B28DF84E
:102E9000070020798DF8080020788DF809000025BA
:102EA00008E001AA515DEA1D002343EA022000F078
:102EB00095FC6D1C062DF4DBFEBD704710B5134864
:102EC000006840F001001149086008464068104958
:102ED00008400E494860084600680E4908400B4902
:102EE00008600846006820F48020086008464068B2
:102EF00020F4FE0048604FF41F008860FFF7B5FE25
:102F00004FF000600449086010BD0000001002404E
:102F10000000FFF8FFFFF6FE08ED00E010B501210C
:102F2000880700F0ABF830B1012003490870012197
:102F3000800700F094F810BD4200002010B5012178
:102F4000054800F09BF830B10120044908700121C8
:102F5000014800F084F810BD000400404900002042
:102F600000B585B00121174800F088F840B3012171
:102F7000144800F074F814480078401C1249087096
:102F80000846027811A1684600F0B6FC694611A017
:102F900000F0A2FC0C4800780A2811D100200A4950
:102FA00008700D4908600D49C1F8B8010A4908398F
:102FB00008600A49C1F8B0010021024800F052F847
:102FC00005B000BD000800404300002025640D0A44
:102FD0000000000025730000BC81214200802142D6
:102FE0001FB501210220FFF75DFD0020ADF80A00AA
:102FF000ADF8060042F6DF60ADF8080048F69F40E5
:10300000ADF8040000208DF80C0001A9114800F073
:103010008BF801210F4800F01FF8012211460D48DE
:1030200000F078F84FF4A060FFF7FAFC1D208DF84F
:10303000000002208DF8010003208DF8020001201D
:103040008DF803006846FFF7B3FC0121014800F04A
:1030500009F81FBD00040040CA4302827047CA43FA
:103060000282704721B1028842F00102028004E02E
:1030700002884FF6FE731A400280704730B5024650
:10308000002000230024158A05EA0103958905EA3A
:10309000010413B10CB1012000E0002030BD1FB5C8
:1030A00001210846FFF7FEFC0020ADF80A00ADF84C
:1030B000060048F69F40ADF808004EF65F20ADF8D8
:1030C000040000208DF80C0001A94FF0804000F0B2
:1030D0002BF801218807FFF7BFFF01221146900757
:1030E00000F018F84FF4A060FFF79AFC1C208DF850
:1030F000000002208DF8010003208DF8020001205D
:103100008DF803006846FFF753FC01218807FFF79D
:10311000A9FF1FBD1AB183890B43838102E0838914
:103120008B43838170470000002202881D4B984228
:103130000ED01D4B98420BD0B0F1804F08D01B4BE6
:10314000984205D01A4B984202D01A4B984204D1AB
:103150004FF68F731A404B881A43174B984207D08B
:10316000164B984204D04FF6FF431A40CB881A43BF
:1031700002808B8883850B8803850A4B98420BD08D
:10318000094B984208D00E4B984205D00D4B9842FF
:1031900002D00D4B984201D10B7A03860123838222
:1031A00070470000002C0140003401400004004042
:1031B00000080040000C00400010004000140040D7
:1031C00000400140004401400048014010B540F279
:1031D00025511D4800F045F910B31B4800F0FCF9DB
:1031E000C4B21A48008800F40040C8B917480088E3
:1031F00000F4804060B10A2C03D0002013490880FD
:1032000020E01248008840F400401049088019E08E
:103210000D2C06D10D48008840F480400B490880F1
:1032200010E00A480088C0F30D0009490C54074813
:103230000088401C0549088008460088C72801DD31
:103240000020088010BD0000003801402C00002044
:103250006C00002010B50348006810B101480068F8
:10326000804710BD6000002010B5002440F22551B9
:103270000E4800F0F6F8C0B10D480088B0F5006FB8
:1032800002D300200A490880084800F0A5F9C4B21A
:10329000074801880088401C054A108005484454AE
:1032A00040F22551014800F066F810BD004400408E
:1032B00036000020C402002010B540F22551194804
:1032C00000F0CFF860B3174800F086F9C4B2164892
:1032D0000088B0F5006F02D300201349088012481F
:1032E00001880088401C104A108010484454104641
:1032F0000088401E0D49085C7D280BD110460088CF
:10330000801E085C7D2805D10948FCF7E2FF0120FA
:103310000849087040F22551024800F02CF800BF1F
:1033200010BD00000044004036000020C402002010
:10333000C40A00203300002010B504460BE000BF93
:103340008021074800F080F80028F9D014F8011B0C
:10335000034800F046F920780028F0D110BD0000A5
:103360000044004001F40072B2F5007F00D100BFBC
:10337000CA430280704710B50022002340F66A1449
:10338000A14200D100BF0A1201249440A3B2DC4341
:10339000048010BD21B1828942F40052828104E090
:1033A00082894DF6FF731A408281704710B504463A
:1033B0002048844209D101218803FFF7A3FB0021A3
:1033C0004FF48040FFF79EFB32E01B48844209D156
:1033D00001214804FFF776FB00214FF40030FFF78E
:1033E00071FB25E01548844209D101218804FFF7CB
:1033F00069FB00214FF48020FFF764FB18E01048C0
:10340000844209D10121C804FFF75CFB00214FF47D
:103410000020FFF757FB0BE00A48844208D1012146
:103420000805FFF74FFB00214FF48010FFF74AFB20
:1034300010BD00000038014000440040004800403A
:10344000004C00400050004002460020B1F5007FD3
:1034500000D100BF13880B400BB1012000E0002019
:10346000704770B50246002400230025002040F676
:103470006A16B14200D100BFC1F3421501F01F032B
:10348000012606FA03F3012D02D19689334006E0A6
:10349000022D02D1168A334001E0968A33400C1285
:1034A000012606FA04F41688344013B10CB1012049
:1034B00000E0002070BDF0B5034600240026002582
:1034C000002040F66A17B94200D100BF1846C1F388
:1034D000421401F01F06012707FA06F5012C01D15D
:1034E0000C3004E0022C01D1103000E014301AB18D
:1034F00007682F43076002E00768AF430760F0BD2D
:103500002DE9F04786B005460E460024A24600BFCE
:10351000A1460027B08900B100BF2F462C8A4CF687
:10352000FF700440F08804432C82AC894EF6F310FF
:103530000440B08831890843718908430443AC8151
:10354000AC8A4FF6FF400440B0890443AC8201A826
:10355000FFF7E8FA1F48874202D1DDF810A001E02A
:10356000DDF80CA0A88900F4004040B10AEBCA00C5
:1035700000EB0A1031684900B0FBF1F807E00AEBF4
:10358000CA0000EB0A1031688900B0FBF1F8642032
:10359000B8FBF0F004012009642101FB1089A8891F
:1035A00000F4004040B1322000EBC900B0FBF1F064
:1035B00000F00700044308E0322000EB091064210A
:1035C000B0FBF1F000F00F0004432C8106B0BDE821
:1035D000F08700000038014001468888C0F30800E9
:1035E0007047C1F308028280704770B506460C46EA
:1035F000002540213046FFF7B5FE0FE0615D304603
:10360000FFF7EFFF00BF40213046FFF71DFF002806
:10361000F9D040213046FFF7A5FE6D1C605D002803
:10362000ECD170BD00BFFEE710B586B004460121A5
:1036300044F20400FFF756FA1A48FFF7B7FE1820C5
:103640008DF817004FF40070ADF8140003208DF8CA
:10365000160005A91448FEF7A3F904208DF81700F9
:103660000002ADF8140003208DF8160005A90E48DD
:10367000FEF796F901940020ADF810000820ADF88F
:103680000E000020ADF80C00ADF80A00ADF80800FF
:1036900001A90448FFF734FF01210248FFF77AFE31
:1036A00006B010BD003801400008014010B586B0DA
:1036B000044601210420FFF715FA01214804FFF711
:1036C000F1F92548FFF772FE18208DF81700042045
:1036D000ADF8140003208DF8160005A91F48FEF769
:1036E0005FF904208DF817000820ADF8140005A933
:1036F0001A48FEF755F901940020ADF810000C208F
:10370000ADF80E000020ADF80C00ADF80A00ADF8E1
:10371000080001A91048FFF7F3FE01210E48FFF74A
:1037200039FE012240F225510B48FFF7C4FE4FF449
:10373000A060FFF775F926208DF8000001208DF8B4
:10374000030003208DF801008DF802006846FFF7A2
:103750002FF906B010BD00000044004000080140F1
:1037600010B5FFF749F810BD70B5002000F053F810
:10377000C5B2FF2D00D170BDADB1012D26D1002401
:1037800008E0611C002242EA012000F044F81049E0
:103790000855641C062CF4DB01200E49087000203B
:1037A0000D490870E7E7002408E0E11D002242EA25
:1037B000012000F030F806490855641C062CF4DBA3
:1037C00001200449087004490870D4E700BFD2E71B
:1037D0003B000020410000204800002070B5044656
:1037E0000D4600F063F8FFF763F80220FFF76AF870
:1037F000C4F30740FFF766F8C4F30720FFF762F849
:10380000E0B2FFF75FF82846FFF75CF8FFF755F8DE
:1038100000F034F870BD70B50446FFF749F8032096
:10382000FFF750F8C4F30740FFF74CF8C4F3072044
:10383000FFF748F8E0B2FFF745F8FF20FFF742F83E
:103840000546FFF73AF8284670BD10B5044600F06B
:103850002DF8FFF72DF82020FFF734F8C4F30740C8
:10386000FFF730F8C4F30720FFF72CF8E0B2FFF7BA
:1038700029F8FFF722F800F001F810BD10B5FFF7A6
:1038800017F80520FFF71EF8074C02E0641E04B984
:1038900006E0FF20FFF716F800F001000028F5D140
:1038A00000BFFFF70AF810BDA086010010B5FEF7B3
:1038B000FFFF0620FFF706F8FEF7FFFF10BD10B56B
:1038C00000210846FFF78AFF10BD10B50121002036
:1038D000FFF784FF10BD00000FB4054B10B503A91E
:1038E000044A029800F04CF910BC5DF814FB00008B
:1038F0000D490008280000200FB4084B10B504A99A
:1039000002AA039800F03CF9044602A9002000F046
:10391000CEFC204610BC5DF814FB0000AF4200084E
:1039200030B528B1144C031F002021680A4605E079
:10393000084630BD9A4203D810465268002AF9D191
:10394000002800D041680BD00468A3EB0005A54215
:1039500004D11B681C440346046002E0436000E09D
:1039600023603AB11C68D51AA54203D115682C44CE
:103970001C6052685A6030BD640000202DE9F04799
:1039800082460F4C10480D4E0E4F001B4FF00008A2
:1039900020F007054FF0010900221146504600F0C3
:1039A000EFFF002802D1306810B10020BDE8F08799
:1039B0003C60C4E90058C6F80090EDE768000020BC
:1039C000F412002064000020F014002002E008C877
:1039D000121F08C1002AFAD170477047002001E089
:1039E00001C1121F002AFBD1704700002DE9FF5FC3
:1039F00082B00021DDE90430020DDDF840B0034360
:103A000018D044F61050A2F2FF3242431514119818
:103A100001281FD0A5EB0B00401C5FEA000A4FF005
:103A200000064E4FDFF83891B046504615D5CAF122
:103A3000000413E0119801244AA3012801D16FEA80
:103A40000B010298119AC0E90031C0E9024206B0A8
:103A5000BDE8F09FCBF10000DFE704460021404ABB
:103A6000491842EB0450CDE9001012E0E00707D0FE
:103A700032463B4640464946FCF79BFE8046894617
:103A800032463B4610461946FCF793FE06460F4663
:103A90006410002CEAD1DDE90401DDE90023BAF16C
:103AA000000F06DAFCF785FE42464B46FCF781FE26
:103AB00005E0FDF7A8F842464B46FDF7A4F804469A
:103AC0000E460022284BFCF743FF03D84FF0FF308F
:103AD000014607E00022254B20463146FCF7C2FD97
:103AE000FDF70CF9102409E0002C0ADB0A22002360
:103AF000FCF75CFF039B30321A55641E50EA01024A
:103B0000F2D1641C039AC4F111031444119A012ADE
:103B100003D0012208430DD10AE0084304D000205D
:103B20004FF0110B119072E7A3EB0B056D1E0DE02A
:103B30005B4504DD4FF0000205F1010504E003DA06
:103B40004FF00002A5F10105002AECD0029811996E
:103B5000C0E90231C0E9004579E7000000001440E7
:103B60000000F03F300000000000F0430000E03FA4
:103B700030380A2801D20120704700207047000029
:103B80002DE9FF4F95B09B468946064600250FE27A
:103B9000252877D100242746F84A0121059400E022
:103BA000044316F8013F203B01FA03F01042F7D11D
:103BB00030782A2811D06FF02F033078A0F130022E
:103BC000092A16D8059A44F0020402EB820203EB9C
:103BD00042021044761C0590EFE759F8042B059239
:103BE000002A03DA504244F40054059044F00204E1
:103BF000761C30782E2816D116F8010F44F00404F4
:103C00002A280DD06FF02F023078A0F13003092B55
:103C100009D807EB870302EB4303C718761CF3E7C9
:103C200059F8047B761C30786C280FD006DC4C28C1
:103C300017D068280DD06A2814D104E0742810D059
:103C40007A280FD10DE044F400140AE044F4801403
:103C500001E044F440147278824202D104F58014E9
:103C6000761C761C307866280BD013DC582877D069
:103C700009DC002875D04528F6D04628F4D047281E
:103C80001AD19DE118E0632835D0642879D06528E1
:103C900012D195E1702873D008DC6728F1D069282B
:103CA0006FD06E280DD06F2806D1B5E073282CD0C8
:103CB000752875D0782874D05A46179990476D1C8E
:103CC00075E1C4F30250022809D003280DD0D9F8B9
:103CD000001004280DD00D6009F1040967E1D9F83E
:103CE0000010EA17C1E90052F6E7D9F800100D807C
:103CF000F2E70D70F0E719F8041B8DF800100020B2
:103D00008DF80100EA46012003E059F804AB4FF0BA
:103D1000FF3061074FF0000102D40DE008F101010E
:103D20008846B9420FDA8045F8DB1AF808100029F6
:103D3000F4D108E008F1010188468142FADB1AF863
:103D400008100029F6D105985B46A0EB080721462C
:103D50003846179A00F094FA284400EB080507E06B
:103D60004DE029E10DE01AF8010B5A4617999047EA
:103D7000B8F10108F7D25B4621463846179A13E19D
:103D800042E00A220092C4F302524FF0000A022AD3
:103D900008D059F804CB032A4FEAEC710AD00DE0A1
:103DA00029E02AE009F1070121F00702F2E802C147
:103DB000914609E00FFA8CFC4FEAEC71042A03D11A
:103DC0004FFA8CFC4FEAEC71002907DA0A46002111
:103DD000DCF1000C61EB02012D2202E0220504D58A
:103DE0002B228DF80420012203E0E20701D02022DB
:103DF000F7E7904659E00A2102E010220DE0102179
:103E00004FF0000A00910BE010224FF0000A44F03E
:103E100004040827009203E008224FF0000A0092F1
:103E2000C4F30252022A05D059F804CB0021032A18
:103E300008D009E009F1070121F00702F2E802C108
:103E4000914605E01FFA8CFC042A01D10CF0FF0C0E
:103E50004FF00008220728D5702806D0009B83F079
:103E6000100353EA0A0305D00EE040228DF8042027
:103E7000012208E05CEA010206D030228DF804201D
:103E80008DF8050002229046009B83F0080353EA58
:103E90000A030AD15CEA010201D1620705D530228A
:103EA0008DF804204FF001087F1E582804D034A05C
:103EB00003900EA802900DE036A0F9E75346604645
:103EC000009AFCF773FD84460398825C0298401EBA
:103ED000029002705CEA0100F0D1029806A9081A6B
:103EE00000F1200A600702D524F4803400E00127A5
:103EF000574502DDA7EB0A0000E0002000EB0A01B5
:103F0000009005984144401A0590E00306D45B46B2
:103F10002146179A059800F0B3F90544002706E0FA
:103F200001A85A46C05D179990476D1C7F1C4745F4
:103F3000F6DBE0030CD55B462146179A059800F0A6
:103F40009FF9054404E030205A46179990476D1CAC
:103F50000099481E00900029F5DC08E002980299BB
:103F60005A460078491C0291179990476D1CBAF186
:103F70000001AAF1010AF1DC65E100000928010055
:103F800030313233343536373839616263646566CF
:103F90000000000030313233343536373839414291
:103FA000434445460000000000F058F90544761CE3
:103FB000307800287FF4ECAD19B02846BDE8F08FCA
:103FC000620700D4062709F1070222F0070CFCE87B
:103FD0000223E14603F000485FEA080C02D00FF22A
:103FE000702C0DE05FEA045C02D50FF2682C07E04C
:103FF0005FEAC47C02D00FF2602C01E0AFF2700CDB
:104000004FF0FF3823F00043CDF850C065280CD0A6
:1040100006DC452809D046281DD047283DD13DE083
:10402000662818D067287ED138E00021112F01DBE7
:10403000112000E0781CCDE9000106A90EA8FFF7C9
:10404000D5FCDDE90F010E9A03910021009207F1E2
:10405000010A04914DE04FF000400097CDE90110B6
:1040600006A90EA8FFF7C2FCDDE90F0203920E9B22
:1040700011990022DDF80CA00093049211B9791C6B
:1040800000EB010AB7EB0A0004D4C0F1FF3007F1DE
:10409000010A0490AAEB0700019044E0012F00DA26
:1040A00001270021112F01DD112000E03846CDE964
:1040B000000106A90EA8FFF799FCDDE90F010E9A91
:1040C0000391002104910092BA4621070CD4039970
:1040D000514500DA8A46BAF1010F05DD009AAAF1CE
:1040E0000101515C302908D0B84202DA10F1040F06
:1040F00006DA0121CDE9011015E0AAF10101E9E795
:10410000002805DC049901440491AAEB000102E0B7
:10411000411C514500DD8A460499401A401C01901B
:104120004FF000400290200704D40198504501DB75
:10413000CDF8048000208DF84F0002980DF14F0754
:10414000B0F1004F25D02B200E9002984FF00208BE
:1041500000280CDA404202902D200E9007E00A2140
:104160000298FCF70DFC3031029007F8011DB8F100
:104170000001A8F10108F2DC02980028EFD1791EB5
:104180000E980870307800F0200040F0450007F8E5
:10419000020D12A8C01B00F107081498007800B1A6
:1041A000012000EB0A01019801EBE0710598414400
:1041B000401A401E0590E00306D45B462146179A3C
:1041C000059800F05DF805441498007818B15A4637
:1041D000179990476D1CE00324D55B462146179A3A
:1041E000059800F04DF805441CE00498002807DB12
:1041F000DDE90301884203DD0098405C179901E086
:10420000179930205A469047049805F10105401C43
:1042100004900198401E019004D12E205A4617990F
:1042200090476D1CBAF10001AAF1010ADDDC05E03E
:1042300017F8010B5A46179990476D1CB8F1000109
:10424000A8F10108F4DC5B462146179A0598ABE615
:104250002D0000002B000000200000002DE9F0419F
:10426000044600251E461746880404D405E0394656
:104270002020B0476D1C641EF9D52846BDE8F081AA
:104280002DE9F041044600251E469046C80301D59D
:10429000302700E02027880404D505E04146384651
:1042A000B0476D1C641EF9D52846BDE8F0810A6848
:1042B000531C0B60107070472DE9F041ADF5806D17
:1042C00004464FF480616846FBF7C7FF2046FBF7C2
:1042D000EBFF804600250026002700202FE0215C10
:1042E0007B2909D1761C022E19D1012722232946C8
:1042F0006D1C0DF8013012E0215C7D290FD1761E76
:10430000022E0CDA5FB10027235C29466D1C0DF8E4
:104310000130222329466D1C0DF801300EE0215C8E
:10432000222905D127B15C2329466D1C0DF80130E7
:10433000235C29466D1C0DF8013000BF401C404530
:10434000CDDB69462046FBF7C4FF0DF5806DBDE867
:10435000F081014609B1086808B90020704719B119
:10436000D1E90120904201D30846F7E702E08868CE
:10437000401C886041B1D1E90120904204D28A6892
:104380000868805C2028F2DDD1E90120904202D14A
:104390008868401E88600846E0E7000070B5044663
:1043A000002526E02568A08900F4807020B9A06867
:1043B00010B1A068FFF7F2FFA08900F4807038B94F
:1043C000206928B10C4A2069516888470020206183
:1043D000A08900F4007038B9606A28B1064A606AA2
:1043E000516888470020606203484168204688473A
:1043F0002C46002CD6D170BD1C000020024800685D
:1044000001494968084470471400002070B504460B
:104410000D4600222946204600F088FA70BD70B58E
:10442000044628202168884705461DB128212846D2
:10443000FBF713FF284670BD10B504460022114655
:10444000204600F06BF810BD2DE9F0478AB0044615
:104450000E46154698461C2103A8FBF7FEFE0027D2
:1044600000202C490860486004B106B932E003948A
:10447000049600200590284A07CA07AB07C32648C0
:10448000FFF7CDFF074607B924E003A800F0ACFF13
:104490008246FFF75EFF81464946384600F0AEFE91
:1044A00000B917E0B8F1000F0BD003A8FFF751FFD8
:1044B000DDE90410884203D205990398405C00B1FD
:1044C00008E01DB1059903980844286038460AB0F1
:1044D000BDE8F08717B13846FFF760FFC4B101941B
:1044E00000200290DDE90410884202D20598029073
:1044F00004E0049810B10498401E02901DB1DDE95B
:104500000101084428600348DDE9011206C000BF2C
:104510000020DCE7140000201C0000202DE9F04101
:1045200004460D46164614B90020BDE8F081204629
:10453000FBF7BAFE471C33462A4639462046FFF7AA
:1045400083FFF2E770B504460D4604B10DB90120B2
:1045500070BDAC4201D10020FAE705E0207808B92F
:104560000020F5E7641C6D1C2078FBF70CFE064666
:104570002878FBF708FE8642F0D02078FBF703FE90
:1045800006462878FBF7FFFD301AE1E730B591B019
:1045900004460D462B46224604A101A8FFF7ACF9BC
:1045A00008A101A800F078F911B030BD41542B43A7
:1045B000574A41503D222573222C222573220D0A91
:1045C000000000005749464920434F4E4E45435492
:1045D0004544000010B502A102A000F05DF910BD35
:1045E0004F4B000041542B43574D4F44453D310D37
:1045F0000A00000010B503A408A1204600F04CF901
:1046000010BD000041542B43575245434F4E4E437B
:1046100046473D352C3530300D0A00004F4B000029
:1046200010B5A0B020A16846FFF766F922A1684640
:1046300000F032F910B9002020B010BD20A168466A
:1046400000F02AF928B120A1684600F025F90028D9
:1046500020D103240FE0FDF7C3FA1DA000F0B2F84B
:10466000012803D122A0FFF737F904E027A0FFF7C4
:1046700033F90120E0E7201EA4F101014CB2EAD198
:10468000002C06DC00F052F818B9FDF769FF012094
:10469000D2E706E000F04AF818B9FDF761FF012003
:1046A000CAE70020C8E7000041542B4D5154544341
:1046B0004F4E4E3F0D0A0000302C362C31000000CA
:1046C000302C342C31000000302C352C310000000F
:1046D0005530363632383536372F55303636323853
:1046E0003536375F35325359324B544100000000A4
:1046F0007265636F6E6E656374204D5154545355EB
:1047000042204572726F72210D0A00007265636F5C
:104710006E6E656374204D51545453554220537549
:10472000636365737366756C210D0A0010B502A191
:1047300002A000F0B1F810BD4F4B000041542B4DCA
:10474000515454434C45414E3D300D0A0000000089
:1047500030B5A1B004460D462B46224604A101A85F
:10476000FFF7CAF809A101A800F096F821B030BD02
:1047700041542B4D515454434F4E4E3D302C222525
:1047800073222C25642C300D0A0000004F4B0000D2
:1047900010B5A0B00446224604A16846FFF7ACF865
:1047A00007A1684600F078F820B010BD41542B4DA9
:1047B000515454434F4E4E4346473D25730D0A0016
:1047C0004F4B000010B5A0B00446224604A1684635
:1047D000FFF792F808A1684600F05EF820B010BD1F
:1047E00041542B4D5154545355423D302C22257386
:1047F000222C320D0A0000004F4B000010B5ADF521
:10480000027D0446224605A101A8FFF775F808A11C
:1048100001A800F041F80DF5027D10BD41542B4D6B
:10482000515454555345524346473D25730D0A0094
:104830004F4B000010B588B00446224604A16846DC
:10484000FFF75AF806A1684600F026F808B010BD38
:1048500041542B50494E473D25730D0A000000007E
:104860004F4B000010B502A102A000F015F810BDDA
:104870004F4B000041540D0A0000000010B54FF4EA
:1048800000610348FBF7E9FC00200249088010BDE5
:10489000C40200203600002070B504460D46FA26FA
:1048A000FFF7ECFF2046FEF747FD0CE000F014F8A0
:1048B00030B929460748FBF7DBFC08B1002070BD82
:1048C0000A20FCF7EAFD301EA6F10101CEB2EDD1BF
:1048D0000120F4E7C40200200A48008808B901203A
:1048E00070470848008808490988884203D1002099
:1048F00004490880F4E70348008803490880012040
:10490000EEE70000360000203800002000BF054A16
:10491000128802F04002002AF9D0C2B2014B1B1DDE
:104920001A807047003801402E2070472DE9F04171
:1049300005460E461746002405B116B90020BDE80D
:10494000F081AC685FB100E024688CB1606A78B136
:104950003046616AFBF7AFFC0028F5D108E000E0C3
:1049600024682CB13046616AFFF7ECFD0028F7D1CE
:104970000CB1606A08B90020E1E72046DFE70000DB
:104980002DE9F0410B3020F00706104D19E02068AA
:10499000B04215D3B0420AD9871B201DD4F8048039
:1049A000FBF742FCA019C0E90078286004E06068C9
:1049B0002860201DFBF738FC201D2660BDE8F08133
:1049C000251D2C68002CE2D10020F7E764000020B0
:1049D00000B5ADF5017D074B07A20FA101A8FEF7B9
:1049E0008BFFFFF74BFF01A8FEF7A6FC0DF5017D3D
:1049F00000BD0000A856000855303636323835362E
:104A0000372F5530363632383536375F35325359D1
:104A1000324B54410000000041542B4D515454502E
:104A200055423D302C222573222C222573222C3016
:104A30002C300D0A000000000EB54FF4E130FEF7F7
:104A4000F3FD4FF4E130FEF731FE5F485F49086047
:104A500000F032FD00F0F4FCFEF782FE00F0A2FC54
:104A6000FCF75CFDFDF77CFD5948FCF7F9FCFEF70F
:104A70007BFEFFF703FF574854490860FFF7A8FF84
:104A80004FF4FA70FCF709FDFFF7F8FEFDF7FAF8AE
:104A9000002051490870FEF702FBFDF739FFFEF7D1
:104AA0009FFAC820FCF7F9FC4CA14F48FEF79DFD8A
:104AB0004FF4FA70FCF7F1FC02E04CA0FEF70CFF9B
:104AC000FDF740FF0028F8D0FDF778F800BFFCF7AD
:104AD000ADF94848007801280CD1FDF781F8FFF7BF
:104AE0009FFD10B144A0FEF7F7FEFDF779F8002016
:104AF000404908704648007820B1FFF769FF002060
:104B0000434908703448007830B1FFF7B7FEFDF72D
:104B1000B9F800203049087040F2E330FCF7BDFCE2
:104B20003C480078012839D13B48007868B9FCF747
:104B30009FF9002832D039A0FEF7CEFE012042496D
:104B400008604249C1F8BC0128E0334800780128D8
:104B500024D1FCF78DF908B33DA0FEF7BDFE01207E
:104B60003949083908603949C1F8B401002036498B
:104B70000860294908704FF40040019000208DF82A
:104B8000080008208DF8090001208DF80A0001A80E
:104B9000FCF79CFE00201F49087000BFFCF77EFB5D
:104BA0000B4840790A490979094AD278CDE90021B0
:104BB0000290074883784278017830A0FEF78CFE97
:104BC000FDF70EF883E7000069320008600000205E
:104BD00058000020B93200083300002041373A3035
:104BE000303030340D0A00000048004074657374A2
:104BF0000A000000490000205265636F6E6E204D70
:104C00005154542073756363656564210D0A000077
:104C1000420000204100002048000020656C7365C0
:104C20002D52656C61792074657374436F6D70618A
:104C3000726554696D65205375636365737366753A
:104C40006C210D0A00000000B88121420080214241
:104C50006C696768742D52656C6179207465737432
:104C6000436F6D7061726554696D65205375636340
:104C700065737366756C210D0A00000025642D258F
:104C8000642D2564202025643A25643A25640D0AA4
:104C9000000000002DE9F04180460C460025002769
:104CA000E068B0F57A7F02D30020BDE8F081E068CB
:104CB000401CE060A1682068405C5B2800D05FE099
:104CC000A068401CA0602046FFF743FB4CB1D4E92C
:104CD0000110884205D2A1682068405C5D2800D19F
:104CE0003FE01CB1D4E90110884203D3A068401E04
:104CF000A06045E0A068401EA06000BF04F1100065
:104D0000FFF78DFB064606B93AE015B9354637463A
:104D100002E03E6077603746A068401CA0602046F5
:104D2000FFF717FB2146384600F068FA00B927E084
:104D30002046FFF70EFB44B1D4E90110884204D2AB
:104D4000A1682068405C2C28D8D044B1D4E9011077
:104D5000884204D2A1682068405C5D2800D00FE042
:104D600000BFE068401EE06005B16F602020C8F819
:104D70000C00C8F80850A068401CA060012094E70F
:104D800015B12846FFF70AFB00208EE702460023F4
:104D9000002100BF23E0505C302806DB505C39283E
:104DA00003DC505C3038034415E0505C412806DBDE
:104DB000505C462803DC505C373803440BE0505C01
:104DC000612806DB505C662803DC505C57380344DE
:104DD00001E000207047032900D21B01491C04296F
:104DE000D9D31846F6E700002DE9F04391B080468C
:104DF0000C4600BF00201090FFF796FD814600256D
:104E00000CB1206818B9002011B0BDE8F08300256E
:104E10003CE0A16820680844405D342820D00ADCCA
:104E2000A0F12B0009282ED2DFE800F0202D212A46
:104E30002D1617181900382816D006DC352810D082
:104E400036280FD037281ED10DE039280DD045283F
:104E50000FD0652817D10BE000BF00BF00BF00BF17
:104E600000BF00BF00BF00BF00BF00BF00BF00BF4A
:104E700000BFA16820680844405D0DF8050003E00C
:104E80000DF8059000E00AE000BF6D1C3F2D05D233
:104E900024B1A068284461688842BAD300BF0020CA
:104EA0000DF8050010A9684600F0BCFA06460F464A
:104EB00068461099884201D10020A5E7C8E9066735
:104EC000144A154B30463946FBF742FD04D86FF0C3
:104ED0000040C8F8140011E00022104B304639465B
:104EE000FBF71EFD04D84FF00040C8F8140005E0A1
:104EF00030463946FBF7CFFCC8F814000820C8F844
:104F00000C00A0686A461099891A0844A060012024
:104F10007AE700000000C0FFFFFFDF410000E0C1B2
:104F20002DE9F04180460C4600260025E068B0F5EA
:104F30007A7F02D30020BDE8F081E068401CE06089
:104F400044B1D4E90110884204D2A1682068405CD1
:104F50007B2800D084E0A068401CA0602046FFF7BA
:104F6000F8F94CB1D4E90110884205D2A168206853
:104F7000405C7D2800D164E01CB1D4E90110884276
:104F800003D3A068401EA0606AE0A068401EA06035
:104F900000BF04F11000FFF742FA074607B95FE0CF
:104FA00016B93E463D4602E02F607D603D4624B185
:104FB000A068401C6168884200D351E0A068401C92
:104FC000A0602046FFF7C5F92146284600F04EF8BC
:104FD00000B945E02046FFF7BCF928696862002067
:104FE000286144B1D4E90110884204D2A168206844
:104FF000405C3A2800D033E0A068401CA060204606
:10500000FFF7A7F92146284600F0F8F800B927E095
:105010002046FFF79EF944B1D4E90110884204D23A
:10502000A1682068405C2C28B3D044B1D4E90110B9
:10503000884204D2A1682068405C7D2800D00FE03F
:1050400000BFE068401EE06006B175604020C8F80F
:105050000C00C8F80860A068401CA06001206AE746
:1050600016B13046FFF79AF9002064E72DE9F84FB2
:1050700080460C46A16820680844461CA168206848
:105080000844451C002000900027A1682068405C6F
:10509000222800D0A6E04FF0000AD1460DE0287883
:1050A0005C2809D1681C2168401A6168884200D3D5
:1050B00098E009F101096D1C6D1C2068281A6168CF
:1050C000884202D228782228E9D12068281A61680B
:1050D000884202D22878222800D083E0A168206884
:1050E0000844281AA0EB090A0AF10100216988473F
:1050F000074607B976E0009761E030785C2807D072
:1051000016F8010B009908700098401C009056E0BA
:105110004FF00209A81B012800DA63E070786628C6
:1051200019D008DC222832D02F2832D05C282FD08A
:10513000622840D108E06E2814D0722819D0742853
:105140001ED0752837D12BE00820009908700098F0
:10515000401C009030E00C20009908700098401C22
:10516000009029E00A20009908700098401C0090E7
:1051700022E00D20009908700098401C00901BE070
:105180000920009908700098401C009014E000BFAE
:1051900000BF7078009908700098401C00900BE0E8
:1051A0006A462946304600F0C3F98146B9F1000F3E
:1051B00000D117E000E015E000BF4E4400BFAE4252
:1051C0009BD30020009908701020C8F80C00C8F884
:1051D00010702068281AA060A068401CA060012000
:1051E000BDE8F88F1FB1384661698847002716B1BE
:1051F0002068301AA0600020F2E7000070B5054674
:105200000C460CB1206808B9002070BD9CB1A068A4
:10521000001D616888420ED8A2682168881804229F
:105220003FA1FBF75FF830B90420E860A068001DDB
:10523000A0600120E9E79CB1A068401D6168884238
:105240000ED8A26821688818052237A1FBF74AF812
:1052500030B90120E860A068401DA0600120D4E7BB
:10526000ACB1A068001D6168884210D8A2682168AE
:10527000881804222EA1FBF735F840B90220E86017
:1052800001206861A068001DA0600120BDE76CB12D
:10529000D4E90110884209D2A1682068405C222824
:1052A00004D121462846FFF7E1FEAEE7BCB1D4E9C0
:1052B0000110884213D2A1682068405C2D2809D0D3
:1052C000A1682068405C302809DBA1682068405C48
:1052D000392804DC21462846FFF786FD95E76CB1A6
:1052E000D4E90110884209D2A1682068405C5B289B
:1052F00004D121462846FFF7CDFC86E76CB1D4E9FE
:105300000110884209D2A1682068405C7B2804D142
:1053100021462846FFF704FE77E7002075E70000E6
:105320006E756C6C0000000066616C7365000000B7
:1053300074727565000000002DE9F04704008A468C
:1053400016D054F8047CD4F800903E1F564500D97E
:1053500056462046FEF7E4FA054688463246214680
:105360005046FFF70DFB40B1C0F80090BDE8F08754
:10537000BDE8F0470846FEF701BB44E9017955B1A5
:1053800029686A18211F8A4202D9611B091F2960F6
:10539000C5F80480EAE7024AC2F80080E6E70000A8
:1053A0006400002010B510211C20FCF7CDFB10215B
:1053B0001D20FCF7C9FB10211E20FCF7C5FB1021A6
:1053C0001F20FCF7C1FB0020054908600549C1F812
:1053D000B4010349083108600249C1F8BC0110BD9D
:1053E000B08121420080214210B504461CB12068E2
:1053F00008B1A06808B1002010BD7CB1A068001DF4
:10540000616888420AD2A26821688818032204A130
:10541000FAF768FF10B9A068C01CA0602046EBE74F
:10542000EFBBBF0000B583B00A460021CDE90011F3
:1054300001466846FBF757FBDDE9000103B000BDFC
:105440000EB501210D20FDF74DFB01211948FCF798
:1054500033FB48210F20FCF777FB48211320FCF792
:1054600073FB48211420FCF76FFB0F210020FCF791
:1054700077FA4FF40040019000208DF808000820D2
:105480008DF8090001208DF80A0001A8FCF71EFA2A
:105490004FF4A060FDF7C4FA28208DF80000012029
:1054A0008DF803008DF801008DF802006846FDF7C5
:1054B0007FFA0EBD000230001FB501210420FDF768
:1054C000F1FA0020ADF80A00ADF8060048F69F405A
:1054D000ADF8080040F2CF70ADF8040000208DF860
:1054E0000C0001A91148FDF71FFE01210F48FDF72F
:1054F000B3FD012211460D48FDF70CFE4FF4A060EC
:10550000FDF78EFA1E208DF8000002208DF80100B4
:1055100001208DF802008DF803006846FDF748FA77
:1055200000210248FDF79EFD1FBD0000000800405D
:105530002DE9FF5F80468946154600240026C246B5
:1055400000200390834602900190A9EB0A000628F0
:1055500000DA81E00AF10200FFF718FC0646B6F512
:105560005C4F03D3B6F5604F00D275E0B6F5584FE7
:1055700029D3B6F55C4F26D20AF106070020009029
:105580000C200290A9EB0700062800DA64E03878C6
:105590005C2802D17878752800D05DE0B81CFFF750
:1055A000F5FB00900098B0F55C4F03D30098B0F580
:1055B000604F00D350E0C6F30901009861F39F20CB
:1055C00000F5803402E0062002903446802C02D29E
:1055D0000120039018E0B4F5006F04D2022003907C
:1055E000C020019010E0B4F5803F04D20320039066
:1055F000E020019008E0B4F5881F04D20420039055
:10560000F020019000E027E00398401E00F0FF0B1F
:105610000BE004F0BF0040F08000296801F80B00A7
:10562000A409ABF1010000F0FF0BBBF1000FF0DCAF
:105630000398012804DD019820432968087003E0DD
:1056400004F07F00296808702968039808442860DE
:10565000029804B0BDE8F09F0020FAE71F1D1F1E4E
:105660001F1E1F1F1E1F1E1FDDDDDDDDDCBBBBDDA2
:10567000DDDDDDDDDDDDDDDD9888888888888888F2
:105680007777777777888888855555566666666612
:1056900066666666666888888333333222222222F1
:1056A000222222222228888D7B5C22547970655C1C
:1056B000223A305C2C5C2254696D655C223A3132AE
:1056C0003738375C2C5C224D736749645C223A5C46
:1056D00022376639316335613966303837393939BF
:1056E0003464393561343265393139623537346182
:1056F000665C225C2C5C2253656E6449645C223AD1
:105700005C22323232323232375F553151344232DA
:105710005A355C227D000000385700080000002048
:105720006C000000CC390008A45700086C00002071
:1057300084180000DC3900080000000001020304A6
:10574000010203040607080902040608000000001D
:10575000000000007D390008213900083953000895
:105760000000000000000000000000000000000039
:105770000000000000000000000000000000000029
:105780000000000000000000000000000000000019
:1057900061061E173A05000000000000000000002E
:0457A0000000000005
:04000005080000ED02
:00000001FF
